:020000040000FA
:1000000000040020810A000015070000610A0000BA
:100010001F07000029070000330700000000000050
:10002000000000000000000000000000A50A000021
:100030003D070000000000004707000051070000D6
:100040005B070000650700006F07000079070000EC
:10005000830700008D07000097070000A10700003C
:10006000AB070000B5070000BF070000C90700008C
:10007000D3070000DD070000E7070000F1070000DC
:10008000FB070000050800000F0800001908000029
:10009000230800002D080000370800004108000078
:1000A0004B080000550800005F08000069080000C8
:1000B000730800007D080000870800009108000018
:1000C0009B080000A5080000AF080000B908000068
:1000D000C3080000CD080000D7080000E1080000B8
:1000E000EB080000F5080000FF0800000909000007
:1000F000130900001D090000270900003109000054
:100100003B0900001FB500F003F88DE80F001FBD8C
:1001100000F0ACBC40F6FC7108684FF01022401CA7
:1001200008D00868401C09D00868401C04D0086842
:1001300000F037BA9069F5E79069F9E7704770B554
:100140000B46010B184400F6FF70040B4FF0805073
:100150000022090303692403406943431D1B104621
:1001600000F048FA29462046BDE8704000F042BA47
:10017000F0B54FF6FF734FF4B4751A466E1E11E0DA
:10018000A94201D3344600E00C46091B30F8027B3B
:10019000641E3B441A44F9D19CB204EB134394B25D
:1001A00004EB12420029EBD198B200EB134002EBB2
:1001B000124140EA0140F0BDF34992B00446D1E952
:1001C0000001CDE91001FF224021684600F0F4FB58
:1001D00094E80F008DE80F00684610A902E004C8FB
:1001E00041F8042D8842FAD110216846FFF7C0FF7C
:1001F0001090AA208DF8440000F099F9FFF78AFFCB
:1002000040F6FC7420684FF01025401C0FD0206889
:1002100010226946803000F078F92068401C08D030
:100220002068082210A900F070F900F061F9A869AF
:10023000EEE7A869F5E74FF080500369406940F6A2
:10024000FC71434308684FF01022401C06D0086838
:1002500000F58050834203D2092070479069F7E788
:100260000868401C04D00868401C03D00020704778
:100270009069F9E70420704770B504460068C34DE3
:10028000072876D2DFE800F033041929631E250021
:10029000D4E9026564682946304600F062F92A46CE
:1002A0002146304600F031F9AA002146304600F0E0
:1002B00057FB002800D0032070BD00F009FC4FF46C
:1002C000805007E0201D00F040F90028F4D100F034
:1002D000FFFB60682860002070BD241D94E80700C3
:1002E000920000F03DFB0028F6D00E2070BDFFF715
:1002F000A2FF0028FAD1D4E901034FF0805100EBAE
:10030000830208694D69684382420ED840F6F8704E
:1003100005684FF010226D1C09D0056805EB8305B8
:100320000B6949694B439D4203D9092070BD55694A
:10033000F4E70168491C03D00068401C02D003E0C8
:100340005069FAE70F2070BD2046FFF735FFFFF731
:1003500072FF0028F7D1201D00F0F7F80028F2D135
:1003600060680028F0D100F0E2F8FFF7D3FE00F05B
:10037000BFF8072070BD10B50C46182802D0012028
:10038000086010BD2068FFF777FF206010BD41684E
:10039000054609B1012700E0002740F6F8742068FF
:1003A0004FF01026401C2BD02068AA68920000F065
:1003B000D7FA38B3A86881002068401C27D020688D
:1003C000FFF7BDFED7B12068401C22D026684FF051
:1003D0008050AC686D68016942695143A9420DD9EA
:1003E000016940694143A14208D92146304600F0E5
:1003F000B8F822462946304600F087F800F078F831
:100400007069D2E700F093F8FFF784FEF6E77069B1
:10041000D6E77669DBE740F6FC7420684FF01026DB
:10042000401C23D02068401C0CD02068401C1FD0EA
:100430002568206805F18005401C1BD027683879A5
:10044000AA2819D040F6F8700168491C42D001680A
:10045000491C45D00168491C3ED001680968491C07
:100460003ED00168491C39D000683EE0B069DAE747
:10047000B569DEE7B769E2E710212846FFF778FEA5
:100480003968814222D12068401C05D0D4F8001080
:1004900001F18002C03107E0B169F9E730B108CA63
:1004A00051F8040D984201D1012000E000208A4259
:1004B000F4D158B1286810B1042803D0FEE72846CB
:1004C000FFF765FF3149686808600EE0FFF722FE1C
:1004D00000F00EF87169BBE77169BFE7706904E06D
:1004E0004FF480500168491C01D000F0CBFAFEE7C0
:1004F000BFF34F8F26480168264A01F4E06111439B
:100500000160BFF34F8F00BFFDE72DE9F0411746B3
:100510000D460646002406E03046296800F054F8EF
:10052000641C2D1D361DBC42F6D3BDE8F08140F69B
:10053000FC700168491C04D0D0F800004FF48051D1
:10054000FDE54FF010208069F8E74FF080510A690F
:10055000496900684A43824201D810207047002050
:10056000704770B50C4605464FF4806608E0284693
:1005700000F017F8B44205D3A4F5806405F5805562
:10058000002CF4D170BD0000F40A0000000000202F
:100590000CED00E00400FA05144801680029FCD0C5
:1005A0007047134A0221116010490B68002BFCD0E0
:1005B0000F4B1B1D186008680028FCD0002010603D
:1005C00008680028FCD07047094B10B501221A605A
:1005D000064A1468002CFCD0016010680028FCD08A
:1005E0000020186010680028FCD010BD00E4014015
:1005F00004E5014070B50C46054600F073F810B9EB
:1006000000F07EF828B121462846BDE8704000F091
:1006100007B821462846BDE8704000F037B8000012
:100620007FB5002200920192029203920A0B000B06
:100630006946012302440AE0440900F01F0651F80C
:10064000245003FA06F6354341F82450401C8242F8
:10065000F2D80D490868009A10430860081D016827
:10066000019A1143016000F03DF800280AD00649C4
:1006700010310868029A10430860091D0868039A3F
:10068000104308607FBD00000006004030B50F4CED
:10069000002200BF04EB0213D3F800582DB9D3F8A1
:1006A000045815B9D3F808581DB1521C082AF1D3C3
:1006B00030BD082AFCD204EB0212C2F80008C3F8CD
:1006C00004180220C3F8080830BD000000E0014013
:1006D0004FF08050D0F83001082801D0002070473A
:1006E000012070474FF08050D0F83011062905D016
:1006F000D0F83001401C01D0002070470120704725
:100700004FF08050D0F830010A2801D00020704707
:100710000120704708208F490968095808471020B0
:100720008C4909680958084714208A4909680958FA
:100730000847182087490968095808473020854923
:100740000968095808473820824909680958084744
:100750003C20804909680958084740207D490968BC
:100760000958084744207B49096809580847482028
:1007700078490968095808474C207649096809589A
:10078000084750207349096809580847542071499F
:1007900009680958084758206E49096809580847E8
:1007A0005C206C4909680958084760206949096854
:1007B00009580847642067490968095808476820AC
:1007C00064490968095808476C2062490968095852
:1007D000084770205F4909680958084774205D4937
:1007E00009680958084778205A490968095808478C
:1007F0007C205849096809580847802055490968EC
:10080000095808478420534909680958084788202F
:1008100050490968095808478C204E490968095809
:10082000084790204B4909680958084794204949CE
:10083000096809580847982046490968095808472F
:100840009C204449096809580847A0204149096883
:1008500009580847A4203F49096809580847A820B3
:100860003C49096809580847AC203A4909680958C1
:100870000847B0203749096809580847B420354966
:10088000096809580847B8203249096809580847D3
:10089000BC203049096809580847C0202D4909681B
:1008A00009580847C4202B49096809580847C82037
:1008B0002849096809580847CC2026490968095879
:1008C0000847D0202349096809580847D4202149FE
:1008D000096809580847D8201E4909680958084777
:1008E000DC201C49096809580847E02019490968B3
:1008F00009580847E4201749096809580847E820BB
:100900001449096809580847EC2012490968095830
:100910000847F0200F49096809580847F4200D4995
:10092000096809580847F8200A490968095808471A
:10093000FC2008490968095808475FF48070054998
:10094000096809580847000003480449024A034B54
:100950007047000000000020000B0000000B0000AA
:1009600040EA010310B59B070FD1042A0DD310C82C
:1009700008C9121F9C42F8D020BA19BA884201D97E
:10098000012010BD4FF0FF3010BD1AB1D30703D0C6
:10099000521C07E0002010BD10F8013B11F8014B7C
:1009A0001B1B07D110F8013B11F8014B1B1B01D198
:1009B000921EF1D1184610BD02F0FF0343EA032254
:1009C00042EA024200F005B87047704770474FF0A6
:1009D00000020429C0F0128010F0030C00F01B800C
:1009E000CCF1040CBCF1020F18BF00F8012BA8BF1A
:1009F00020F8022BA1EB0C0100F00DB85FEAC17CDE
:100A000024BF00F8012B00F8012B48BF00F8012B90
:100A100070474FF0000200B51346944696462039C1
:100A200022BFA0E80C50A0E80C50B1F12001BFF4A7
:100A3000F7AF090728BFA0E80C5048BF0CC05DF80D
:100A400004EB890028BF40F8042B08BF704748BF5B
:100A500020F8022B11F0804F18BF00F8012B7047CF
:100A6000014B1B68DB6818470000002009480A4951
:100A70007047FFF7FBFFFFF745FB00BD20BFFDE719
:100A8000064B1847064A1060016881F308884068E1
:100A900000470000000B0000000B000017040000DE
:100AA000000000201EF0040F0CBFEFF30881EFF3ED
:100AB0000981886902380078182803D100E0000015
:100AC000074A1047074A12682C3212681047000084
:100AD00000B5054B1B68054A9B58984700BD0000B0
:100AE0007703000000000020F00A0000040000006E
:100AF000001000000000000000FFFFFF0090D00386
:10100000C0130020E15F0200A1C10000475F0200A1
:10101000A1C10000A1C10000A1C1000000000000AA
:101020000000000000000000000000006D600200F1
:10103000A1C1000000000000A1C10000A1C100008A
:10104000D5600200DB600200A1C10000A1C1000068
:10105000A1C10000A1C10000A1C10000A1C1000008
:10106000E1600200A1C10000A1C10000E760020030
:10107000A1C10000ED600200F3600200F96002000F
:10108000A1C10000A1C10000A1C10000A1C10000D8
:10109000A1C10000A1C10000A1C10000A1C10000C8
:1010A000A1C10000FF600200A1C10000A1C10000B9
:1010B000A1C10000A1C10000A1C10000A1C10000A8
:1010C00005610200A1C10000A1C10000A1C1000092
:1010D000A1C10000A1C10000A1C10000A1C1000088
:1010E000A1C10000A1C10000A1C10000A1C1000078
:1010F000A1C10000A1C10000A1C10000A1C1000068
:10110000A1C10000A1C1000000F002F824F057FFC7
:101110000AA090E8000C82448344AAF10107DA4552
:1011200001D124F04CFFAFF2090EBAE80F0013F022
:10113000010F18BFFB1A43F001031847B454020013
:10114000D45402000A444FF0000C10F8013B13F095
:10115000070408BF10F8014B1D1108BF10F8015B10
:10116000641E05D010F8016B641E01F8016BF9D103
:1011700013F0080F1EBF10F8014BAD1C0C1B09D15A
:101180006D1E58BF01F801CBFAD505E014F8016BCC
:1011900001F8016B6D1EF9D59142D6D3704700005E
:1011A0000023002400250026103A28BF78C1FBD870
:1011B000520728BF30C148BF0B6070471FB500F011
:1011C00003F88DE80F001FBD24F0F6BE70B51A4C71
:1011D00005460A202070A01C00F0D5F85920A080F8
:1011E00029462046BDE8704008F0A4B908F0ADB922
:1011F00070B50C461149097829B1A0F160015E294A
:1012000008D3012013E0602804D0692802D043F2FB
:1012100001000CE020CC0A4E94E80E0006EB8000A2
:10122000A0F58050241FD0F8806E2846B04720607B
:1012300070BD012070470000080000201C00002045
:10124000486102003249884201D2012070470020E3
:10125000704770B50446A0F500002E4EB0F1786FCF
:1012600002D23444A4F500042948844201D2012565
:1012700000E0002500F043F848B125B9B44204D39A
:101280002548006808E0012070BD002070BD002DD9
:10129000F9D1B442F9D321488442F6D2F3E710B52C
:1012A0000446A0F50000B0F1786F03D21948044459
:1012B000A4F5000400F023F84FF0804130B1164847
:1012C000006804E08C4204D2012003E01348844209
:1012D000F8D2002080F0010010BD10B520B1FFF75A
:1012E000DEFF08B1012010BD002010BD10B520B1F7
:1012F000FFF7AFFF08B1012010BD002010BD084866
:1013000008490068884201D10120704700207047D9
:1013100000700200000000202000002008000020D3
:101320005C000020BEBAFECA10B5044600210120B0
:1013300000F042F800210B2000F03EF800210820C8
:1013400000F03AF80421192000F036F804210D20AD
:1013500000F032F804210E2000F02EF804210F20B6
:1013600000F02AF80421C84300F026F806211620D0
:1013700000F022F80621152000F01EF82046FFF7A5
:1013800025FF002010BD4FF4807101807047FFF7EA
:101390002DBF1148704710487047104A10B51468A7
:1013A0000E4B0F4A08331A60FFF722FF0B48001D4F
:1013B000046010BD704770474907090E002804DB20
:1013C00000F1E02080F80014704700F00F0000F1F9
:1013D000E02080F8141D704703F900421005024018
:1013E00001000001FD48002101604160018170475A
:1013F0002DE9FF4F93B09B46209F160004460DD069
:101400001046FFF726FF18B1102017B0BDE8F08F87
:101410003146012001F0D3FE0028F6D101258DF8D8
:1014200042504FF4C050ADF84000002210A92846A9
:1014300006F0E2FC0028E8D18DF84250A8464FF4AF
:1014400028500025ADF840001C2229466846079523
:101450000DF02BF89DF81C000DF11C0A20F00F0078
:10146000401C20F0F00010308DF81C0020788DF822
:101470001D0061789DF81E000DF1400961F34200E6
:1014800040F001008DF81E009DF8000008AA40F011
:1014900002008DF800002089ADF83000ADF8325020
:1014A0006089ADF83400CDF82CA060680E900AA9D0
:1014B000CDF82890684606F094FA0028A5D1606817
:1014C000FFF70BFF40B16068FFF710FF20B96078AD
:1014D00000F00300022801D0012000E00020BF4CF2
:1014E00008AA0AA92072BDF8200020808DF8428049
:1014F00042F60120ADF840009DF81E0020F00600E5
:10150000801C20F001008DF81E000220ADF8300094
:10151000ADF8340014A80E90684606F062FA002870
:1015200089D1BDF82000608036B1211D304600F021
:101530005FF90028C2D109E0BBF1000F05D00CF023
:101540002FFDE8BB0CF02CFDD0BBA58017B1012FFF
:1015500043D04AE08DF8428042F6A620ADF8400024
:1015600046461C220021684607950CF09EFF9DF818
:101570001C00ADF8346020F00F00401C20F0F0009B
:1015800010308DF81C009DF81D0020F0FF008DF834
:101590001D009DF81E0020F0060040F00100801C98
:1015A0008DF81E009DF800008DF8446040F00200A8
:1015B0008DF80000CDE90A9AADF8306011A800E07E
:1015C00011E00E9008AA0AA9684606F00AFA002857
:1015D000A6D1BDF82000E08008E00CF0E1FC10B9D5
:1015E0000CF0DEFC08B103200FE7E58000200CE7DB
:1015F0003EB50446794D0820ADF80000A88828B112
:101600002046FFF726FE18B110203EBD06203EBD45
:101610002146012001F0D3FD0028F8D12088ADF843
:1016200004006088ADF80600A088ADF80800E088E6
:10163000ADF80A00A88801AB6A46002106F0D8FD83
:10164000BDF800100829E2D003203EBD7FB5634DF0
:101650000446A88868B1002002900820ADF8080070
:10166000CDF80CD02046FFF7F4FD20B1102004B0D7
:1016700070BD0620FBE7A98802AA4FF6FF7006F0AE
:10168000F9FF0028F3D1BDF80810082901D0032084
:10169000EDE7BDF800102180BDF802106180BDF8B3
:1016A0000410A180BDF80610E180E0E701B582B02A
:1016B0000220ADF80000494802AB6A46408800218C
:1016C00006F096FDBDF80010022900D003200EBDE3
:1016D0001CB5002100910221ADF800100190FFF728
:1016E000DEFD08B110201CBD3C486A4641884FF61B
:1016F000FF7006F0BFFFBDF800100229F3D00320F1
:101700001CBDFEB5354C06461546207A0F46C0076F
:1017100005D00846FFF79DFD18B11020FEBD0F2033
:10172000FEBDF82D01D90C20FEBD3046FFF791FD1E
:1017300018BB208801A905F056FE0028F4D13078A6
:101740008DF80500208801A906F030FD0028EBD1B6
:1017500000909DF800009DF8051040F002008DF803
:101760000000090703D040F008008DF80000208831
:10177000694606F0B8FC0028D6D1ADF8085020889C
:101780003B4602AA002106F033FDBDF80810A9422D
:10179000CAD00320FEBD7CB5054600200090019014
:1017A0000888ADF800000C4628460195FFF795FD26
:1017B00018B92046FFF773FD08B110207CBD15B1A4
:1017C000BDF8000060B105486A4601884FF6FF7019
:1017D00006F050FFBDF8001021807CBD24020020DF
:1017E0000C20FAE72F48C088002800D0012070475D
:1017F00030B5044693B000200D46014600901422F7
:1018000001A80CF052FE1C22002108A80CF04DFE8D
:101810009DF80000CDF808D020F00F00401C20F00B
:10182000F00010308DF800009DF8010006AA20F0AD
:10183000FF008DF801009DF8200001A940F0020092
:101840008DF8200001208DF8460042F60420ADF806
:10185000440011A801902088ADF83C006088ADF8E4
:101860003E00A088ADF84000E088ADF842009DF849
:10187000020020F00600801C20F001008DF802001C
:101880000820ADF80C00ADF810000FA8059008A8CE
:1018900006F0A7F8002803D1BDF818002880002022
:1018A00013B030BD24020020F0B5007B059F1E461A
:1018B00014460D46012800D0FFDF0C2030803A206E
:1018C0003880002C08D0287A032806D0287B0128ED
:1018D00000D0FFDF17206081F0BDA889FBE72DE96C
:1018E000F0470D4686B095F80C900E991446B9F164
:1018F000010F0BD01022007B2E8A9046052807D0BE
:10190000062839D0FFDF06B0BDE8F0870222F2E7F3
:10191000E8890C2200EB400002EB400018803320E5
:101920000880002CEFD0E8896081002720E0009635
:10193000688808F1020301AA696900F097FF06EBC5
:101940000800801C07EB470186B204EB4102BDF89A
:1019500004009081F848007808B1012300E00023DA
:101960000DF1060140460E3213F097F87F1CBFB20E
:101970006089B842DBD8C6E734200880E889B9F12D
:10198000010F11D0122148430E301880002CBAD01C
:10199000E88960814846B9F1010F00D00220207328
:1019A00000270DF1040A1FE00621ECE70096688885
:1019B00008F1020301AA696900F058FF06EB08006C
:1019C000801C86B2B9F1010F12D007EBC70004EBFF
:1019D0004000BDF80410C18110220AF1020110304C
:1019E0000CF039FD7F1CBFB26089B842DED88AE7AF
:1019F00007EB470104EB4102BDF80400D0810AF176
:101A000002014046103213F06AF8EBE72DE9F04787
:101A10000E4688B090F80CC096F80C80378AF5898D
:101A20000C20DFF81493109902F10C04BCF1030FA1
:101A300008D0BCF1040F3DD0BCF1070F75D0FFDF1B
:101A400008B061E705EB850C00EB4C0018803120F5
:101A50000880002AF4D0A8F1060000F0FF0A5581A2
:101A600024E01622002101A80CF01FFD00977088C9
:101A7000434601AA716900F0F9FEBDF80400208018
:101A8000BDF80600E080BDF80800208199F800004C
:101A900008B1012300E00023A21C0DF10A01504609
:101AA00012F0FBFF07EB080087B20A346D1EADB2DF
:101AB000D7D2C5E705EB850C00EB4C00188032202F
:101AC0000880002ABCD0A8F1050000F0FF0A55816B
:101AD00037E000977088434601AA716900F0C6FE9E
:101AE0009DF80600BDF80410E1802179420860F3FA
:101AF000000162F34101820862F38201C20862F3CD
:101B0000C301020962F30411420962F3451182091B
:101B100062F386112171C0096071BDF80700208150
:101B200099F8000010B1012301E00EE000232246E5
:101B30000DF10901504612F0B0FF07EB080087B223
:101B40000A346D1EADB2C4D27AE7A8F1020084B2A5
:101B500005FB08FC0CF10E00188035200880002AD7
:101B6000A7D05581948100971FFA8CF370880E32AC
:101B7000716900F07BFE63E72DE9F84F1E460A9D70
:101B80000C4681462AB1607A00F58070D080E089E9
:101B9000108199F80C000C274FF000084FF00E0A46
:101BA0000D2872D2DFE800F09D070E1B272F374566
:101BB000546972727200214648460095FFF774FE20
:101BC000BDE8F88F207B9146082802D0032800D07A
:101BD000FFDF3780302009E0A9F80A80F0E7207B9A
:101BE0009146042800D0FFDF378031202880B9F1EA
:101BF000000FF1D1E4E7207B9146042800D0FFDFFD
:101C000037803220F2E7207B9146022800D0FFDFA8
:101C100037803320EAE7207B1746022800D0FFDF19
:101C20003420A6F800A02880002FC9D0A7F80A8089
:101C3000C6E7207B1746042800D0FFDF3520A6F832
:101C400000A02880002FBBD04046A7F80A8012E0F1
:101C5000207B1746052802D0062800D0FFDF102081
:101C6000308036202880002FAAD0E0897881A7F81C
:101C70000E80B9F80E00B881A2E7207B91460728B4
:101C800000D0FFDF37803720B0E72AE04FF01200A6
:101C900018804FF038001700288091D0E0897881B3
:101CA000A7F80E80A7F8108099F80C000A2805D034
:101CB0000B2809D00C280DD0FFDF81E7207B0A28F4
:101CC00000D0FFDF01200AE0207B0B2800D0FFDFDF
:101CD000042004E0207B0C2800D0FFDF05203873AF
:101CE0006EE7FFDF6CE770B50C46054601F0ABFB15
:101CF00020B10078222804D2082070BD43F20200EF
:101D000070BD0521284611F03DF9206008B1002082
:101D100070BD032070BD30B44880087820F00F00FB
:101D2000C01C20F0F000903001F8080B1DCA81E8BB
:101D30001D0030BC07F07FBC100000202DE9FF47DC
:101D400084B0002782460297079890468946123051
:101D50000AF077FA401D20F00306079828B907A972
:101D60005046FFF7C0FF002854D1B9F1000F05D04D
:101D70000798017B19BB052504681BE098F8000053
:101D8000092803D00D2812D0FFDF46E0079903256C
:101D90004868B0B3497B42887143914239D98AB2CD
:101DA000B3B2011D10F061FF0446078002E0079CFA
:101DB000042508340CB1208810B1032D29D02CE063
:101DC0000798012112300AF06EFAADF80C000246B5
:101DD00002AB2946504608F0C6FA070001D1A01C04
:101DE000029007983A461230C8F80400A8F802A0FA
:101DF00003A94046029B0AF063FAD8B10A2817D219
:101E000000E006E0DFE800F007091414100B0D14E1
:101E10001412132014E6002012E6112010E6082008
:101E20000EE643F203000BE6072009E60D2007E665
:101E3000032005E6BDF80C002346CDE900702A46D4
:101E40005046079900F022FD57B9032D08D1079895
:101E5000B3B2417B406871438AB2011D10F019FF93
:101E6000B9F1000FD7D0079981F80C90D3E72DE98D
:101E7000FE4F91461A881C468A468046FAB102AB4C
:101E8000494608F070FA050019D04046A61C27887C
:101E900011F0BDF93246072629463B46009610F060
:101EA000CAFD20882346CDE900504A4651464046A7
:101EB00000F0ECFC002020800120BDE8FE8F002017
:101EC000FBE710B586B01C46AAB104238DF800309C
:101ED0001388ADF808305288ADF80A208A788DF85A
:101EE0000E200988ADF80C1000236A462146FFF742
:101EF00025FF06B010BD1020FBE770B50D4605218B
:101F000011F040F8040000D1FFDF294604F112006F
:101F1000BDE870400AF0B0B92DE9F8430D4680469F
:101F2000002607F085FB04462878102878D2DFE8E1
:101F300000F0773B345331311231313108313131D6
:101F400031312879001FC0B2022801D0102810D1E9
:101F500014BBFFDF35E004B9FFDF0521404611F077
:101F600011F8007B032806D004280BD0072828D0BE
:101F7000FFDF072655E02879801FC0B2022820D055
:101F800050B1F6E72879401FC0B2022819D01028B6
:101F900017D0EEE704B9FFDF13E004B9FFDF2879BB
:101FA00001280ED1172137E00521404610F0EAFF45
:101FB000070000D1FFDF07F1120140460AF039F9AE
:101FC0002CB12A4621464046FFF7A5FE29E0132101
:101FD000404602F029FD24E004B9FFDF0521404618
:101FE00010F0D0FF060000D1FFDF694606F11200B5
:101FF0000AF029F9060000D0FFDFA988172901D2CD
:10200000172200E00A46BDF80000824202D90146CC
:1020100002E005E01729C5D3404600F047FCD0E7B1
:10202000FFDF3046BDE8F883401D20F0030219B100
:1020300002FB01F0001D00E000201044704713B5C2
:10204000009858B10024684610F0B9FD002C04D166
:10205000F749009A4A6000220A701CBD0124002042
:10206000F2E72DE9F0470C461546242200212046D0
:102070000CF01BFA05B9FFDFA87860732888DFF839
:10208000B0A3401D20F00301AF788946DAF80400C0
:1020900010F0B3FD060000D1FFDF4FF0000826600E
:1020A000A6F8008077B109FB07F1091D0AD0DAF81C
:1020B000040010F0A2FD060000D1FFDF6660C6F844
:1020C000008001E0C4F80480298804F11200BDE812
:1020D000F0470AF09FB82DE9F047804601F1120061
:1020E0000D4681460AF0ADF8401DD14F20F00302A5
:1020F0006E7B14462968786810F0AAFD3EB104FB97
:1021000006F2121D03D06968786810F0A1FD052061
:1021100010F0E0FE0446052010F0E4FE201A01282D
:1021200002D1786810F05EFD49464046BDE8F047B0
:102130000AF086B870B50546052110F023FF0400AB
:1021400000D1FFDF04F112012846BDE870400AF01B
:1021500070B82DE9F04F91B04FF0000BADF828B0FA
:10216000ADF804B047880C4605469246052138462E
:1021700010F008FF060000D1FFDF24B1A780A4F80B
:1021800006B0A4F808B0297809220B20B2EB111F81
:1021900073D12A7A04F1100138274FF00C084FF060
:1021A00012090291102A69D2DFE802F068F2F1F018
:1021B0008008D3898EA03DDCF3EEB7B7307B0228D0
:1021C00000D0FFDFA88908EBC001ADF80410302172
:1021D000ADF82810002C25D06081B5F80E800027BE
:1021E0001DE004EBC709317C89F80E10F189A9F8CC
:1021F0000C10CDF800806888042305AA296900F036
:1022000035FBBDF81410A9F8101008F10400BDF852
:1022100016107F1C1FFA80F8A9F81210BFB260894F
:10222000B842DED80CE1307B022800D0FFDFE9891C
:1022300008EBC100ADF804003020ADF8280095F897
:102240000C90002CA9F10400C0B20F90EAD061817B
:10225000B5F81080002725E0CDF8008068884B464F
:1022600003AA696900F002FB08EB09001FFA80F875
:102270006F48007818B1012302E0DDE0DAE00023C6
:1022800004EBC702009204A90C320F9812F005FC6F
:10229000009ABDF80C007F1C1082009ABDF80E0059
:1022A000BFB250826089B842D6D8C9E00AA800906F
:1022B00001AB224629463046FFF711FBC0E0307BD8
:1022C000082805D0FFDF03E0307B082800D0FFDFBF
:1022D000E8891030ADF804003620ADF82800002C55
:1022E0003FD0A9896181F189A18127E0307B09284C
:1022F00000D0FFDFA88901460C30ADF8040037207C
:10230000ADF82800002C2CD06181E8890090AB89C1
:10231000688804F10C02296955E0E88939211030F8
:1023200080B2ADF80400ADF82810002C72D0A98955
:102330006181287A0E280AD002212173E989E1817E
:10234000288A0090EB8968886969029A3BE001213C
:10235000F3E70AA8009001AB224629463046FFF772
:1023600055FB6DE0307B0A2800D0FFDFADF804900C
:10237000ADF828704CB3A9896181A4F810B0A4F815
:102380000EB0012020735BE020E002E030E038E096
:1023900041E0307B0B2800D0FFDF288AADF82870A1
:1023A0001230ADF8040084B104212173A989618140
:1023B000E989E181298A2182688A00902B8A6888CC
:1023C00004F11202696900F051FA39E0307B0C28FF
:1023D00000D0FFDFADF80490ADF828703CB30521C4
:1023E0002173A4F80AB0A4F80EB0A4F810B027E046
:1023F0000AA8009001AB224629463046FFF754FA5E
:102400001EE00AA8009001AB224629463046FFF79D
:10241000B3FB15E034E03B21ADF80400ADF8281023
:1024200074B30120E080A4F808B084F80AB007E093
:1024300010000020FFDF03E0297A012917D0FFDF19
:10244000BDF80400AAF800006CB1BDF82800208097
:10245000BDF804006080BDF82800392803D03C286E
:1024600001D086F80CB011B00020BDE8F08F3C21FF
:10247000ADF80400ADF8281014B1697AA172DFE755
:10248000AAF80000EFE72DE9F84356880F4680468A
:1024900015460521304610F075FD040000D1FFDF20
:1024A000123400943B46414630466A680AF03CF8D4
:1024B000B8E570B50D46052110F064FD040000D1AB
:1024C000FFDF294604F11200BDE8704009F0C6BEE6
:1024D00070B50D46052110F055FD040000D1FFDF59
:1024E000294604F11200BDE8704009F0E4BE70B561
:1024F0000546052110F046FD040000D1FFDF04F180
:10250000080321462846BDE870400422AFE470B5B8
:102510000546052110F036FD040000D1FFDF2146FD
:1025200028462368BDE870400522A0E470B5064641
:10253000052110F027FD040000D1FFDF04F1120097
:1025400009F07FFE401D20F0030511E0011D008809
:102550000322431821463046FFF789FC00280BD0A0
:10256000607BABB2684382B26068011D10F0C7FBAC
:10257000606841880029E9D170BD70B50E460546F6
:1025800007F056F8040000D1FFDF012020726672C8
:102590006580207820F00F00C01C20F0F000303063
:1025A0002070BDE8704007F046B8602801D00720D1
:1025B00070470878C54900F0010008700020704796
:1025C0002DE9F0438BB00D461446814606A9FFF76E
:1025D0008AFB002814D14FF6FF7601274FF42058CC
:1025E0008CB103208DF800001020ADF8100007A872
:1025F000059007AA204604A912F073FA78B10720C3
:102600000BB0BDE8F0830820ADF808508DF80E70CF
:102610008DF80000ADF80A60ADF80C800CE006986B
:10262000A17801742188C1818DF80E70ADF8085031
:10263000ADF80C80ADF80A606A4602214846069B58
:10264000FFF77CFBDCE708B501228DF8022042F69B
:102650000202ADF800200A4603236946FFF731FC69
:1026600008BD08B501228DF8022042F60302ADF83C
:1026700000200A4604236946FFF723FC08BD00B585
:1026800087B079B102228DF800200A88ADF80820C1
:102690004988ADF80A1000236A460521FFF74EFB72
:1026A00007B000BD1020FBE709B1072309E40720AC
:1026B000704770B588B00D461446064606A9FFF768
:1026C00012FB00280ED17CB10620ADF808508DF821
:1026D0000000ADF80A40069B6A460821DC813046BE
:1026E000FFF72CFB08B070BD05208DF80000ADF899
:1026F0000850F0E700B587B059B107238DF80030D6
:10270000ADF80820039100236A460921FFF716FB64
:10271000C6E71020C4E770B588B00C460646002511
:1027200006A9FFF7E0FA0028DCD106980121123053
:1027300009F0B9FD9CB12178062921D2DFE801F02A
:10274000200505160318801E80B2C01EE28880B2E4
:102750000AB1A3681BB1824203D90C20C2E7102042
:10276000C0E7042904D0A08850B901E00620B9E7E9
:10277000012913D0022905D004291CD005292AD00B
:102780000720AFE709208DF800006088ADF8080049
:10279000E088ADF80A00A068039023E00A208DF8D5
:1027A00000006088ADF80800E088ADF80A00A06875
:1027B0000A25039016E00B208DF800006088ADF824
:1027C0000800A088ADF80A00E088ADF80C00A06809
:1027D0000B25049006E00C208DF8000060788DF841
:1027E00008000C256A4629463046069BFFF7A6FAE4
:1027F00078E700B587B00D228DF80020ADF80810FD
:1028000000236A461946FFF799FA49E700B587B0F1
:1028100071B102228DF800200A88ADF8082049889D
:10282000ADF80A1000236A460621FFF787FA37E75A
:10283000102035E770B586B0064601200D46ADF88C
:1028400008108DF80000014600236A463046FFF765
:1028500075FA040008D12946304605F0E3FC002152
:10286000304605F0FDFC204606B070BDF8B51C46AC
:1028700015460E46069F10F0B8FC2346FF1DBCB25D
:1028800031462A46009410F0A2F8F8BD30B4114643
:10289000DDE902423CB1032903D0002330BC08F03B
:1028A00040BE0123FAE71A8030BC704770B50C4671
:1028B0000546FFF722FB2146284605F0C2FC2846C4
:1028C000BDE87040012105F0CBBC000010000020E5
:1028D0004FF0E0224FF400400021C2F88001BFF326
:1028E0004F8FBFF36F8F1748016001601649900248
:1028F00008607047134900B500220A600A60124B55
:102900004FF060721A60002808BF00BD0F4A104BDC
:10291000DFF840C001280CD002281CBFFFDF00BD3B
:10292000032008601A604FF4000000BFCCF80000DC
:1029300000BD022008601A604FF04070F6E700B555
:10294000FFDF00BD00F5004008F50140A4020020B3
:1029500014F5004004F5014070B50B2000F0BDF9FE
:10296000082000F0BAF900210B2000F0D4F9002172
:10297000082000F0D0F9F44C01256560A560002026
:10298000C4F84001C4F84401C4F848010B2000F029
:10299000B5F9082000F0B2F90B2000F091F925609C
:1029A00070BD10B50B2000F098F9082000F095F9E3
:1029B000E548012141608160E4490A68002AFCD1B0
:1029C0000021C0F84011C0F84411C0F848110B2094
:1029D00000F094F9BDE81040082000F08FB910B560
:1029E0000B2000F08BF9BDE81040082000F086B9FC
:1029F00000B530B1012806D0022806D0FFDF002044
:102A000000BDD34800BDD34800BDD248001D00BD65
:102A100070B5D1494FF000400860D04DC00BC5F8EB
:102A20000803CF4800240460C5F840410820C4359D
:102A300000F053F9C5F83C41CA48047070BD08B5B0
:102A4000C14A002128B1012811D002281CD0FFDF83
:102A500008BD4FF48030C2F80803C2F84803BB48F1
:102A60003C300160C2F84011BDE80840D0E74FF4A7
:102A70000030C2F80803C2F84803B448403001608F
:102A8000C2F84411B3480CE04FF48020C2F80803A8
:102A9000C2F84803AD4844300160C2F84811AD485F
:102AA000001D0068009008BD70B516460D4604462E
:102AB000022800D9FFDF0022A348012304F11001FE
:102AC0008B4000EB8401C1F8405526B1C1F840218C
:102AD000C0F8043303E0C0F80833C1F84021C0F85F
:102AE000443370BD2DE9F0411D46144630B1012834
:102AF00033D0022838D0FFDFBDE8F081891E0022E4
:102B000021F07F411046FFF7CFFF012D23D0002099
:102B1000944D924F012668703E61914900203C39E6
:102B200008600220091D08608D49042030390860C2
:102B30008B483D34046008206C6000F0DFF83004FE
:102B4000C7F80403082000F0BBF88349F007091F09
:102B500008602E70D0E70120DAE7012B02D00022B6
:102B6000012005E00122FBE7012B04D00022022016
:102B7000BDE8F04198E70122F9E774480068704722
:102B800070B500F0D8F8704C0546D4F84001002626
:102B9000012809D1D4F80803C00305D54FF48030CB
:102BA000C4F80803C4F84061D4F8440101280CD1EA
:102BB000D4F80803800308D54FF40030C4F80803A4
:102BC000C4F84461012012F053FFD4F848010128F1
:102BD0000CD1D4F80803400308D54FF48020C4F882
:102BE0000803C4F84861022012F042FF5E48056005
:102BF00070BD70B500F09FF85A4D0446287850B16A
:102C0000FFF706FF687818B10020687012F030FFF7
:102C10005548046070BD0320F8E74FF0E0214FF401
:102C20000010C1F800027047152000F067B84B494A
:102C300001200861082000F061B848494FF47C1079
:102C4000C1F808030020024601EB8003C3F84025C9
:102C5000C3F84021401CC0B20628F5D37047410A92
:102C600043F609525143C0F3080010FB02F000F58F
:102C7000807001EB5020704710B5430B48F2376469
:102C800063431B0C5C020C60384C03FB0400384BA4
:102C90004CF2F72443435B0D13FB04F404EB402098
:102CA00000F580704012107008681844086010BD6C
:102CB0002C484068704729490120C1F8000270473C
:102CC000002809DB00F01F0201219140400980002B
:102CD00000F1E020C0F80011704700280DDB00F083
:102CE0001F02012191404009800000F1E020C0F85E
:102CF0008011BFF34F8FBFF36F8F7047002809DB40
:102D000000F01F02012191404009800000F1E02005
:102D1000C0F8801270474907090E002804DB00F153
:102D2000E02080F80014704700F00F0000F1E02070
:102D300080F8141D70470C48001F00680A4A0D49AE
:102D4000121D11607047000000B0004004B5004043
:102D50004081004044B1004008F50140008000403F
:102D6000408500403C00002014050240F7C2FFFFF0
:102D70006F0C0100010000010A4810B50468094900
:102D800009480831086012F007FF0648001D04607A
:102D900010BD0649002008604FF0E0210220C1F874
:102DA000800270471005024001000001FC1F004036
:102DB000374901200860704770B50D2000F049F8D0
:102DC000344C0020C4F800010125C4F804530D2040
:102DD00000F050F825604FF0E0216014C1F80001C8
:102DE00070BD10B50D2000F034F82A480121416073
:102DF0000021C0F80011BDE810400D2000F03AB8E5
:102E0000254810B504682449244808310860214940
:102E1000D1F80001012804D0FFDF1F48001D046025
:102E200010BD1B48001D00680022C0B2C1F800217F
:102E300013F0E3FBF1E710B5164800BFD0F800111E
:102E40000029FBD0FFF7DCFFBDE810400D2000F0AB
:102E500011B800280DDB00F01F020121914040094C
:102E6000800000F1E020C0F88011BFF34F8FBFF366
:102E70006F8F7047002809DB00F01F02012191408D
:102E80004009800000F1E020C0F880127047000087
:102E900004D5004000D000401005024001000001B0
:102EA0004FF0E0214FF00070C1F8800101F5C071D2
:102EB000BFF34F8FBFF36F8FC1F80001394B8022F2
:102EC00083F8002441F8800C704700B502460420C6
:102ED000354903E001EBC0031B792BB1401EC0B2A2
:102EE000F8D2FFDFFF2000BD41F8302001EBC00128
:102EF00000224A718A7101220A7100BD2A4A00210A
:102F000002EBC0000171704710B50446042800D3DD
:102F1000FFDF254800EBC4042079012800D0FFDF43
:102F20006079A179401CC0B2814200D060714FF03D
:102F3000E0214FF00070C1F8000210BD70B504250B
:102F4000194E1A4C16E0217806EBC1000279012ACD
:102F500008D1427983799A4204D04279827156F835
:102F6000310080472078401CC0B22070042801D373
:102F7000002020706D1EEDB2E5D270BD0C4810B57A
:102F800004680B490B4808310860064890F80004B3
:102F90004009042800D0FFDFFFF7D0FF0448001DE0
:102FA000046010BD19E000E0DC050020580000209E
:102FB00010050240010000010548064A01689142DF
:102FC00001D1002101600449012008607047000020
:102FD0005C000020BEBAFECA40E5014070B50C4658
:102FE000054609F03DFC21462846BDE870400AF040
:102FF0001EBD704770477047002101608180704797
:103000002CFFFFFFDBE5B151007002000001FFFF64
:103010008C00000090D76A00773D4B16B620AFF9C0
:10302000F4D1D1B6F33F7AC76170DB6D30B5F84D9E
:103030000446062CA9780ED2DFE804F0030E0E0E2B
:103040000509FFDF08E0022906D0FFDF04E00329BD
:1030500002D0FFDF00E0FFDFAC7030BD30B50446CA
:103060001038EB4D07280CD2DFE800F0040C060CFA
:103070000C0C0C00FFDF05E0287E112802D0FFDFDA
:1030800000E0FFDF2C7630BD2DE9F04111F094FE19
:10309000044613F0C7F8201AC5B206200FF01AFF35
:1030A000044606200FF01EFF211AD94C207E12285C
:1030B00018D000200F1807200FF00CFF064607203D
:1030C0000FF010FF301A3918207E13280CD0002082
:1030D0000144A078042809D000200844281AC0B26E
:1030E000BDE8F0810120E5E70120F1E70120F4E7E8
:1030F000C74810B590F825004108C54800F12600E2
:1031000005D00DF06BFFBDE8104006F0B3B80DF030
:1031100046FFF8E730B50446A1F120000D460A2825
:103120004AD2DFE800F005070C1C2328353A3F445B
:10313000FFDF42E0207820283FD1FFDF3DE0B448A8
:103140008178052939D0007E122836D020782428AD
:1031500033D0252831D023282FD0FFDF2DE0207851
:1031600022282AD0232828D8FFDF26E0207822280A
:1031700023D0FFDF21E0207822281ED024281CD075
:1031800026281AD0272818D0292816D0FFDF14E0C7
:103190002078252811D0FFDF0FE0207825280CD0DB
:1031A000FFDF0AE02078252807D0FFDF05E0207840
:1031B000282802D0FFDF00E0FFDF257030BD1FB5FB
:1031C00004466A46002001F0AFFEB4B1BDF802200B
:1031D0004FF6FF700621824201D1ADF80210BDF812
:1031E0000420824201D1ADF80410BDF808108142DC
:1031F00003D14FF44860ADF8080068460EF058FB64
:1032000006F038F804B010BD70B514460D460646F9
:10321000FEF71FF858B90DB1A54201D90C2070BDB9
:10322000002408E056F82400FEF713F808B1102037
:1032300070BD641CE4B2AC42F4D3002070BD2DE933
:10324000F04105461F4690460E4600240068FEF7F2
:103250004DF830B9A98828680844401EFEF746F8A2
:1032600008B110203CE728680028A88802D0B8429E
:1032700002D850E00028F5D0092031E72968085D20
:10328000B8B1671CCA5D152A2ED03CDC152A3AD28B
:10329000DFE802F03912222228282A2A313139396E
:1032A00039393939393939392200085D30BB641C64
:1032B000A4B2A242F9D833E00228DDD1A01C085CF8
:1032C00088F80000072801D2400701D40A2007E748
:1032D000307840F0010015E0C143C90707E001283C
:1032E00007D010E00620FBE60107A1F1805100297C
:1032F000F5D01846F4E63078810701D50B20EFE6CB
:1033000040F0020030702868005D384484B2A8881C
:10331000A04202D2B0E74FF4485382B2A242ADD8E5
:103320000020DDE610B5027843F2022354080122A2
:10333000022C12D003DC3CB1012C16D106E0032C88
:1033400010D07F2C11D112E0002011E080790324ED
:10335000B4EB901F09D10A700BE08079B2EB901F9B
:1033600003D1F8E780798009F5D0184610BDFF2019
:103370000870002010BD08B500208DF8000024481A
:1033800090F82E1049B190F82F0002280ED0032893
:103390000ED0FFDF9DF8000008BD1D4869462530AE
:1033A00001F011FE0028F5D0FFDFF3E7032000E075
:1033B00001208DF80000EDE738B50C46054669465A
:1033C00001F001FE00280DD19DF80010207861F376
:1033D0004700207055F8010FC4F80100A888A4F830
:1033E0000500002038BD38B51378A8B1022813D0E5
:1033F000FF281AD007A46D46246800944C7905EB89
:103400009414247864F347031370032809D00FE061
:10341000F00100200302FF0123F0FE0313700228D5
:10342000F3D1D8B240F0010005E043F0FE00107087
:10343000107820F0010010700868C2F80100888838
:10344000A2F8050038BD02210FF09CBD38B50C462E
:103450000978222901D2082038BDADF800008DF886
:10346000022068460DF0FCFD05F004FF050003D1C5
:1034700021212046FFF74EFE284638BD1CB500200E
:103480008DF80000CDF80100ADF80500FB4890F87C
:103490002E00022801D0012000E000208DF8070056
:1034A00068460DF065FE002800D0FFDF1CBD00223D
:1034B0000A80437892B263F3451222F040020A80F8
:1034C00000780C282BD2DFE800F02A06090E11162E
:1034D000191C1F220C2742F0110009E042F01D00C8
:1034E00008800020704742F0110012E042F0100006
:1034F00040F00200F4E742F01000F1E742F0010072
:10350000EEE742F0010004E042F00200E8E742F09A
:10351000020040F00400E3E742F00400E0E7072087
:1035200070472DE9FF478AB00025BDF82C60824620
:103530001C4691468DF81C50700703D56068FDF756
:1035400088FE68B9CD4F4FF0010897F82E0058B1AA
:1035500097F82F00022807D16068FDF7C7FE18B161
:1035600010200EB0BDE8F087300702D5A089802872
:103570003ED8700705D4B9F1000F02D097F82400A7
:10358000A0B3E07DC0F300108DF81B00627D072022
:10359000032162B3012A2DD0022AE2D0042AE0D10D
:1035A0008DF81710F00628D4A27D07202AB3012A2F
:1035B00023D0022A24D0042AD3D18DF8191000BFB9
:1035C0008DF81590606810B307A9FFF7ABFE0028CF
:1035D000C7D19DF81C00FF2816D0606850F8011F65
:1035E000CDF80F108088ADF8130014E000E001E082
:1035F0000720B6E78DF81780D4E78DF81980DFE74C
:1036000002208DF81900DBE743F20220A9E7CDF88C
:103610000F50ADF81350E07B40B9207C30B9607C8E
:1036200020B9A07C10B9E07CC00601D0062098E744
:103630008DF800A0BDF82C00ADF80200A068019044
:10364000A068029004F10F0001F0B1FC8DF80C00AD
:10365000FFF791FE8DF80D009DF81C008DF80E000F
:103660008DF816508DF81850E07D08A900F00F0075
:103670008DF81A0068460EF057FA05F0FBFD70E76A
:10368000F0B58FB000258DF830508DF814508DF8BE
:10369000345006468DF828500195029503950495FF
:1036A00019B10FC901AC84E80F00744CA07805284B
:1036B00001D004280CD101986168884200D120B95A
:1036C0000398E168884203D110B108200FB0F0BD23
:1036D000207DC00601D51F2700E0FF273B460DAA2D
:1036E00005A903A8FFF7ABFD0028EFD1A08AC10709
:1036F00002D0C00600D4EE273B460AAA0CA901A8B6
:10370000FFF79DFD0028E1D19DF81400C00701D00E
:103710000A20DBE7A08A410708D4A17D31B19DF8DA
:103720002810890702D043F20120CFE79DF8281026
:10373000C90709D0400707D4208818B144F2506166
:10374000884201D90720C1E78DF818508DF819601B
:10375000BDF80800ADF81A000198079006A80EF011
:10376000EFF905F087FD0028B0D18DF820508DF8D5
:103770002160BDF81000ADF822000398099008A858
:103780000EF000FA05F076FD00289FD101AD241D52
:1037900095E80F0084E80F00002097E770B586B029
:1037A0000D46040005D0FDF7A1FD20B1102006B0A4
:1037B00070BD0820FBE72078C107A98802D0FF2947
:1037C00002D303E01F2901D20920F0E7800763D468
:1037D000FFF75AFC38B12178C1F3C100012804D0A9
:1037E000032802D005E01320E1E7244890F82400E4
:1037F000C8B1C8074FF001064FF0000502D08DF8A0
:103800000F6001E08DF80F50FFF7B5FD8DF8000057
:1038100020786946C0F3C1008DF8010060788DF80A
:103820000250C20801D00720C1E730B3C20701D05F
:103830008DF80260820705D59DF8022042F0020251
:103840008DF80220400705D59DF8020040F00400E5
:103850008DF80200002022780B18C2F38002DA7083
:1038600001EB40026388D380401CA388C0B253811F
:103870000228F0D3207A78B905E001E0F0010020B9
:103880008DF80260E6E7607A30B9A07A20B9E07A74
:1038900010B9207BC00601D0062088E704F108009B
:1038A00001F085FB8DF80E0068460DF06AFD05F00D
:1038B000E1FC002889D18DF810608DF81150E08866
:1038C000ADF81200ADF8145004A80DF0ADFD05F0F0
:1038D000D1FC002888D12078C00701D0152000E055
:1038E0001320FFF7BBFB002061E72DE9FF47022013
:1038F000FD4E8DF804000027708EADF80600B84626
:1039000043F202094CE001A80FF0A3FA050006D02B
:10391000708EA8B3A6F83280ADF806803EE0039C16
:10392000A07F01072DD504F124000090A28EBDF8E0
:103930000800214604F1360301F0D4FC050005D04F
:103940004D452AD0112D3CD0FFDF3AE0A07F20F07A
:103950000801E07F420862F3C711A177810861F393
:103960000000E07794F8210000F01F0084F82000A8
:103970002078282826D129212046FFF7CBFB21E0FB
:1039800014E040070AD5BDF8080004F10E0101F06B
:1039900024FB05000DD04D4510D100257F1CFFB242
:1039A00002200FF097FA401CB842ACD8052D11D078
:1039B00008E0A07F20F00400A07703E0112D00D0E4
:1039C000FFDF0025BDF806007086052D04D02846CF
:1039D00004B0C7E5A6F832800020F9E770B50646C6
:1039E000FFF731FD054605F023FE040000D1FFDF9F
:1039F0006680207820F00F00801C20F0F00020303E
:103A000020700320207295F83E006072BDE870407F
:103A100005F011BE2DE9F04786B0040000D1FFDFAC
:103A20002078B14D20F00F00801C20F0F0007030A5
:103A3000207060680178491F1B2933D2DFE801F04C
:103A4000FE32323255FD320EFDFD42FC323232780A
:103A5000FCFCFBFA32FCFCF9F8FCFC00C6883046A2
:103A6000FFF7F1FC0546304607F051FCE0B1606815
:103A7000007A85F83E0021212846FFF74BFB3046AF
:103A8000FEF758FB304603F0F1FE3146012013F0FB
:103A900079F8A87F20F01000A877FFF726FF00280C
:103AA00000D0FFDF06B05DE5207820F0F000203088
:103AB00020700320207266806068007A607205F0D2
:103AC000BAFDD8E7C5882846FFF7BDFC00B9FFDF7F
:103AD00060680079012800D0FFDF6068017A06B0D5
:103AE0002846BDE8F04707F0F7BDC6883046FFF727
:103AF000AAFC050000D1FFDF05F09DFD606831469E
:103B00000089288160684089688160688089A8810F
:103B1000012013F037F80020A875A87F00F00300FB
:103B20000228BFD1FFF7E1FE0028BBD0FFDFB9E7D5
:103B3000007928B10228B5D03C28B3D0FFDFB1E727
:103B400005F079FD6668B6F806A0307A361D0128C2
:103B500006D0687E814605F0F9FA070003D101E03E
:103B6000E878F7E7FFDF0022022150460FF001FA64
:103B7000040000D1FFDF22212046FFF7CBFA307985
:103B8000012800D00220A17F804668F30101A177BF
:103B9000308B2081708B6081B08BA08184F8229063
:103BA0008DF80880B8680090F86801906A46032193
:103BB00050460FF0DEF900B9FFDFB888ADF810000D
:103BC000B8788DF8120004AA052150460FF0D1F9FB
:103BD00000B9FFDFB888ADF80C00F8788DF80E005A
:103BE00003AA042150460FF0C4F900B9FFDF0621F3
:103BF00006F1120001F00FFA40B37079800700D58A
:103C0000FFDF7179E07D61F34700E075D6F80600CB
:103C1000A0617089A083062106F10C0001F0FBF978
:103C2000F0B195F825004108607861F3470006E09F
:103C300041E039E071E059E04EE02FE043E0607090
:103C4000D5F82600C4F80200688D12E0E07D20F06F
:103C5000FE00801CE075D6F81200A061F08AD9E75A
:103C6000607820F0FE00801C6070F068C4F80200EC
:103C7000308AE080B8F1010F04D0B8F1020F05D00E
:103C8000FFDF0FE70320FFF7D1F90BE7287E1228AB
:103C900000D0FFDF1120FFF7E1F903E706B020466F
:103CA000BDE8F04701F0AABD05F0C5FC15F8300FDE
:103CB00040F0020005E005F0BEFC15F8300F40F0C2
:103CC00004002870EEE6287E13280AD01528D8D1E3
:103CD0005FF01600FFF7C2F906B0BDE8F04705F047
:103CE000AABC1420F6E70000F0010020A9780529FD
:103CF00009D00429C5D105F09EFC022006B0BDE81C
:103D0000F047FFF793B900790028BAD0E87801F0BE
:103D100035F905F090FC0320F0E7287E122802D147
:103D2000687E01F02BF91120D4E72DE9F05F0546FC
:103D300000784FF000080009DFF8B4A891460C465F
:103D4000464601286ED002286DD007280BD00A28DD
:103D50006AD0FFDFA9F8006014B1A4F80080668083
:103D60000020BDE8F09F6968012704F108000B7886
:103D70004FF0020B5B1F4FF6FF721B2B7ED2DFE86A
:103D800003F0647D7D7D0E7D7D7D7D7D7D217D7D4E
:103D90007D2BFDFCFBFA7D14D2F9E7F8F700C8880B
:103DA0004FF01208102621469AE14FF01C080A260F
:103DB000BCB38888A0806868807920726868C07900
:103DC0006072C7E74FF01B08142654B3032020721B
:103DD00068688088A080BDE70A793C2ABAD00D1DAA
:103DE0004FF010082C26E4B16988A180298B6182EC
:103DF000298B2182698BA182A98BE1826B79024692
:103E0000A91D1846FFF7EFFA2979002001290CD0E7
:103E100084F80FB0FF212176E06120626062A06229
:103E200098E70FE03BE15EE199E1E77320760AF164
:103E3000040090E80E00DAF81000C4E90930C4E983
:103E4000071287E7A9F800608AE72C264FF01D08C3
:103E5000002CF7D0A28005460F1D897B008861F3F6
:103E600000002880B97A490861F341002880B97AB6
:103E7000890861F382002880B97A00E00CE1C90862
:103E800061F3C3002880B97AAA1C0911491C61F3A7
:103E9000041000F07F0028807878B91CFFF7A3FA9F
:103EA000387D05F1090207F11501FFF79CFA387B0F
:103EB00001F0C0F82874787B01F0BCF86874F87ED3
:103EC000A874787AE874387F2875B87B6875388A62
:103ED000E882DAF81C10A961B97A504697F808A070
:103EE000C1F34111012904D0008C504503D2824610
:103EF00009E0FFDF10E0022903D0288820F06000ED
:103F000009E0504504D1288820F06000403002E0EC
:103F1000288840F060002880A4F824A0524607F1C9
:103F20001D01A8699BE011264FF02008002C89D0C4
:103F3000A280686804F10A02007920726868007B38
:103F4000607269688B1D48791946FFF74CFA01E7E2
:103F50000A264FF02108002CE9D08888A0806868E4
:103F6000807920726868C07960729AF8301006E033
:103F700078E06BE052E07FE019E003E03AE021F006
:103F80000401A6E00B264FF02208002CCFD0C888F1
:103F9000A0806868007920726868007A01F04AF8A9
:103FA00060726868407A01F045F8A072D2E61C267B
:103FB0004FF02608002CBAD0A28068684079607261
:103FC0006868007AA0720AF1040090E80E00DAF83E
:103FD0001000C4E90530C4E90312686800793C2880
:103FE00003D0432803D0FFDFB4E62772B2E684F89B
:103FF00008B0AFE610264FF02408002C97D0888830
:10400000A0806868807920816868807A60816868AB
:104010000089A08168688089E0819BE610264FF0C6
:104020002308002C98D08888A0806868C0882081E8
:1040300068680089608168684089A08168688089B3
:10404000E0819AF8301021F0020142E030264FF072
:104050002508002C9AD0A2806968282249680AF0B5
:10406000FAF977E62A264FF02F08002C8ED0A2808E
:1040700069682222091DF2E714264FF01B08002C64
:1040800084D0A280686800790128B0D02772DAE96C
:104090000710C4E903105DE64A46214660E0287A2D
:1040A000012803D0022817D0FFDF53E610264FF077
:1040B0001F08002CA2D06888A080A8892081E889E8
:1040C0006081288AA081688AE0819AF8301021F006
:1040D00001018AF830103DE64FF01208102668887A
:1040E00000F086FF36E6287AC8B3012838D00228C7
:1040F00036D0032801D0FFDF2CE609264FF0110847
:10410000002C8FD06F883846FFF79DF990F822A0D9
:10411000A780687A2072042138460EF045FF0521F9
:1041200038460EF041FF002138460EF03DFF0121D8
:1041300038460EF039FF032138460EF035FF0221D4
:1041400038460EF031FF062138460EF02DFF0721CC
:1041500038460EF029FF504600F010FFFAE5FFE761
:104160002846BDE8F05F01F0D3BC70B5012803D04C
:10417000052800D0FFDF70BD8DB22846FFF763F938
:10418000040000D1FFDF20782128F4D005F050FA98
:1041900080B1017821F00F01891C21F0F00110316C
:1041A00001700221017245800020A075BDE87040B9
:1041B00005F041BA21462846BDE870401322FFF7BA
:1041C00045B92DE9F04116460C00804600D1FFDFCD
:1041D000307820F00F00801C20F0F000103030709C
:1041E0002078012804D0022818D0FFDFBDE8F08134
:1041F0004046FFF728F9050000D1FFDF0320A8752E
:1042000005F019FA94E80F00083686E80F00F84820
:1042100010F8301F41F001010170E7E74046FFF759
:1042200012F9050000D1FFDFA1884FF6FF700027CB
:10423000814202D1E288824203D0814201D1E088EA
:1042400040B105F0F8F994E80F00083686E80F0051
:10425000AF75CBE7A87D0128C8D17823002241465D
:1042600012F0E6FB0220A875C0E738B50C462428FA
:104270005ED008DC20280FD0212825D022284DD060
:10428000232806D14EE0252841D0262832D03F28C9
:1042900053D00725284638BD0021052012F048FCE0
:1042A00008B1112038BDA01C0DF055FB04F0E2FF51
:1042B0000500EFD1002208231146052012F0B8FBBB
:1042C0000528E7D0FFDFE5E76068FDF706F808B1ED
:1042D000102038BD618820886A460DF0E5FD04F0A5
:1042E000C9FF0500D6D160680028D3D0BDF8001002
:1042F0000180CFE7206820B1FCF7F8FF08B1102556
:10430000C8E720460DF0A5FE1FE00546C2E7A078ED
:1043100000F0010120880DF0F8FD16E0086801F0BA
:10432000A3FEF2E7087800F001000CF02BFE0CE091
:10433000618820880DF033FD07E0087800F0010067
:104340008DF8000068460DF051F904F093FFDCE7AA
:1043500070B505460C460846FCF7A1FF08B11020D1
:1043600070BD202D07D0212D0DD0222D0BD0252D55
:1043700009D0072070BD2088A11C0CF0D7FEBDE835
:10438000704004F077BF062070BD99482530704713
:1043900008B53422002196480AF087F80120FEF77C
:1043A00045FE1120FEF75AFE91496846263105F078
:1043B000D5F88F489DF8002010F8251F62F34701BB
:1043C00021F001010170002141724FF46171A0F8E8
:1043D000071002218172FEF78BFE00B1FFDFFDF7AF
:1043E00001F801F0D4F908BD10B50C4640220021B7
:1043F00020460AF05AF8A07F20F00300A077202082
:1044000020700020A07584F8230010BD70472DE9AE
:10441000FC410746FCF71DFF10B11020BDE8FC81F0
:10442000734E06F12501D6F825000090B6F8295004
:10443000ADF8045096F82B408DF806403846FEF74C
:10444000BBFF0028EAD1FEF753FE0028E6D0009912
:1044500046F8251FB580B471E0E710B50446FCF7B7
:104460001EFF08B1102010BD61486149224690F836
:10447000250026314008FEF7B6FF002010BD3EB5EE
:1044800004460D460846FCF70AFF08B110203EBD61
:1044900014B143F204003EBD55488078052803D08E
:1044A000042801D008203EBD694602A80AF020FC7D
:1044B0002A4669469DF80800FEF795FF00203EBD9C
:1044C000FEB50D4604004FF0000712D00822FEF79B
:1044D0009BFE002812D1002609E000BF54F82600F8
:1044E0006946FEF71FFF002808D1761CF6B2AE42DF
:1044F000F4D30CF08EFC10B143F20320FEBD3C4E11
:1045000086F824700CB300271BE000BF54F8270086
:1045100002A9FEF707FF00B1FFDF9DF808008DF844
:10452000000054F8270050F8011FCDF801108088D2
:10453000ADF8050068460CF091FC00B1FFDF7F1C70
:10454000FFB2AF42E2D386F824500020FEBD2DE931
:10455000F0478AB01546894604001FD00F4608224E
:104560002946FEF751FE002811D1002614E000BFB5
:1045700054F826006946103000F025FD002806D1C9
:1045800047B157F82600FCF764FE18B110200AB0B6
:10459000BDE8F087761CF6B2AE42E9D30026A5F15D
:1045A00001081BE006F1010A0AF0FF0712E000BF54
:1045B00054F82600017C4A0854F827100B7CB2EB13
:1045C000530F05D106221130113109F017FF58B1F0
:1045D0007F1CFFB2AF42EBD30AF0FF064645E1DB9A
:1045E0004E463CB1012006E043F20520CFE7000033
:1045F000F001002000200CF056FC10B90CF05FFC1C
:1046000010B143F20420C2E764B300270DF117088C
:1046100026E000BF54F827006946103000F0D3FCB4
:1046200000B1FFDF54F82700102250F8111FCDF819
:1046300001108088ADF8050054F827100DF107002F
:1046400009F009FF96B156F827101022404609F0EC
:1046500002FF68460CF0E7FB00B1FFDF7F1CFFB2F2
:10466000AF42D7D3FEF70AFF002090E7404601F0A3
:10467000EFFCEEE730B585B00446FDF7B3F830B98E
:1046800006200EF027FC10B1062005B030BD2046F4
:10469000FCF7DFFD18B96068FCF728FE08B11020B0
:1046A000F3E760884AF2B811884206D82078F94DBD
:1046B00028B1012806D0022804D00720E5E7FEF73C
:1046C00017FD18E06078022804D0032802D043F2D6
:1046D0000220DAE785F82F00C1B200200090ADF883
:1046E000040002292CD0032927D0FFDF68460CF0F4
:1046F00075FC04F0BFFD0028C7D1606801F09BFC89
:10470000207858B101208DF800000DF1010001F072
:104710009FFC68460DF05FFC00B1FFDF207885F854
:104720002E00FEF7ABFE608860B1A88580B20CF069
:10473000B2FB00B1FFDF0020A7E78DF80500D5E749
:104740004020FAE74FF46170EFE710B50446FCF73C
:10475000A6FD20B9606838B1FCF7BFFD08B1102094
:1047600010BD606801F074FCCA4830F82C1F6180ED
:10477000C178617080782070002010BD2DE9F84369
:10478000144689460646FCF78AFDA0B94846FCF760
:10479000ADFD80B92046FCF7A9FD60B9BD4DA878F4
:1047A000012800D13CB13178FF2906D049B143F24C
:1047B0000400BDE8F8831020FBE7012801D00420A5
:1047C000F7E7CCB3052811D004280FD0694620465E
:1047D000FEF76DFE0028ECD1217D49B1012909D0F9
:1047E000022909D0032909D00720E2E70820E0E7E1
:1047F000024604E0012202E0022200E00322804699
:104800002346174600200099FEF78BFE0028D0D1E2
:10481000A0892880A07BE875BDF80000A882AF754C
:10482000BDF80010090701D5A18931B1A1892980FE
:10483000C00704D0032003E006E08021F7E7022050
:10484000FEF7F4FB86F800804946BDE8F8430020F7
:10485000FEF716BF7CB58F4C05460E46A0780228A1
:1048600003D0032801D008207CBD15B143F2040019
:104870007CBD07200EF036FB10B9A078032806D0C7
:10488000FEF702FC28B1A078032804D009E012202A
:104890007CBD13207CBD304600F053FB0028F9D1CD
:1048A000E670FEF768FD0AF060F901208DF800005F
:1048B0008DF801008DF802502088ADF80400E07DED
:1048C0008DF8060068460DF02DFA04F0D3FC0028A0
:1048D000E0D1A078032805D05FF00400FEF7A6FB26
:1048E00000207CBDE07800F03CFB0520F6E71CB51D
:1048F00010B143F204001CBD664CA078042803D01C
:10490000052801D008201CBD00208DF800000121E1
:104910008DF801108DF8020068460DF003FA04F0DE
:10492000A9FC0028EFD1A078052805D05FF002008F
:10493000FEF77CFB00201CBDE07800F01FFB03208D
:10494000F6E72DE9FC4180460E4603250846FCF7B4
:10495000CDFC002866D14046FEF775FD040004D06A
:104960002078222804D2082058E543F2020055E5B9
:10497000A07F00F003073EB1012F0CD0002031468C
:10498000FEF71DFC0500EFD1012F06D0022F1AD033
:10499000FFDF284642E50120F1E7A07D31460228ED
:1049A00001D011B107E0112038E56846FCF74EFE52
:1049B0000028D9D16946404606F051FE0500E8D1ED
:1049C0000120A075E5E7A07D032804D1314890F8C7
:1049D0003000C00701D02EB30EE026B1A07F400703
:1049E0001ED4002100E00121404606F058FE0500DB
:1049F000CFD1A075002ECCD03146404600F0EDFA64
:104A000005461128C5D1A07F4107C2D4316844F8BA
:104A10000E1F7168616040F0040020740025B8E743
:104A20001125B6E71020F9E470B50C460546FEF7EF
:104A30000AFD010005D022462846BDE87040FEF779
:104A400005BD43F2020070BD10B5012807D1114B1E
:104A50009B78012B00D011B143F2040010BD0CF083
:104A60004CFABDE8104004F005BC012300F090BAF8
:104A700000231A46194600F08BBA70B506460C465C
:104A80000846FCF7E6FB18B92068FCF708FC18B1EB
:104A9000102070BDF0010020F84D2A7E112A04D0AC
:104AA000132A00D33EB10820F3E721463046FEF733
:104AB00075FE60B1EDE70920132A0DD0142A0BD042
:104AC000A188FF29E5D31520FEF7C8FA0020D4E914
:104AD0000012C5E90712DCE7A1881F29D9D31320EA
:104AE000F2E71CB5E548007E132801D208201CBD62
:104AF00000208DF8000068460CF096FC04F0BAFB2C
:104B00000028F4D11120FEF7A9FA00201CBD2DE9E0
:104B1000F04FDFF868A3814691B09AF818009B46E1
:104B200015460C46132803D3FFF7DBFF00281FD1DF
:104B30002046FCF78EFBE8BB2846FCF78AFBC8BB87
:104B400020784FF00107C0074FF0000102D08DF828
:104B50003A7001E08DF83A1020788846C0F3C10021
:104B60008DF8000060788DF80910C10803D0072087
:104B700011B0BDE8F08FB0B3C10701D08DF8097056
:104B8000810705D59DF8091041F002018DF8091043
:104B9000400705D59DF8090040F004008DF8090094
:104BA0009DF80900810703D540F001008DF8090048
:104BB000002000E015E06E4606EB400162884A8165
:104BC000401CA288C0B20A820328F5D32078C0F323
:104BD000C100012825D0032823D04846FCF739FB23
:104BE00028B11020C4E7FFE78DF80970D8E799F8DD
:104BF0000000400808D0012809D0022807D0032867
:104C000005D043F20220B3E78DF8028001E08DF871
:104C10000270484650F8011FCDF803108088ADF8A7
:104C20000700FEF7A8FB8DF801000021424606EBC5
:104C300041002B88C3826B888383AB884384EB88D5
:104C40000385491CC285C9B282860329EFD3E08857
:104C5000ADF83C0068460CF0BFFC002887D19AF8FC
:104C600018005546112801D0082081E706200EF0D3
:104C700039F938B12078C0F3C100012804D00328E5
:104C800002D006E0122073E795F8240000283FF4D4
:104C90006EAFFEF7F9F9022801D2132068E75846F3
:104CA00000F04FF900289DD185F819B068460CF046
:104CB000D9FD04F0DFFA040094D1687E00F051F9C8
:104CC0001220FEF7CBF9204652E770B56B4D287ED7
:104CD000122801D00820DCE60CF0C7FD04F0CAFA67
:104CE000040005D1687E00F049F91120FEF7B6F9FD
:104CF0002046CEE670B5064615460C460846FCF73B
:104D0000CEFA18B92846FCF7CAFA08B11020C0E656
:104D10002A46214630460DF0A7F804F0ABFA0028E9
:104D2000F5D121787F29F2D10520B2E67CB5054680
:104D30000C460846FCF78DFA08B110207CBD2846C9
:104D4000FEF781FB20B10078222804D208207CBD28
:104D500043F202007CBD494890F83000400701D57D
:104D600011207CBD2078C00802D16078C00801D035
:104D700007207CBDADF8005020788DF802006078E7
:104D80008DF803000220ADF8040068460BF0A7FE82
:104D900004F070FA7CBD70B586B014460D46064628
:104DA000FEF751FB28B10078222805D2082006B072
:104DB0006FE643F20200FAE72846FCF797FA20B9BB
:104DC00044B12046FCF789FA08B11020EFE7002033
:104DD0002060A080294890F83000800701D511207C
:104DE000E5E703A930460BF0CAFE10B104F042FA21
:104DF000DDE7ADF80060BDF81400ADF80200BDF8C5
:104E00001600ADF80400BDF81000BDF81210ADF8A2
:104E10000600ADF808107DB1298809B1ADF806107B
:104E2000698809B1ADF80210A98809B1ADF8081078
:104E3000E98809B1ADF80410DCB1BDF80610814273
:104E400001D9081A2080BDF80210BDF81400814273
:104E500001D9081A6080BDF80800BDF80410BDF83B
:104E600016200144BDF812001044814201D9081AED
:104E7000A08068460BF041FFB8E70000F001002079
:104E80001CB574490968CDE9001068460CF0A6FB12
:104E900004F0F0F91CBD1CB500200090019068469C
:104EA0000CF09CFB04F0E6F91CBD70B505460C4601
:104EB0000846FCF7F4F908B11020EAE52146284637
:104EC0000CF07EF9BDE8704004F0D4B93EB505465B
:104ED0000C460846FCF7E3F908B110203EBD00205F
:104EE000009001900290ADF800502089ADF80800C4
:104EF00020788DF80200606801902089ADF80800E4
:104F00006089ADF80A0068460CF06CF904F0B2F95B
:104F10003EBD0EB5ADF800000020019068460CF0D3
:104F200061F904F0A7F90EBD108008885080488808
:104F30009080C88810818888D0800020508190811E
:104F4000704710B5044604F001F930B1407830B133
:104F5000204604F014FC002010BD052010BD1220D6
:104F600010BD10B504F0F2F8040000D1FFDF607846
:104F700000B9FFDF6078401E607010BD10B504F00E
:104F8000E5F8040000D1FFDF6078401C607010BDC0
:104F90001CB5ADF800008DF802308DF803108DF8C7
:104FA000042068460CF023FF04F064F91CBD0CB526
:104FB00029A2D2E90012CDE900120079694601EB7D
:104FC000501000780CBD0278520804D0012A02D09B
:104FD00043F202207047FEF7A5B91FB56A46FFF7F6
:104FE000A3FF68460CF074FC04F044F904B010BD53
:104FF00070B50C0006460DD0FEF725FA050000D16D
:10500000FFDFA68028892081288960816889A081A6
:10501000A889E0813DE510B500231A4603E0845CD1
:105020002343521CD2B28A42F9D30BB1002010BDE7
:10503000012010BD00B540B1012805D0022803D0E1
:10504000032804D0FFDF002000BDFF2000BD0420A6
:1050500000BD0000BC620200070605040302010057
:1050600010B50446FCF7F5F808B1102010BD207803
:10507000C0F30210042807D86078072804D3A17869
:10508000102901D8814201D2072010BDE0784107E4
:1050900006D421794A0703D4000701D4080701D5B3
:1050A000062010BD002010BD10B513785C08837F6A
:1050B00064F3C713837713789C08C37F64F30003FA
:1050C000C3771078C309487863F3410048701378B8
:1050D0001C090B7864F347130B701378DB0863F338
:1050E000000048705078487110BD10B5C4780B7836
:1050F00064F300030B70C478640864F341030B701D
:10510000C478A40864F382030B70C478E40864F3E1
:10511000C3030B700379117863F3000111700379F5
:105120005B0863F34101117003799B0863F382010B
:1051300011700079C00860F3C301117010BD70B523
:1051400014460D46064604F073FA80B10178182221
:1051500021F00F01891C21F0F001A03100F8081B9B
:10516000214609F078F9BDE8704004F064BA294698
:105170003046BDE870401322FEF768B92DE9F047CC
:10518000064608A8904690E8300489461F46142237
:105190000021284609F089F90021CAF80010B8F169
:1051A000000F03D0B9F1000F03D114E03878C00725
:1051B00011D02068FCF773F8C0BBB8F1000F07D11D
:1051C0002068123028602068143068602068A86069
:1051D0002168CAF800103878800724D56068FCF789
:1051E0007CF818BBB9F1000F21D0FFF7CEF80168A9
:1051F000C6F868118188A6F86C11807986F86E016E
:1052000001F015FDF94FEF60626862B196F8680130
:1052100006F2691140081032FEF7E5F8102239460F
:10522000606809F018F90020BDE8F08706E06068C2
:1052300020B1E8606068C6F86401F4E71020F3E785
:1052400030B5054608780C4620F00F00401C20F0D1
:10525000F001103121700020607095F8230030B10A
:1052600004280FD0052811D0062814D0FFDF20789D
:105270000121B1EB101F04D295F8200000F01F00AF
:10528000607030BD21F0F000203002E021F0F0002D
:1052900030302070EBE721F0F0004030F9E7F0B556
:1052A00091B0022715460C4606463A46ADF80870FE
:1052B000092103AB05F057F80490002810D0042012
:1052C0008DF804008DF80170E034099605948DF88E
:1052D00018500AA968460FF050FB00B1FFDF01200B
:1052E00011B0F0BD10B588B00C460A99ADF80000B9
:1052F000CBB11868CDF80200D3F80400CDF8060051
:10530000ADF80A20102203A809F0A5F868460CF0B1
:105310004FFB03F0AFFF002803D1A17F41F0100144
:10532000A17708B010BD0020CDF80200E6E72DE916
:10533000F84F0646808A0D4680B28246FEF783F813
:1053400004463078DFF8A48200274FF00209A8F164
:1053500020080F2870D2DFE800F06FF23708387DA0
:105360008CC8F1F0EFF35FF3F300A07F00F00300CF
:10537000022809D05FF0000080F0010150460DF0D6
:1053800001FE050003D101E00120F5E7FFDF98F8F9
:105390005C10C90702D0D8F860000BE0032105F1CA
:1053A0001D0011F008F9D5F81D009149B0FBF1F28C
:1053B00001FB1200C5F81D0070686867B068A86737
:1053C0002078252800D0FFDFCAE0A07F00F003008E
:1053D000022809D05FF0000080F0010150460DF076
:1053E000D1FD060003D101E00120F5E7FFDF3078B1
:1053F000810702D52178252904D040F001003070C2
:10540000BDE8F88F85F80090307F287106F11D0007
:105410002D36C5E90206F3E7A07F00F0030002285D
:1054200008D0002080F0010150460DF0ABFD0400D3
:1054300004D102E00120F5E7A7E1FFDF2078C106F3
:1054400004D5072028703D346C60D9E740F008008F
:105450002070D5E7E07F000700D5FFDF307CB28801
:1054600000F0010301B05046BDE8F04F092106F0FD
:1054700058B804B9FFDF716821B1102204F124008B
:1054800008F0E9FF28212046FDF744FEA07F00F048
:10549000030002280ED104F12400002300901A46D4
:1054A00021465046FFF71EFF112807D0292120462C
:1054B000FDF730FE307A84F82000A1E7A07F0007D6
:1054C00000D5FFDF14F81E0F40F008002070E782BF
:1054D000A761E761C109607861F34100014660F3AB
:1054E00082016170307AE0708AE7A07F00F00300EB
:1054F000022809D05FF0000080F0010150460DF055
:1055000041FD040003D101E00120F5E7FFDF0221A6
:1055100004F1850011F04FF80420287004F5B470F0
:105520006860B4F885002882304810387C346C619B
:10553000C5E9028064E703E024E15BE02DE015E0CB
:10554000A07F00F00300022807D0002080F00101B6
:1055500050460DF017FD18B901E00120F6E7FFDF16
:10556000324621465046BDE8F84FE8E504B9FFDF72
:1055700020782128A1D93079012803D1E07F40F09B
:105580000800E077324621465046FFF7D8FD204616
:10559000BDE8F84F2321FDF7BDBD3279AA8005F1A2
:1055A00008030921504604F0DEFEE86010B1052032
:1055B000287025E7A07F00F00300022808D0002013
:1055C00080F0010150460DF0DDFC040003D101E044
:1055D0000120F5E7FFDF04F1620102231022081F1A
:1055E0000DF057FB07703179417009E75002002038
:1055F00040420F00A07F00F00300022808D00020E6
:1056000080F0010150460DF0BDFC050003D101E022
:105610000120F5E7FFDF95F8840000F00300012882
:105620007AD1A07F00F00307E07F10F0010602D0DE
:10563000022F04D133E095F8A000C0072BD0D5F895
:10564000601121B395F88320087C62F38700087409
:10565000A17FCA09D5F8601162F341000874D5F83A
:10566000601166F300000874AEB1D5F86001102235
:1056700004F12401883508F0EEFE287E40F0010098
:105680002876287820F0010005F8880900E016B196
:10569000022F04D02DE095F88800C00727D0D5F858
:1056A0005C1121B395F88320087C62F387000874AD
:1056B000A17FCA09D5F85C1162F341000874D5F8DE
:1056C0005C1166F3000008748EB1D5F85C011022FD
:1056D00004F12401883508F0BEFE287840F001006E
:1056E00005F8180B287820F0010005F8A009022F12
:1056F00044D0002000EB400005EBC00090F888008B
:10570000800709D595F87C00D5F86421400805F19B
:105710007D011032FDF767FE8DF8009095F884004A
:105720006A4600F003008DF8010095F888108DF8A6
:10573000021095F8A0008DF803002146504601F0B4
:105740005FFA2078252805D0212807D0FFDF2078B0
:10575000222803D922212046FDF7DCFCA07F00F09F
:10576000030002280CD0002080F0010150460DF00B
:105770001BFC00283FF44FAEFFDF41E60120B9E7F4
:105780000120F1E7706847703AE6FFDF38E670B550
:10579000FE4C002584F85C5025660FF0BAF804F141
:1057A0001001204603F000FF84F8305070BD70B542
:1057B0000D46FDF748FE040000D1FFDF4FF4B8723C
:1057C0000021284608F071FE04F124002861A07F22
:1057D00000F00300022809D05FF0010105F1E000AC
:1057E0000FF098F8002800D0FFDF70BD0221F5E728
:1057F0000A46014602F1E0000FF0ADB870B505466B
:10580000406886B001780A2906D00D2933D00E29C8
:105810002FD0FFDF06B070BD86883046FDF713FE3F
:10582000040000D1FFDF20782128F3D028281BD1E5
:10583000686802210E3001F0D8F9A8B16868082123
:10584000801D01F0D2F978B104F1240130460CF04A
:105850006BFA03F00FFD00B1FFDF06B02046BDE894
:1058600070402921FDF756BC06B0BDE8704003F03A
:10587000E2BE012101726868C6883046FDF7E3FD8B
:10588000040000D1FFDFA07F00F00301022902D154
:1058900020F01000A077207821280AD06868017ACB
:1058A00009B1007980B1A07F00F00300022862D026
:1058B000FFDFA07F00F003000228ABD1FEF715F850
:1058C0000028A7D0FFDFA5E703F0B5FEA17F0806FB
:1058D0002BD5E07FC00705D094F8200000F01F0012
:1058E000102820D05FF0050084F8230020782928B4
:1058F0001DD02428DDD13146042011F043F92221A6
:105900002046FDF707FCA07F00F00300022830D0FE
:105910005FF0000080F0010130460DF045FB0028EB
:10592000C7D0FFDFC5E70620DEE70420DCE701F093
:105930000300022808D0002080F0010130460DF05D
:1059400021FB050003D101E00120F5E7FFDF252160
:105950002046FDF7DFFB03208DF80000694605F1C6
:10596000E0000EF0EFFF0228A3D00028A1D0FFDF57
:105970009FE70120CEE703F05EFE9AE72DE9F043B2
:1059800087B09946164688460746FDF75CFD040039
:105990004BD02078222848D3232846D0E07F000728
:1059A00043D4A07F00F00300022809D05FF000007C
:1059B00080F0010138460DF0E5FA050002D00CE058
:1059C0000120F5E7A07F00F00300022805D00121A7
:1059D000002238460DF0CDFA05466946284601F00A
:1059E00036F9009800B9FFDF45B10098E035056150
:1059F0002078222806D0242804D007E0009900202F
:105A0000086103E025212046FDF784FB0098012171
:105A100041704762868001A9C0E902890EF0ADFF9E
:105A2000022802D0002800D0FFDF07B0BDE8F083D5
:105A300070B586B00546FDF706FD017822291ED90E
:105A4000807F00F00300022808D0002080F00101D0
:105A500028460DF097FA04002FD101E00120F5E768
:105A6000FFDF2AE0B4F85E0004F1620630440178FA
:105A7000427829B121462846FFF711FCB0B9C9E6A2
:105A8000ADF804200921284602AB04F06CFC039019
:105A90000028F4D005208DF80000694604F1E000EC
:105AA0000EF050FF022801D000B1FFDF02231022C8
:105AB000314604F15E000DF022F9B4F860000028D0
:105AC000D0D1A7E610B586B00446FDF7BCFC01783E
:105AD00022291BD9807F00F00300022808D0002073
:105AE00080F0010120460DF04DFA040003D101E0E1
:105AF0000120F5E7FFDF06208DF80000694604F17C
:105B0000E0000EF01FFF002800D0FFDF06B010BD40
:105B10002DE9F05F05460C46002700789046010904
:105B20003E4604F1080BBA4602297DD0072902D06F
:105B30000A2909D146E0686801780A2905D00D29AB
:105B400030D00E292ED0FFDFBBE114271C26002CFD
:105B50006BD08088A080FDF776FC5FEA000900D159
:105B6000FFDF99F817005A46400809F11801FDF7C0
:105B70003AFC6868C0892082696851F8060FC4F849
:105B800012004868C4F81600A07E01E03002002030
:105B900020F0060040F00100A07699F81E0040F0C9
:105BA00020014DE01A270A26002CD1D0C088A08001
:105BB000FDF749FC050000D1FFDF59462846FFF7F5
:105BC0003FFB7EE10CB1A88BA080287A0B287DD00A
:105BD00006DC01287BD0022808D0032804D135E058
:105BE0000D2875D00E2874D0FFDF6AE11E27092624
:105BF000002CADD0A088FDF726FC5FEA000900D19B
:105C0000FFDF287B00F003000128207A1BD020F062
:105C100001002072297B890861F341002072297BF1
:105C2000C90861F3820001E041E1F2E02072297BC2
:105C3000090961F3C300207299F81E0040F0400189
:105C400089F81E103DE140F00100E2E713270D2620
:105C5000002CAAD0A088FDF7F6FB8146807F00F0DB
:105C60000300022808D0002080F00101A0880DF078
:105C700089F9050003D101E00120F5E7FFDF99F87C
:105C80001E0000F00302022A50D0686F817801F0F4
:105C900003010129217A4BD021F00101217283787F
:105CA0009B0863F3410121728378DB0863F382016F
:105CB000217283781B0963F3C3012172037863F3B4
:105CC00006112172437863F3C71103E061E0A9E094
:105CD00090E0A1E0217284F809A0C178A172022AA3
:105CE00029D00279E17A62F30001E1720279520867
:105CF00062F34101E1720279920862F38201E1727A
:105D00000279D20862F3C301E1724279217B62F326
:105D1000000121734279520862F3410121734279F3
:105D2000920862F382012173407928E0A86FADE701
:105D300041F00101B2E74279E17A62F30001E172D8
:105D40004279520862F34101E1724279920862F3AA
:105D50008201E1724279D20862F3C301E1720279F1
:105D6000217B62F3000121730279520862F3410141
:105D700021730279920862F3820121730079C008CD
:105D800060F3C301217399F80000232831D926213B
:105D900040E018271026E4B3A088FDF754FB8346A3
:105DA000807F00F00300022809D0002080F001016C
:105DB000A0880DF0E7F85FEA000903D101E00120B7
:105DC000F4E7FFDFE868A06099F8000040F0040104
:105DD00089F8001099F80100800708D50120207388
:105DE0009BF8000023286CD92721584651E084F8FD
:105DF0000CA066E015270F265CB1A088FDF723FBF9
:105E0000814606225946E86808F0BBFB0120A073D2
:105E1000A0E041E048463CE016270926E4B3287B91
:105E200020724EE0287B19270E26ACB3C4F808A0D8
:105E3000A4F80CA0012807D0022805D0032805D01B
:105E4000042803D0FFDF0DE0207207E0697B0428FF
:105E500001F00F0141F0800121721ED0607A20F024
:105E600003006072A088FDF7EEFA0546007821284D
:105E700027D0232800D0FFDFA87F00F003000228EE
:105E800013D0002080F00101A0880DF08DF82221B0
:105E90002846FDF73FF914E004E0607A20F00300A3
:105EA000401CDEE7A8F8006010E00120EAE70CB132
:105EB0006888A080287A68B301280AD002284FD0C9
:105EC000FFDFA8F800600CB1278066800020BDE8E5
:105ED000F09F15270F26002CE4D0A088FDF7B3FA19
:105EE000807F00F00300022808D0002080F001012C
:105EF000A0880DF047F8050003D101E00120F5E787
:105F0000FFDFD5F81D000622594608F03AFB84F859
:105F10000EA0D6E717270926002CC3D0A088FDF7CE
:105F200092FA8146807F00F00300022808D000200A
:105F300080F00101A0880DF025F8050003D101E0F3
:105F40000120F5E7FFDF6878800701D5022000E037
:105F50000120207299F800002328B2D9272159E79F
:105F600019270E26002C9DD0A088FDF76CFA5FEA59
:105F7000000900D1FFDFC4F808A0A4F80CA084F841
:105F800008A0A07A40F00300A07299F81E10C90979
:105F900061F38200A07299F81F2099F81E1012EA8E
:105FA000D11F05D099F8201001F01F0110292BD026
:105FB00020F00800A07299F81F10607A61F3C30006
:105FC0006072697A01F003010129A2D140F0040056
:105FD000607299F81E0000F003000228E87A16D0DB
:105FE000217B60F300012173AA7A607B62F30000D9
:105FF0006073EA7A520862F341012173A97A490871
:1060000061F3410060735CE740F00800D2E7617B18
:1060100060F300016173AA7A207B62F300002073B1
:10602000EA7A520862F341016173A97A490861F37F
:106030004100207345E710B5F74C30B101461022FE
:1060400004F1200008F007FA012084F8300010BDA8
:1060500010B5044600F0EBFDEF4920461022BDE8E4
:106060001040203108F0F7B970B5EB4D06004FF045
:10607000000413D0FBF7EDF808B110240CE0062162
:10608000304608F065FA411C05D028665FF0010033
:1060900085F85C0000E00724204670BD0020F7E78B
:1060A000007810F00F0204D0012A05D0022A0CD18A
:1060B00010E0000909D10AE00009012807D00228F0
:1060C00005D0032803D0042801D0072070470870AA
:1060D000002070470620704705282AD2DFE800F02C
:1060E00003070F171F00087820F0FF001EE0087854
:1060F00020F00F00401C20F0F000103016E008786F
:1061000020F00F00401C20F0F00020300EE0087856
:1061100020F00F00401C20F0F000303006E008783E
:1061200020F00F00401C20F0F000403008700020EC
:106130007047072070472DE9F041804688B00D4632
:1061400000270846FBF7D2F8A8B94046FDF77BF9CF
:10615000040003D02078222815D104E043F2020085
:1061600008B0BDE8F08145B9A07F410603D500F035
:106170000300022801D01020F2E7A07FC10601D45D
:10618000010702D50DB10820EAE7E17F090701D533
:106190000D20E5E700F0030002280DD165B1284687
:1061A000FEF75EFF0700DBD1FBF71CFB20B9E878A8
:1061B000800701D50620D3E7A07F00F00300022866
:1061C00008D0002080F0010140460CF0DBFE060004
:1061D00002D00FE00120F5E7A07F00F003000228C5
:1061E0000ED0002080F00101002240460CF0C1FEDC
:1061F000060007D0A07F00F00300022804D009E0C9
:106200000120EFE70420ABE725B12A4631462046BE
:10621000FEF74AFF6946304600F019FD009800B9C4
:10622000FFDF0099022006F1E0024870C1F82480E7
:106230004A6100220A81A27F02F00302022A1CD0D6
:1062400001200871287800F00102087E62F3010045
:1062500008762A78520862F3820008762A78920833
:1062600062F3C30008762A78D20862F30410087635
:1062700024212046FCF74EFF33E035B30871301D72
:1062800088613078400908777078C0F3400048771B
:10629000287800F00102887F62F301008877A27FEE
:1062A000D20962F382008877E27F62F3C3008877C5
:1062B000727862F304108877A878C87701F1210218
:1062C00028462031FEF711FF03E003200871052066
:1062D000087625212046FCF71DFFA07F20F0400016
:1062E000A07701A900980EF048FB022801D000B168
:1062F000FFDF384634E72DE9FF4F9346474A0D4606
:1063000099B09A4607CA0AAB002783E80700199894
:10631000FDF799F8060006D03078262806D0082028
:106320001DB0BDE8F08F43F20200F9E7B07F00F046
:106330000309B9F1020F11D04DB95846FEF790FE8E
:106340000028EDD1B07F00F00300022806D0BBF199
:10635000000F11D0FBF746FA20B10DE0BBF1000FA2
:106360004FD109E006200CF0B5FD28B19BF80300E1
:10637000800701D50620D3E7B07F00F00300022894
:1063800008D0002080F0010119980CF0FBFD0400FA
:1063900003D101E00120F5E7FFDF852D27D007DCE1
:1063A000EDB1812D1DD0822D1DD0832D08D11CE093
:1063B000862D1ED0882D1ED0892D1ED08A2D1ED050
:1063C0000F2020710F281CD003F032F9D8B1012022
:1063D0008DF83C00201D10902079B0B156E10020CE
:1063E000EFE70120EDE70220EBE70320E9E70520D6
:1063F000E7E70620E5E70820E3E70920E1E70A20D0
:10640000DFE707208CE711208AE7B9F1020F07D0F8
:10641000A56F07D1A06F06E030020020C462020021
:10642000656FF6E7606F80462DD04FF00100019058
:106430004FF0020000905A4621463046FEF734FEE7
:106440009BF8000000F00101A87861F30100A8703A
:10645000B17FC90961F38200A870F17F61F3C300C5
:10646000A870617861F30410A87020784009287042
:106470006078C0F3400068709BF80200E87000206C
:106480006871287103E00220019001200090A87833
:1064900098F80210C0F3C000C1F3C0010840039097
:1064A0002CD05046FAF7D5FEC0BBDAF80C00FAF74C
:1064B000D0FE98BBDAF81C00FAF7CBFE70BBDAF816
:1064C0000C00A060DAF81C00E060607898F8012009
:1064D00042EA500161F34100607098F80210C0B2C6
:1064E00000EA111161F3000060700020207700992C
:1064F00006F11700022907D0012106E0607898F81C
:10650000012002EA5001E5E7002104EB8101486126
:106510000199701C022902D0012101E028E000212C
:1065200004EB81014861A87800F00300012857D1ED
:1065300098F8020000F00300012851D1B9F1020FD0
:1065400004D02A1D691D5846FEF7CFFD287998F81A
:10655000041008408DF83400697998F8052011403E
:106560008DF8381008433BD05046FAF772FE08B158
:106570001020D5E60AF110018B46B9F1020F17D0B1
:106580000846002104F18C03CDE9000304F5AE7246
:1065900002920DAB2046039AFEF7F0FD0028E8D1E9
:1065A000B9F1020F08D0504608D14FF0010107E0C1
:1065B00050464FF00101E5E75846F5E74FF000017E
:1065C00004F1A403CDE9000304F5B072029281F056
:1065D00001010EAB2046039AFEF7D0FD0028C8D17A
:1065E0006078800733D4A87898F80210C0F3800050
:1065F000C1F3800108432AD0297898F800000AAA3C
:10660000B9F1020F06D032F811204300DA4002F04F
:1066100003070AE032F810204B00DA4012F00307BB
:1066200005D0012F0AD0022F0AD0032F06D0039ADB
:106630006AB1012906D0042904D008E00227F6E750
:106640000127F4E7012801D0042800D10427B07FF6
:1066500040F08000B077F17F039860F30001F1779C
:106660006078800705D50320A071039870B90020D9
:1066700029E00220022F18D0012F18D0042F2AD091
:106680000020A071B07F20F08000B0772521304637
:10669000FCF740FD0FA904F1E0000EF053F910B132
:1066A000022800D0FFDF00203AE6A071DFE7A071EA
:1066B0000D22002104F1200007F0F7FE207840F0C1
:1066C0000200207001208DF85C0017AA314619984D
:1066D00000F096FADAE70120A071D7E72DE9F04340
:1066E00087B09046894604460025FCF7ACFE0600BC
:1066F00006D03078272806D0082007B0BDE8F08300
:1067000043F20200F9E7B07F00F00300022809D04D
:106710005FF0000080F0010120460CF033FC040023
:1067200003D101E00120F5E7FFDFA7795FEA090067
:1067300005D0012821D0B9F1020F26D110E0B8F11F
:10674000000F22D1012F05D0022F05D0032F05D035
:10675000FFDF2EE00C252CE001252AE0022528E0B1
:106760004046FAF776FDB0B9032F0ED1102241460C
:1067700004F11D0007F06FFE1BE0012F02D0022F75
:1067800003D104E0B8F1000F13D00720B5E740466D
:10679000FAF75FFD08B11020AFE71022002104F1E5
:1067A0001D0007F082FE0621404607F0D1FEC4F826
:1067B0001D002078252140F0020020703046FCF7B3
:1067C000A9FC2078C10713D020F00100207002201E
:1067D0008DF8000004F11D0002908DF80450694608
:1067E000C3300EF0AFF8022803D010B1FFDF00E095
:1067F0002577002081E730B587B00D460446FCF7C9
:1068000022FE98B1807F00F00300022811D0002002
:1068100080F0010120460CF0B5FB04000ED02846A4
:10682000FAF717FD38B1102007B030BD43F202006F
:10683000FAE70120ECE72078400701D40820F3E7CD
:10684000294604F13D002022054607F004FE207889
:1068500040F01000207001070FD520F008002070D4
:1068600007208DF80000694604F1E00001950EF064
:1068700069F8022801D000B1FFDF0020D4E770B52D
:106880000D460646FCF7DFFD18B10178272921D116
:1068900002E043F2020070BD807F00F00300022896
:1068A00008D0002080F0010130460CF06BFB0400A2
:1068B00003D101E00120F5E7FFDFA079022809D12B
:1068C0006078C00706D02A4621463046FEF7E7FC2E
:1068D00010B10FE0082070BDB4F860000E280BD294
:1068E00004F1620102231022081F0CF0D2F90121E9
:1068F00001704570002070BD112070BD70B5064656
:1069000014460D460846FAF7A4FC18B92046FAF7D3
:10691000C6FC08B1102070BDA6F57F40FF380ED030
:106920003046FCF790FD38B1417822464B08811C77
:106930001846FCF758FD07E043F2020070BD204600
:10694000FDF78BFD0028F9D11021E01D0FF033FE7B
:10695000E21D294604F1170000F089F9002070BDFE
:106960002DE9F04104468AB01546884600270846BE
:10697000FAF7BCFC18B92846FAF7B8FC18B1102091
:106980000AB0BDE8F0812046FCF75DFD060003D0AB
:10699000307827281BD102E043F20200F0E7B07FF5
:1069A00000F00300022809D05FF0000080F0010130
:1069B00020460CF0E7FA040003D101E00120F5E7DE
:1069C000FFDF2078400702D56078800701D40820D7
:1069D000D6E7B07F00F00300022803D0A06F03D1F8
:1069E000A16F02E0606FFAE7616F407800B19DB17E
:1069F000487810B1B8F1000F0ED0ADB1EA1D06A86D
:106A0000E16800F034F9102206A905F1170007F03B
:106A1000F5FC18B1042707E00720B1E71022E91DB3
:106A200004F12D0007F017FDB8F1000F06D0102279
:106A300008F1070104F11D0007F00DFD2078252164
:106A400040F0020020703046FCF764FB2078C1075C
:106A500015D020F00100207002208DF8000004F114
:106A60001D000290103003908DF804706946B33019
:106A70000DF068FF022803D010B1FFDF00E0277798
:106A800000207DE7F8B515460E460746FCF7DBFC0F
:106A9000040004D02078222804D00820F8BD43F256
:106AA0000200F8BDA07F00F00300022802D043F2EC
:106AB0000500F8BD3046FAF7CCFB18B92846FAF7BE
:106AC000C8FB08B11020F8BD00953288B31C2146E0
:106AD0003846FEF707FC112815D00028F3D1297C91
:106AE0004A08A17F62F3C711A177297CE27F61F395
:106AF0000002E277297C890884F82010A17F21F028
:106B00004001A177F8BDA17F0907FBD4D6F80200A8
:106B1000C4F83600D6F80600C4F83A003088A086DB
:106B20001022294604F1240007F095FC287C410836
:106B3000E07F61F34100E077297C61F38200E07738
:106B4000287C800884F82100A07F40F00800A0770E
:106B50000020D3E770B50D4606460BB1072070BD87
:106B6000FCF771FC040007D02078222802D3A07F14
:106B7000800604D4082070BD43F2020070BDADB1A0
:106B8000294630460BF0D0F802F074FB297C4A0805
:106B9000A17F62F3C711A177297CE27F61F3000234
:106BA000E277297C890884F8201004E030460BF055
:106BB000DEF802F05FFBA17F21F02001A17770BD1C
:106BC00070B50D46FCF73FFC040005D02846FAF7E7
:106BD00066FB20B1102070BD43F2020070BD294653
:106BE0002046FEF72DFB002070BD04E010F8012BBD
:106BF0000AB100207047491E89B2F7D201207047C0
:106C000070B51546064602F013FD040000D1FFDF03
:106C1000207820F00F00801C20F0F0002030207041
:106C200066802868A060BDE8704002F004BD10B521
:106C3000134C94F83000002808D104F12001A1F190
:106C400010000DF0C1FE012084F8300010BD10B11D
:106C500090F8B9202AB10A4890F8350018B1002000
:106C600003E0B83001E0064834300860704708B5EA
:106C70000023009313460A460CF083FB08BD000076
:106C80003002002018B18178012938D101E01020AC
:106C90007047018842F60112881A914231D018DCFF
:106CA00042F60102A1EB020091422AD00CDC41B372
:106CB000B1F5C05F25D06FF4C050081821D0A0F501
:106CC0007060FF381BD11CE001281AD002280AD1BD
:106CD00017E0B0F5807F14D008DC012811D002281D
:106CE0000FD003280DD0FF2809D10AE0B0F5817F2D
:106CF00007D0A0F58070033803D0012801D0002010
:106D000070470F2070470A281FD008DC0A2818D2C5
:106D1000DFE800F0191B1F1F171F231D1F2110285C
:106D200015D008DC0B2812D00C2810D00D2816D056
:106D30000F2806D10DE011280BD084280BD087280E
:106D40000FD00320704700207047052070470720B0
:106D500070470F20704704207047062070470C20B2
:106D6000704743F20200704738B50C46050041D029
:106D70006946FFF795F9002819D19DF80010607851
:106D800061F3020060706946681CFFF789F900280A
:106D90000DD19DF80010607861F3C5006070A9788E
:106DA000C1F34101012903D0022905D0072038BDD4
:106DB000217821F0200102E0217841F020012170AA
:106DC000410704D0A978C90861F386106070607823
:106DD00010F0380F07D0A978090961F3C710607067
:106DE00010F0380F02D16078400603D5207840F0CB
:106DF00040002070002038BD70B504460020088097
:106E000015466068FFF7B0FF002816D12089A189D8
:106E1000884211D860688078C0070AD0B1F5007F39
:106E20000AD840F20120B1FBF0F200FB12102880DA
:106E300007E0B1F5FF7F01D90C2070BD01F20121FF
:106E40002980002070BD10B50478137864F3000326
:106E500013700478640864F3410313700478A40881
:106E600064F3820313700478E40864F3C3031370BB
:106E70000478240964F3041313700478640964F338
:106E8000451313700078800960F38613137031B1D5
:106E90000878C10701D1800701D5012000E000205A
:106EA00060F3C713137010BD4278530702D002F08D
:106EB000070306E012F0380F02D0C2F3C20300E06D
:106EC00001234A7863F302024A70407810F0380FC9
:106ED00002D0C0F3C20005E0430702D000F0070073
:106EE00000E0012060F3C5024A7070472DE9F04FC1
:106EF00095B00D00824613D012220021284607F0DB
:106F0000D4FA4FF6FF7B05AA0121584607F095F801
:106F10000024264637464FF420586FF4205972E07B
:106F2000102015B0BDE8F08F9DF81E0001280AD191
:106F3000BDF81C1041450BD011EB09000AD0012807
:106F40000CD002280CD0042C0ED0052C0FD10DE053
:106F5000012400E00224BDF81A6008E0032406E0E2
:106F60000424BDF81A7002E0052400E00624BDF8F0
:106F70001A10514547D12C74BEB34FF0000810AA27
:106F80004FF0070ACDE90282CDE900A80DF13C09D6
:106F90001023CDF8109042463146584607F01DF9AF
:106FA00008BBBDF83C002A46C0B210A90DF097FD01
:106FB000C8B9AE81CFB1CDE900A80DF1080C0AAE79
:106FC00040468CE84102132300223946584607F018
:106FD00004F940B9BDF83C00F11CC01EC0B22A1D26
:106FE0000DF07DFD10B103209BE70AE0BDF82900FC
:106FF000E881062C05D19DF81E00A872BDF81C0082
:10700000288100208DE705A807F023F800288BD001
:10701000FFF779FE85E72DE9F0471C46DDE90978A1
:10702000DDF8209015460E00824600D1FFDF0CB13E
:10703000208818B1D5B11120BDE8F087022D01D00C
:10704000012100E0002106F1140005F0BFFEA8F8C0
:10705000000002463B462946504603F084F9C9F831
:10706000000008B9A41C3C600020E5E71320E3E71A
:10707000F0B41446DDE904528DB1002314B1022CA2
:1070800009D101E0012306E00D7CEE0703D025F0D5
:10709000010501230D742146F0BC04F042BA1A80A8
:1070A000F0BC70472DE9FE4F91461A881C468A466F
:1070B0008046FAB102AB494603F055F9050019D0F4
:1070C0004046A61C27880CF0A2F83246072629461F
:1070D0003B4600960BF0AFFC20882346CDE90050DC
:1070E0004A4651464046FFF7C3FF0020208001205A
:1070F000BDE8FE8F0020FBE72DE9F04786B0824611
:107100000EA8904690E8B000894604AA05A903A8F5
:107110008DE807001E462A4621465046FFF77BFFB2
:10712000039901B101213970002818D1FA4904F1FD
:10713000140204AB0860039805998DE807004246E5
:107140004946504606F0F5F9A8B1092811D2DFE802
:1071500000F005080510100A0C0C0E00002006B007
:107160006AE71120FBE70720F9E70820F7E70D2081
:10717000F5E70320F3E7BDF810100398CDE900010F
:1071800033462A4621465046FFF772FFE6E72DE9CF
:10719000F04389B01646DDE910870D4681461C464E
:1071A0001422002103A807F080F9012002218DF8A4
:1071B00010108DF80C008DF81170ADF8146064B1EA
:1071C000A278D20709D08DF81600E088ADF81A0031
:1071D000A088ADF81800A068079008A80095CDE930
:1071E0000110424603A948466B68FFF785FF09B0C6
:1071F000BDE8F083F0B58BB00024064606940794F2
:107200000727089405A80994019400970294CDE9F2
:1072100003400D4610232246304606F0DEFF78B9C3
:107220000AA806A9019400970294CDE90310BDF8BD
:10723000143000222946304606F06DFD002801D0AA
:10724000FFF761FD0BB0F0BD06F0FEBB2DE9FC4180
:107250000C468046002602F0EBF9054620780D2802
:107260007ED2DFE800F0BC0713B325BD4949638334
:10727000AF959B00A848006820B1417841F010010B
:107280004170ADE0404602F003FAA9E00421404617
:107290000BF078FE070000D1FFDF07F11401404634
:1072A00005F029FDA5BB13214046FDF7BDFB97E086
:1072B000042140460BF066FE070000D1FFDFE088A6
:1072C000ADF800000020B8819DF80000010704D54A
:1072D000C00602D5A088B88105E09DF801004006EF
:1072E0007ED5A088F88105B9FFDF224629464046B1
:1072F00001F0C0FC022673E0E188ADF800109DF8B3
:10730000011009060FD5072803D006280AD00AE085
:1073100024E0042140460BF035FE060000D1FFDFDB
:10732000A088F0810226CDB9FFDF17E00421404696
:107330000BF028FE070000D1FFDF07F1140006F074
:10734000BAFB90F0010F02D1E079000648D5387CF5
:10735000022640F00200387405B9FFDF224600E043
:107360003DE02946404601F085FC39E004214046D5
:107370000BF008FE017C002D01F00206C1F3400174
:107380006171017C21F002010174E7D1FFDFE5E7C3
:1073900002260121404602F0ADF921E004214046D9
:1073A0000BF0F0FD0546606800902089ADF8040000
:1073B00001226946404602F0BEF9287C20F0020016
:1073C00028740DE0002DC9D1FFDFC7E70226002198
:1073D0004046FBF77DF8002DC0D1FFDFBEE7FFDFA1
:1073E0003046BDE8FC813EB50C0009D001466B4635
:1073F00001AA002006F076FF20B1FFF784FC3EBD15
:1074000010203EBD00202080A0709DF8050002A93C
:1074100000F00700FEF760FE50B99DF808002070EC
:107420009DF8050002A9C0F3C200FEF755FE08B1A1
:1074300003203EBD9DF8080060709DF80500C1095D
:10744000A07861F30410A0709DF80510890961F31C
:10745000C300A0709DF80410890601D5022100E048
:10746000012161F342009DF8001061F30000A0705B
:1074700000203EBD70B5144606460D4651EA040094
:1074800005D075B10846F9F728FF78B901E0072063
:1074900070BD2946304606F08CFF10B1BDE8704043
:1074A00031E454B12046F9F718FF08B1102070BD3F
:1074B00021463046BDE8704095E7002070BD2DE9BB
:1074C000FC5F0C4690460546002701780822007AAA
:1074D0003E46B2EB111F7DD104F10A0100910A3141
:1074E000821E4FF0020A04F1080B0191092A72D2A0
:1074F000DFE802F0EDE005F528287BAACE006888D9
:1075000004210BF03FFD060000D1FFDFB08928B158
:1075100052270726C3E000009402002051271026BE
:10752000002C7DD06888A0800120A071A88900224D
:107530000099FFF79FFF002873D1A8892081288A2E
:10754000E081D1E0B5F81290072824D1E87B00064D
:1075500021D5512709F1140086B2002CE1D0A88969
:1075600000220099FFF786FF00285AD16888A08082
:1075700084F806A0A88920810120A073288A20828F
:10758000A4F81290A88A009068884B46A969019ACD
:1075900001F04CFBA8E0502709F1120086B2002C44
:1075A0003ED0A88900225946FFF764FF002838D151
:1075B0006888A080A889E080287A072813D0022054
:1075C0002073288AE081E87BC0096073A4F81090DA
:1075D000A88A01E085E082E0009068884B4604F1CB
:1075E0001202A969D4E70120EAE7B5F81290512701
:1075F00009F1140086B2002C66D0688804210BF0D3
:10760000C1FC83466888A080A88900220099FFF702
:1076100031FF00286ED184F806A0A889208101E0FE
:1076200052E067E00420A073288A2082A4F8129018
:10763000A88A009068884B46A969019A01F0F6FA79
:10764000A989ABF80E104FE06888FBF7FCFE0746EF
:10765000688804210BF096FC064607B9FFDF06B9DF
:10766000FFDF687BC00702D05127142601E05027B6
:1076700012264CB36888A080502F06D084F806A04C
:10768000287B594601F0E2FA2EE0287BA11DF9E79C
:10769000FE49A8894989814205D1542706269CB113
:1076A0006888A08020E053270BE06888A080A88924
:1076B000E08019E0688804210BF064FC00B9FFDF6A
:1076C00055270826002CF0D1A8F8006011E05627B5
:1076D0000726002CF8D06888A080002013E0FFDF88
:1076E00002E0012808D0FFDFA8F800600CB1278075
:1076F00066800020BDE8FC9F57270726002CE3D0BA
:107700006888A080687AA071EEE7401D20F0030031
:1077100009B14143091D01EB4000704713B5DB4A35
:1077200000201071009848B1002468460BF047FA19
:10773000002C02D1D64A009911601CBD0124002002
:10774000F4E770B50D461446064686B05C2200216B
:10775000284606F0AAFE04B9FFDFA0786874A27874
:107760002188284601F09DFA0020A881E88122881E
:1077700005F11401304605F0A2FA6A4601213046AF
:1077800006F05BFC1AE000BF9DF80300000715D56A
:10779000BDF806103046FFF72DFD9DF80300BDF83B
:1077A000061040F010008DF80300BDF80300ADF89E
:1077B0001400FF233046059A06F0C3FD684606F024
:1077C00048FC0028E0D006B070BD10B50C4601F1B1
:1077D000140005F0ACFA0146627C2046BDE810407A
:1077E00001F094BA30B50446A84891B04FF6FF7541
:1077F000C18905AA284606F020FC30E09DF81E004D
:10780000A0422AD001282AD1BDF81C00B0F5205F83
:1078100003D042F60101884221D1002002AB0AAA1E
:107820000CA9019083E8070007200090BDF81A100A
:1078300010230022284606F0D0FC38B9BDF82800F5
:107840000BAAC0B20CA90DF04AF910B1032011B077
:1078500030BD9DF82E00A04201D10020F7E705A819
:1078600006F0F7FB0028C9D00520F0E770B5054603
:1078700004210BF087FB040000D1FFDF04F11401A9
:107880000C46284605F037FA21462846BDE87040E8
:1078900005F038BA70B58AB00C460646FBF7D3FD42
:1078A000050014D02878222827D30CB1A08890B1E5
:1078B00001208DF80C0003208DF8100000208DF8B9
:1078C000110054B1A088ADF81800206807E043F219
:1078D00002000AB070BD0920FBE7ADF81800059062
:1078E000042130460BF04EFB040000D1FFDF04F111
:1078F000140005F032FA000701D40820E9E701F08E
:1079000097FE60B108A802210094CDE9011095F816
:10791000232003A930466368FFF7EEFBD9E7112067
:10792000D7E72DE9F04FB2F802A0834689B015469B
:1079300089465046FBF787FD0746042150460BF069
:1079400021FB0026044605964FF002080696ADF886
:107950001C6007B9FFDF04B9FFDF4146504603F062
:1079600047FF50B907AA06A905A88DE807004246B7
:10797000214650466368FFF74EFB444807AB06605C
:10798000DDE9051204F11400CDF80090CDE90320E3
:10799000CDE9013197F82320594650466B6805F030
:1079A00025FA06000AD0022E04D0032E14D0042E8D
:1079B00000D0FFDF09B03046BDE8F08FBDF81C00F5
:1079C0000028F7D00599CDE90010424621465046DF
:1079D0006368FFF74DFBEDE7687840F008006870DA
:1079E000E8E72DE9F04F99B004464FF0000827482A
:1079F000ADF81C80ADF82080ADF82480A0F8088098
:107A0000ADF81480ADF81880ADF82C80ADF8288062
:107A1000007916460D464746012808D0022806D0B0
:107A2000032804D0042802D0082019B0C4E7204657
:107A3000F9F70FFC70BB2846F9F70BFC50BB6068E8
:107A4000F9F754FC30BB606848B1608921898842ED
:107A500002D8B1F5007F01D90C20E6E780460EAAD6
:107A600006A92846FFF7C8F90028DED168688078A3
:107A7000C0F34100022808D19DF8190010F0380F1A
:107A800003D02869F9F729FC20B904E0940200200A
:107A90001800002022E005A92069FFF765F90028F9
:107AA000C3D1206948B1607880079DF8150000F0C7
:107AB000380001D5F0B300E0E0BB9DF8140080066B
:107AC0000ED59DF8150010F0380F03D06068F9F757
:107AD00004FC18B96068F9F709FC08B11020A4E7A4
:107AE0000AA96069FFF740F900289ED1606940B19A
:107AF0009DF8290000F0070101293CD110F0380F52
:107B000039D00BA9A069FFF72FF900288DD19DF876
:107B1000280080062FD49DF82C0080062BD4A06965
:107B200050B19DF82D0000F00701012923D110F07C
:107B3000380F00E01FE01ED0E06818B10078D0B127
:107B40001C2818D20FAA611C2046FFF77CF90121DE
:107B5000384661F30F2082468DF85210B94642F63E
:107B600003000F46ADF850000DF13F0218A9286838
:107B70000CF0B7FF08B1072057E79DF8600015A982
:107B8000CDF80090C01CCDE9019100F0FF0B00235F
:107B90000BF20122514614A806F07AF9F0BBBDF8A9
:107BA00054000C90FE482A8929690092CDE9011001
:107BB0006B89BDF838202868069906F069F901003C
:107BC0007ED120784FF0020AC10601D480062BD561
:107BD000CDF80C90606950B90AA906A8FFF764F9BE
:107BE0009DF8290020F00700401C8DF829009DF821
:107BF000280008A940F0C8008DF828008DF85270C0
:107C000042F60210ADF8500003AACDF800A0CDE96D
:107C10000121002340F2032214A800E01EE00A998B
:107C200006F036F901004BD1DD484D4608385B4679
:107C30000089ADF83D000FA8CDE90290CDF8049081
:107C4000CDF810904FF007090022CDF80090BDF854
:107C500054104FF6FF7006F05EF810B1FFF753F8BE
:107C6000E3E69DF83C00000624D52946012060F398
:107C70000F218DF852704FF424500395ADF8500049
:107C800062789DF80C00002362F300008DF80C0070
:107C90006278CDF800A0520862F341008DF80C0024
:107CA00003AACDE9012540F2032214A806F0F0F85A
:107CB000010005D1606888B32069A8B905A900E072
:107CC00084E006A8FFF7F0F86078800706D49DF8F6
:107CD000150020F038008DF8150005E09DF814001F
:107CE00040F040008DF814008DF8527042F60110FB
:107CF000ADF85000208940F20121B0FBF1F201FB08
:107D00001202606809ABCDF80080CDE901030023C1
:107D100014A8059906F0BCF8010057D12078C007D7
:107D200028D00395A06950B90BA906A8FFF7BCF8A5
:107D30009DF82D0020F00700401C8DF82D009DF8C7
:107D40002C008DF8527040F040008DF82C0042F667
:107D50000310ADF8500007A903AACDF800A0CDE9A3
:107D60000121002340F2032214A80B9906F090F899
:107D700001002BD1E06868B32946012060F30F2190
:107D80008DF8527042F60410ADF85000E068002300
:107D900002788DF8582040788DF85900E06816AACE
:107DA0004088ADF85A00E06800798DF85C00E06822
:107DB000C088ADF85D00CDF80090CDE901254FF405
:107DC000027214A806F064F8010003D00C9800F0C9
:107DD000C9FF2AE6724803210838017156B10089AB
:107DE0003080BDF824007080BDF82000B080BDF860
:107DF0001C00F080002018E670B501258AB01646F8
:107E00000B46012802D0022816D104E08DF80E504E
:107E10004FF4205003E08DF80E5042F60100ADF80B
:107E20000C005BB10024601C60F30F2404AA08A9B5
:107E300018460CF056FE18B107204AE5102048E518
:107E400004A99DF820205648CDE90021801E02900B
:107E50000023214603A802F2012206F019F810B10E
:107E6000FEF751FF35E54E4808380EB1C188318024
:107E7000057100202DE5F0B593B0074601268DF879
:107E80003E6041F60100ADF83C0012AA0FA9304651
:107E9000FFF7B2FF002849D1414C0025083CEFB361
:107EA0001C22002102A806F000FB9DF808008DF8B6
:107EB0003E6040F020008DF8080042F60520ADF845
:107EC0003C000E959DF83A00119520F00600801CAC
:107ED0008DF83A009DF838006A4620F0FF008DF8D2
:107EE00038009DF8390009A920F0FF008DF839000D
:107EF0000420ADF82C00ADF830000EA80A9011A8AF
:107F00000D900FA80990ADF82E5002A8FFF769FD5B
:107F100000280BD1BDF80000608100E008E0BDF84A
:107F20000400A081401CE0812571002013B0F0BD49
:107F30006581A581BDF84800F4E72DE9F74F1849A0
:107F4000A0B00024083917940A79A146012A04D068
:107F5000022A02D0082023B02EE5CA88824201D02E
:107F60000620F8E721988A46824201D10720F2E7ED
:107F70000120214660F30F21ADF848004FF6FF784D
:107F80000691ADF84A808DF86E0042F6020B8DF82E
:107F900072401CA9ADF86CB0ADF87040139101E0CF
:107FA0009C020020ADF8508012A806F081F8002550
:107FB0002E462F460DAB072212A9404606F07BF84D
:107FC00078B10A285DD195B38EB3ADF86450ADF8A1
:107FD00066609DF85E008DF8144019AC012864D0ED
:107FE0006BE09DF83A001FB3012859D1BDF8381055
:107FF00059451FD118A809A901940294CDE903108D
:1080000007200090BDF8361010230022404606F0ED
:10801000E4F8B0BBBDF86000042801D006284AD1BE
:10802000BDF82410219881423AD10F2093E73AE01D
:10803000012835D1BDF83800B0F5205F03D042F6F5
:10804000010188422CD1BAF80600BDF836108842EA
:1080500001D1012700E0002705B19EB1219881429E
:108060001ED118A809AA01940294CDE90320072083
:1080700000900D4610230022404606F0AEF800B9ED
:1080800002E02DE04E460BE0BDF86000022801D072
:10809000102810D1C0B217AA09A90CF020FD50B9C0
:1080A000BDF8369086E7052055E705A917A8221DDB
:1080B0000CF017FD08B103204DE79DF814000023D4
:1080C000001DC2B28DF8142022980092CDE9014023
:1080D0001BA8069905F0DCFE10B902228AF80420DC
:1080E000FEF711FE37E710B50B46401E88B084B28C
:1080F00005AA00211846FEF7A6FE00200DF1080C87
:1081000006AA05A901908CE807000720009001232A
:10811000002221464FF6FF7005F0FDFD0446BDF834
:108120001800012800D0FFDF2046FEF7ECFD08B064
:1081300010BDF0B5F74F044687B038790E460328D6
:1081400004D0042802D0082007B0F0BD04AA03A977
:108150002046FEF751FE0500F6D160688078C0F336
:10816000410002280AD19DF80D0010F0380F05D00B
:108170002069F9F7B2F808B11020E5E7208905AACF
:1081800021698DE807006389BDF8102020680399F4
:1081900005F07EFE10B1FEF7B6FDD5E716B1BDF8CD
:1081A00014003080042038712846CDE7F8B50C0063
:1081B00006460CD001464FF6FF7500236A46284656
:1081C00006F090F828B100BFFEF79DFDF8BD102025
:1081D000F8BD69462046FEF7C7FD0028F8D1A07813
:1081E000314600F001032846009A06F0AAF8EBE7B2
:1081F00030B587B0144600220DF1080C05AD019290
:108200008CE82C00072200920A46014623884FF68C
:10821000FF7005F080FDBDF814102180FEF773FD9E
:1082200007B030BD70B50D4604210AF0ABFE040066
:1082300000D1FFDF294604F11400BDE8704004F0CE
:1082400085BD70B50D4604210AF09CFE040000D1E6
:10825000FFDF294604F11400BDE8704004F099BD29
:1082600070B50D4604210AF08DFE040000D1FFDF39
:10827000294604F11400BDE8704004F0B1BD70B5AA
:10828000054604210AF07EFE040000D1FFDF2146EE
:1082900028462368BDE870400122FEF703BF70B591
:1082A000064604210AF06EFE040000D1FFDF04F14F
:1082B000140004F03CFD401D20F0030511E0011DF9
:1082C00000880022431821463046FEF7EBFE0028C6
:1082D0000BD0607CABB2684382B2A068011D0AF08B
:1082E0000EFDA06841880029E9D170BD70B5054632
:1082F00004210AF047FE040000D1FFDF2146284692
:108300006368BDE870400222FEF7CCBE70B50E4631
:10831000054601F08DF9040000D1FFDF0120207235
:1083200066726580207820F00F00001D20F0F000BC
:1083300040302070BDE8704001F07DB910B50446B2
:10834000012900D0FFDF2046BDE810400121FAF7E7
:10835000BFB82DE9F04F97B04FF0000A0C008346EC
:10836000ADF814A0D04619D0E06830B1A068A8B12B
:108370000188ADF81410A0F800A05846FBF763F888
:10838000070043F2020961D0387822285CD3042127
:1083900058460AF0F7FD050005D103E0102017B09C
:1083A000BDE8F08FFFDF05F1140004F0C0FC401DB4
:1083B00020F00306A078012803D0022801D007206E
:1083C000EDE7218807AA584605F037FE30BB07A81D
:1083D00005F03FFE10BB07A805F03BFE48B99DF82D
:1083E0002600012805D1BDF82400A0F5245102394A
:1083F00002D04FF45050D2E7E068B0B1CDE902A00E
:108400000720009005AACDF804A00492A288218834
:10841000BDF81430584605F07EFC10B1FEF773FC31
:10842000BDE7A168BDF8140008809DF81F00C006D4
:1084300002D543F20140B2E70B9838B1A178007839
:10844000012905D080071AD40820A8E74846A6E7E6
:10845000C007F9D002208DF83C00A8684FF0000951
:10846000A0B1697C4288714391420FD98AB2B3B2FC
:10847000011D0AF0FAFB8046A0F800A006E00320E8
:108480008DF83C00D5F800804FF001099DF82000E0
:1084900010F0380F00D1FFDF9DF820001E49C0F317
:1084A000C200084497F8231010F8010C884201D943
:1084B0000F2074E72088ADF8400014A90095CDE99D
:1084C0000191434607220FA95846FEF715FE0028E2
:1084D00091D19DF8500050B9A078012807D1687C4F
:1084E000B3B2704382B2A868011D0AF0D2FB00202B
:1084F00055E770B5064615460C460846FEF7C2FB22
:10850000002805D12A4621463046BDE8704073E474
:1085100070BD12E594020020CE62020070B51E46C6
:1085200014460D0009D044B1616831B138B1FC493D
:10853000C988814203D0072070BD102070BD20681B
:10854000FEF7A0FB0028F9D1324621462846BDE8B7
:108550007040FFF746BA70B515460C0006D038B12A
:10856000EF490989814203D0072070BD102070BDFA
:108570002068FEF787FB0028F9D129462046BDE890
:108580007040D6E570B5064686B00D4614461046D6
:10859000F8F785FED0BB6068F8F7A8FEB0BBA6F57B
:1085A0007F40FF3803D03046FAF74DFF80B12846B0
:1085B0006946FEF79BFC00280CD19DF810100F2097
:1085C00008293DD2DFE801F008060606060A0A0877
:1085D00043F2020006B070BD0320FBE79DF80210D5
:1085E000012908D1BDF80010B1F5C05FF2D06FF4D9
:1085F000C052D142EED09DF8061001290DD1BDF830
:108600000410A1F52851062907D200E029E0DFE88F
:1086100001F0030304030303DCE79DF80A100129BA
:108620000FD1BDF80810B1F5245FD3D0A1F6021127
:10863000B1F50051CED00129CCD0022901D1C9E732
:10864000FFDF606878B9002305AA2946304605F0A7
:1086500049FE10B1FEF757FBBCE79DF814008006F9
:1086600001D41020B6E76188224628466368FFF7E8
:10867000BFFDAFE72DE9F043814687B08846144639
:108680001046F8F70CFE18B1102007B0BDE8F083D3
:10869000002306AA4146484605F024FE18B100BF53
:1086A000FEF731FBF1E79DF81800C00602D543F252
:1086B0000140EAE70025072705A8019500970295E4
:1086C000CDE9035062884FF6FF734146484605F0F6
:1086D00084FD060013D16068F8F7E1FD60B96068B9
:1086E0000195CDE9025000970495238862884146A0
:1086F000484605F072FD0646BDF81400208030465D
:10870000CEE739B1864B0A889B899A4202D843F258
:10871000030070471DE610B586B0814C0423ADF808
:108720001430638943B1A4898C4201D2914205D9A6
:1087300043F2030006B010BD0620FBE7ADF81010B1
:10874000002100910191ADF8003002218DF8021056
:1087500005A9029104A90391ADF812206946FFF71B
:10876000F8FDE7E72DE9FC4781460D460846F8F796
:1087700070FD88BB4846FAF766FE5FEA00080AD03B
:1087800098F80000222829D3042148460AF0FAFB71
:10879000070005D103E043F20200BDE8FC87FFDFDC
:1087A00007F1140004F0D9FA06462878012803D00E
:1087B000022804D00720F0E7B0070FD502E016F03A
:1087C0001C0F0BD0A8792C1DC00709D0E08838B148
:1087D000A068F8F73EFD18B11020DEE70820DCE7BE
:1087E00021882A780720B1F5847F35D01EDC40F23D
:1087F0000315A1F20313A94226D00EDCB1F5807F48
:10880000CBD003DCF9B1012926D1C6E7A1F58073ED
:10881000013BC2D0012B1FD113E0012BBDD0022B95
:108820001AD0032BB9D0042B16D112E0A1F20912F1
:10883000082A11D2DFE802F00B0404101010100413
:10884000ABE7022AA9D007E0012AA6D004E032074C
:1088500000E0F206002AA0DACDB200F0E9FE50B145
:1088600098F82300CDE90005FA89234639464846A1
:10887000FEF78DFC91E711208FE72DE9F04F8BB0CB
:108880001F4615460C4683460026FAF7DCFD28B144
:108890000078222805D208200BB081E543F20200BF
:1088A000FAE7B80801D00720F6E7032F00D1002728
:1088B0004FF6FF79CCB1022D73D32046F8F716FDA1
:1088C00030B904EB0508A8F10100F8F70FFD08B175
:1088D0001020E1E7AD1E38F8028CAAB221464846C6
:1088E00005F061FE40455CD1ADB20D49B80702D537
:1088F0008889401C00E001201FFA80F8F80701D0A9
:108900008F8900E04F4605AA4146584605F095FB81
:108910004FF0070A4FF00009DCB320460BE00000DF
:1089200094020020408810283BD8361D304486B27F
:10893000AE4236D2A01902884245F3D351E000BFBF
:108940009DF8170002074CD594B304EB0608361DBA
:10895000B8F80230B6B2102B23D89A19AA4220D800
:10896000B8F8002091421CD1C0061CD5CDE900A961
:108970000DF1080C0AAAA11948468CE80700B8F8BE
:1089800000100022584605F0C6F920B1FEF7BBF9E9
:1089900082E726E005E0B8F80200BDF8281088421A
:1089A00001D00B2078E7B8F80200304486B207E027
:1089B000FFE7C00604D55846FEF71CFC002888D106
:1089C0009DF81700BDF81A1020F010008DF8170060
:1089D000BDF81700ADF80000FF235846009A05F0D7
:1089E000B0FC05A805F035FB18B9BDF81A10B9425E
:1089F000A6D9042158460AF0C5FA040000D1FFDFC9
:108A0000A2895AB1CDE900A94D4600232146584616
:108A1000FEF7BDFB0028BBD1A5813DE700203BE769
:108A20002DE9FF4F8BB01E4617000D464FF0000496
:108A300012D0B00802D007200FB0B1E4032E00D14D
:108A400000265DB10846F8F748FC28B93888691E49
:108A50000844F8F742FC08B11020EDE7C74AB00718
:108A600001D5D18900E00121F0074FF6FF7802D04F
:108A7000D089401E00E0404686B206AA0B9805F059
:108A8000DCFA4FF000094FF0070B0DF1140A38E043
:108A90009DF81B00000734D5CDF80490CDF800B048
:108AA000CDF80890CDE9039A434600220B9805F0D3
:108AB00094FB60BB05B3BDF814103A882144281913
:108AC000091D8A4230D3BDF81E2020F8022BBDF8C4
:108AD000142020F8022BCDE900B9CDE90290CDF8A1
:108AE00010A0BDF81E10BDF8143000220B9805F040
:108AF00074FB08B103209FE7BDF814002044001D5B
:108B000084B206A805F0A5FA20B10A2806D0FEF71F
:108B1000FAF891E7BDF81E10B142B9D934B17DB170
:108B20003888A11C884203D20C2085E7052083E702
:108B300022462946404605F036FD014628190180A7
:108B4000A41C3C80002077E710B50446F8F7A7FB8B
:108B500008B1102010BD8948C0892080002010BDB8
:108B6000F0B58BB00D4606461422002103A805F08F
:108B70009CFC01208DF80C008DF8100000208DF871
:108B80001100ADF814503046FAF75DFC48B100789A
:108B9000222812D3042130460AF0F4F9040005D14A
:108BA00003E043F202000BB0F0BDFFDF04F114005C
:108BB000074604F0D2F8800601D40820F3E7207CB1
:108BC000022140F00100207409A80094CDE90110B1
:108BD000072203A930466368FEF78EFA20B1217C94
:108BE00021F001012174DEE729463046F9F761FCE6
:108BF00008A9384604F0A0F800B1FFDFBDF8204016
:108C0000172C01D2172000E02046A84201D92C469B
:108C100002E0172C00D2172421463046FFF711FB43
:108C200021463046F9F769F90020BCE7F8B51C4643
:108C300015460E46069F0AF0D8FA2346FF1DBCB221
:108C400031462A46009409F0C2FEF8BD70B50C46C4
:108C500005460E220021204605F027FC002020803A
:108C60002DB1012D01D0FFDF70BD062000E00520F1
:108C7000A07170BD10B548800878134620F00F0031
:108C8000001D20F0F00080300C46087014221946B8
:108C900004F1080005F0DFFB00F0CDFC374804606C
:108CA00010BD2DE9F047DFF8D890491D064621F0A8
:108CB000030117460C46D9F8000009F09EFF050095
:108CC00000D1FFDF4FF000083560A5F80080214695
:108CD000D9F8000009F091FF050000D1FFDF7560B1
:108CE000A5F800807FB104FB07F1091D0BD0D9F86E
:108CF000000009F082FF040000D1FFDFB460C4F877
:108D00000080BDE8F087C6F80880FAE72DE9F04159
:108D10001746491D21F00302194D06460168144605
:108D2000286809F095FF22467168286809F090FFCD
:108D30003FB104FB07F2121D03D0B168286809F0A7
:108D400087FF04200AF0C6F8044604200AF0CAF897
:108D5000201A012804D12868BDE8F04109F042BF7B
:108D6000BDE8F08110B50C4605F036F900B1FFDF23
:108D70002046BDE81040FDF7C6BF00009402002069
:108D80001800002038B50C468288817B19B14189D2
:108D9000914200D90A462280C188121D90B26A46CB
:108DA00009F0EEF8BDF80000032800D30320C1B29B
:108DB000208801F030F838BD38B50C468288817BB8
:108DC00019B10189914200D90A462280C188121D39
:108DD00090B26A4609F0D4F8BDF80000022800D32A
:108DE0000220C1B2208801F016F8401CC0B238BD84
:108DF0002DE9FF5F82468B46FB4814460BF10302C8
:108E0000D0E90110CDE9021022F0030201A84FF4CD
:108E10009071019209F0D3FEF44E002C02D1F44976
:108E2000019A8A60019901440191B57F05F101051C
:108E300004D1E8B20BF0D6FD00B1FFDF019800EBE2
:108E40000510C01C20F0030101915CB9707AB27A60
:108E50001044C2B200200870308C80B204F01BFFB6
:108E600000B1FFDF0198316A08440190214601A852
:108E700000F094FF80460198C01C20F00300019090
:108E8000B37AF27A717A04B1002009F08EFF019969
:108E900008440190214601A800F0C8FFD3480027EC
:108EA0003D4690F801900CE0284600F05AFF064637
:108EB00081788088F9F7B8F871786D1C00FB01772C
:108EC000EDB24D45F0D10198C01C20F00300019097
:108ED00004B100203946F9F7B2F801990027084497
:108EE0000190C2483D4690F801900CE0284600F001
:108EF00038FF0646C1788088FEF707FC71786D1C44
:108F000000FB0177EDB24D45F0D10198C01C20F077
:108F10000300019004B100203946FEF7FFFB0199E0
:108F20004FF0000908440190B0484D4647780EE0E4
:108F3000284600F016FF0646807B30B106F1080097
:108F400002F07AF9727800FB02996D1CEDB2BD4215
:108F5000EED10198C01C20F00300019004B1002064
:108F6000A3494A78494602F06BF9019908440190F7
:108F7000214601A800F0C5FE0198C01D20F00700A1
:108F80000190DAF80010814204D3A0EB0B01B1F597
:108F9000803F04DB4FF00408CAF8000004E0CAF880
:108FA0000000B8F1000F03D0404604B0BDE8F09FC8
:108FB00074BB90490020019A0DF078FEFBF7E8F9A8
:108FC0008A4C207F0090607F012823D0002318B3B3
:108FD0000022864800211030F8F70AFA00B1FFDFBE
:108FE000E07FFEF748FF00B1FFDF80484FF4F672E4
:108FF0000021403005F059FA7C480421403080F8C7
:10900000E91180F8EA11062180F8EB1103210171C2
:109010000020CAE70123DAE702AADAE770B5734C49
:1090200006464034207804EB4015E078083598B9BE
:10903000A01990F8E80100280FD0A0780F2800D3DD
:10904000FFDF20220021284605F02FFA687866F31A
:10905000020068700120E070284670BD2DE9F041E3
:1090600005460C4600270078052190463E46B1EBA8
:10907000101F00D0FFDF287A50B101280ED0FFDF8B
:10908000A8F800600CB1278066800020BDE8F08160
:109090000127092674B16888A08008E002271426F9
:1090A00044B16888A0802869E060A88A2082287B73
:1090B0002072E5E7A8F80060E7E730B54B4C0120E7
:1090C000002120706170207260720322A272E0722F
:1090D0006177217721732174052121831F21618309
:1090E000607445A161610A21A177E077404D4FF49A
:1090F000B06020626868C11C21F00301814200D089
:10910000FFDF6868606030BD30B5394C1568636852
:1091100010339D4202D20420136030BD334B5D7882
:109120005A6802EB0512107051700320D08017208E
:1091300090800120D0709070002090735878401C6F
:109140005870606810306060002030BD70B5064611
:1091500026480024457807E0204600F002FE01780A
:10916000B14204D0641CE4B2AC42F5D1002070BD21
:10917000F7B5074608780C4610B3FFF7E7FF05463A
:10918000A7F12006202F06D0052E19D2DFE806F021
:109190000F3838151A0000F0EFFD0DB1697800E0C6
:1091A0000021401AA17880B20844FF2808D8A0788E
:1091B00030B1A088022831D202E0608817282DD271
:1091C0000720FEBD207A48B361881729F8D3A1880B
:1091D0001729F5D3A1790029F2D0E1790029EFD040
:1091E000402811D9ECE70000D4620200B00300204F
:1091F0001C000020000000206E5246357800000060
:10920000242F0BD1207A48B161884FF6FB70814240
:1092100002D8A188814201D90420FEBD65B9207819
:1092200002AA0121FFF770FF0028F6D12078FFF78E
:109230008DFF050000D1FFDF052E18D2DFE806F014
:10924000030B0E081100A0786870A088E8800FE07A
:109250006088A8800CE0A078A87009E0A078E87089
:1092600006E054F8020FA8606068E86000E0FFDFE5
:109270000020FEBD1A2835D00DDC132832D2DFE8DD
:1092800000F01B31203131272723252D31312931A1
:109290003131312F0F00302802D003DC1E2821D1BC
:1092A000072070473A3809281CD2DFE800F0151B68
:1092B0000F1B1B1B1B1B07000020704743F2040001
:1092C000704743F202007047042070470D2070473A
:1092D0000F207047082070471120704713207047F7
:1092E000062070470320704710B5007800F0010099
:1092F00008F038FEBDE81040BCE710B5007800F07B
:10930000010008F038FEBDE81040B3E70EB5017863
:1093100001F001018DF80010417801F001018DF894
:1093200001100178C1F340018DF802104178C1F3BA
:1093300040018DF80310017889088DF804104178F8
:1093400089088DF8051081788DF80610C1788DF8A0
:10935000071000798DF80800684607F04CFEFFF70B
:1093600089FF0EBD2DE9F84FDFF8F883FE4C00268B
:109370004FF490771FE0012000F09BFD0120FFF7E4
:109380004DFE05463946D8F8080009F036FC6860FD
:1093900000B9FFDF686807F0F9FCB0B12846FAF7BA
:1093A00039FB284600F08BFD28B93A466968D8F8A1
:1093B000080009F04DFC94F9E9010428DBDA0220E9
:1093C00009F088FD07460025A5E03A466968D8F807
:1093D000080009F03DFCF2E7B8F802104046491CCD
:1093E00089B2A8F80210B94201D3002141800221BC
:1093F000B8F8020009F0C6FD002864D0B8F80200F1
:10940000694608F01EFDFFF735FF00B1FFDF9DF84C
:10941000000078B1B8F8020009F0F9FE5FEA00092F
:1094200000D1FFDF484609F066F918B1B8F802002C
:1094300002F0CCF9B8F8020009F0D7FE5FEA0009A3
:1094400000D1FFDF484609F04EF9E0BB0321B8F830
:10945000020009F097FD5FEA000B47D1FFDF45E00E
:10946000DBF8100010B10078FF2849D0022000F08E
:1094700020FD0220FFF7D2FD8246484609F03FFA60
:10948000CAF8040000B9FFDFDAF8040009F007FBAE
:10949000002100900170B8F802105046AAF802109E
:1094A00002F09AF8484609F0FCFA00B9FFDF50468E
:1094B00000F005FD18B99AF80100000704D50098DE
:1094C000CBF8100012E024E0DBF8100038B101788E
:1094D000491C11F0FF01017008D1FFDF06E00022F6
:1094E0001146484600F00BFC00B9FFDF94F9EA0191
:1094F000022805DBB8F8020002F035F80028AFD1E9
:1095000094F9E901042804DB484609F02EFB00B178
:1095100001266D1CEDB2BD4204D294F9EA01022885
:10952000BFF65AAF002E7FF422AFBDE8F84F0320FC
:1095300000F0BFBC10B58B4CE06008682061AFF252
:10954000DB10F9F7C2FC607010BD8748002140387D
:1095500001708448017085494160704770B50546C7
:109560004FF080500C46D0F8A410491C05D1D0F81B
:10957000A810C9430904090C0BD050F8A01F01F032
:1095800001012970416821608068A080287830B985
:1095900070BD062120460DF00EF80120287060797C
:1095A00040F0C000607170BD70B54FF080540D4642
:1095B000D4F88010491C0BD1D4F88410491C07D171
:1095C000D4F88810491C03D1D4F88C10491C0CD055
:1095D000D4F880100160D4F884104160D4F8881069
:1095E0008160D4F88C10C16002E010210CF0E3FF20
:1095F000D4F89000401C0BD1D4F89400401C07D143
:10960000D4F89800401C03D1D4F89C00401C09D029
:1096100054F8900F286060686860A068A860E068EF
:10962000E86070BD2846BDE8704010210CF0C3BF53
:109630004D480079F2E470B54B4CE07830B32078B7
:1096400004EB4010407A00F00700204490F9E80154
:10965000002800DCFFDF2078002504EB4010407A72
:1096600000F00700011991F8E801401E81F8E801B7
:109670002078401CC0B220700F2800D12570A0783F
:10968000401CA0700CF016FEE57070BDFFDF70BDD1
:109690003EB50546032109F075FC0446284609F04D
:1096A000A4FD054604B9FFDF206918B10078FF2842
:1096B00000D1FFDF01AA6946284600F020FB60B90F
:1096C000FFDF0AE0002202A9284600F018FB00B9DB
:1096D000FFDF9DF8080000B1FFDF9DF80000411E8C
:1096E0008DF80010EED220690199884201D1002046
:1096F00020613EBD70B50546A0F57F400C46FF38A1
:1097000000D1FFDF012C01D0FFDF70BDFFF790FF1C
:10971000040000D1FFDF207820F00F00401D20F072
:10972000F0005030207065800020207201202073EE
:10973000BDE870407FE72DE9F04116460D4607462B
:10974000FFF776FF040000D1FFDF207820F00F0044
:10975000401D20F0F0005030207067800120207202
:10976000286805E01C000020F003002048140020B9
:109770002061A888A0822673BDE8F0415BE77FB531
:10978000FFF7E4FC040000D1FFDF02A92046FFF749
:10979000F9FA054603A92046FFF70EFB8DF80050A5
:1097A0008DF80100BDF80800001DADF80200BDF8FD
:1097B0000C00001DADF80400E088ADF80600684616
:1097C00008F0BAFB002800D0FFDF7FBD2DE9F05F75
:1097D000F64E8146307810B10820BDE8F09F48462B
:1097E000F7F75DFD08B11020F7E7F14C207808B9D4
:1097F000FFF763FCA17A607A4D460844C4B200F0DA
:10980000BBFAA04207D2201AC1B22A460020FFF7B5
:109810007BFC0028E1D17168E548C91C002721F0D4
:1098200003017160B3463E463D46BA463C4690F859
:1098300001800AE0204600F094FA4178807B0E44D3
:1098400010FB0155641CE4B27F1C4445F2D10AEBC5
:10985000870000EBC600D64E00EB85005C46F17A2F
:10986000012200EB8100DBF8041045182946484628
:10987000FFF7BEFA070012D00020FFF767FC0500D3
:109880000BD005F11300616820F00300884200D07E
:10989000FFDF7078401E7070656038469DE70022DB
:1098A00029464846FFF7A4FA00B1FFDFD9F80000C7
:1098B00060604FF6FF7060800120207000208CE710
:1098C0002DE9F0410446B94817460E46007810B11C
:1098D0000820BDE8F0810846F7F7BBFC08B110206E
:1098E000F7E7B34D287808B9FFF7E7FB601E1E289D
:1098F00007D8012C22D13078FE281FD8A877002065
:10990000E7E7A4F120001F2805D8E0B23A46314627
:10991000BDE8F0412CE4A4F140001F2805D83146F1
:109920002046BDE8F04100F0F2BAA4F1A0001F28E3
:1099300004D80020A02C03D0A12C06D00720C8E713
:10994000317801F00101E977C3E731680922F8298C
:1099500001D38B0701D01046BBE76B7C03F00303F8
:10996000012B04D16B8BD7339CB28C42F3D8296284
:10997000AFE72DE9F04781460E460846F7F78FFC22
:1099800048B94846F7F7A9FC28B909F1030020F0C7
:109990000301494502D01020BDE8F08784484FF00C
:1099A000000A4030817869B14178804600EB41146B
:1099B0000834378832460021204600F08EFA050030
:1099C00004D027E0A6F800A00520E5E7B9F1000FD4
:1099D00024D03088B84201D90C251FE0607800F00F
:1099E0000705284600F065FA08EB0507324697F8A8
:1099F000E8014946401C87F8E801204607F5F4775E
:109A000000F06BFA05463878401E3870032000F0ED
:109A100050FA2DB10C2D01D0A6F800A02846BBE7C6
:109A20006078624E00F00701012923D002290CD092
:109A3000032934D0FFDF98F801104046491CC9B211
:109A400088F801100F2935D036E0616821B1000790
:109A500002D46088FFF71CFE98F8EA014746012807
:109A600002D17078F9F750FA97F9EA010428E2DB9D
:109A7000FFDFE0E7616821B14FF49072B06809F050
:109A8000E7F898F8E9014746032802D17078F9F71A
:109A90003BFA97F9E9010428CDDBFFDFCBE7C006ED
:109AA00002D56088FFF7F4FD98F9EB010628C2DBC8
:109AB000FFDFC0E780F801A08178491E81706178DE
:109AC00001F0070101EB080090F8E811491C80F84B
:109AD000E811A3E770B50C460546F7F7BAFB18B9CD
:109AE0002046F7F7DCFB08B1102070BD28460AF0CD
:109AF000B0FF207008B1002070BD042070BD70B5AB
:109B000005460AF0BFFFC4B22846F7F7E6FB08B1E6
:109B1000102070BD35B128782C7018B1A04201D04A
:109B2000072070BD2046FDF75DFE052805D10AF02F
:109B3000ACFF012801D0002070BD0F2070BD70B5B2
:109B4000044615460E460846F7F783FB18B9284623
:109B5000F7F7A5FB08B1102070BD022C03D0102C24
:109B600001D0092070BD2A46314620460AF0B7FFD1
:109B70000028F7D0052070BD70B514460D46064686
:109B8000F7F767FB38B92846F7F789FB18B920467D
:109B9000F7F7A3FB08B1102070BD224629463046D6
:109BA0000AF09FFF0028F7D0072070BD1C0000209E
:109BB000B00300203EB50446F7F771FB08B1102052
:109BC0003EBD684607F088F9FFF754FB0028F7D13F
:109BD0009DF806002070BDF808006080BDF80A00FE
:109BE000A08000203EBD70B505460C460846F7F73C
:109BF00074FB20B93CB12068F7F751FB08B1102085
:109C000070BDA08828B121462846BDE87040FDF708
:109C100041BE092070BD70B505460C460846F7F7F1
:109C200018FBA0BB681E1E280ED8032D01D90720E3
:109C300070BD05B9FFDFFE4800EB850050F8041C3D
:109C40002046BDE870400847A5F120001F2805D830
:109C500021462846BDE87040FAF707BBA5F1600031
:109C60001F2805D821462846BDE87040F8F79DBC5E
:109C7000F02D0DD0F12D15D0BF2DD8D1A078218891
:109C800000F0010001F05EFB98B1002070BD03E020
:109C9000A068F7F7DEFA08B11020F7E7204608F0D1
:109CA000B0F902E0207808F0CFF9BDE87040FFF786
:109CB000E1BA0820EAE770B504460D460846F7F712
:109CC000EEFA30B9601E1E280FD82846F7F7C1FA01
:109CD00008B11020DAE7012C03D0022C01D0032CAC
:109CE00001D10620D2E70720D0E7A4F120001F28E9
:109CF000F9D829462046BDE87040FAF729BB08F09C
:109D0000C1BC7CB50446CB48007B00F0010511BB0B
:109D100004F0EEFB0DB1226800E00022C648417855
:109D2000C06806F0A6FDC4481030C0788DF8000069
:109D300010B1012802D004E0012000E000208DF8DD
:109D40000000684607F038F9B948243800680190E7
:109D500001A807F0EBFE002D02D02068283020601B
:109D60007CBD30B5B34D04466878A04200D8FFDF13
:109D7000686800EB041030BD70B5AE4800252C4675
:109D8000467807E02046FFF7ECFF4078641C284443
:109D9000C5B2E4B2B442F5D1284677E72DE9F041E7
:109DA0000C4607464FF0000800F0EDF80646FF2885
:109DB00001D94FF013083868C01C20F003023A6044
:109DC00054EA080421D19B48F3B2072124300CF057
:109DD000FFFD09E0072C10D2DFE804F006040808B4
:109DE0000A040600954804E0954802E0954800E022
:109DF00095480CF00DFE054600E0FFDFA54200D0BF
:109E0000FFDF641CE4B2072CE4D3386800EB0610D3
:109E1000386040465DE5021D5143452900D2452189
:109E20000844C01CB0FBF2F0C0B270472DE9FC5FE3
:109E3000064680484FF000088B464746444690F857
:109E4000019022E02046FFF78CFF050000D1FFDFE4
:109E5000687869463844C7B22846FEF793FF8246C1
:109E600001A92846FEF7A8FF0346BDF804005246A4
:109E7000001D81B2BDF80000001D80B209F000F99C
:109E80006A78641C00FB0288E4B24C45DAD1306881
:109E9000C01C20F003003060BBF1000F00D0002098
:109EA0004246394609F0FAF8316808443060BDE8A6
:109EB000FC9F6049403108710020C87070475D49BF
:109EC0004031CA782AB10A7801EB42110831814247
:109ED00001D001207047002070472DE9F04106466F
:109EE0000078154600F00F0400201080601E0F4619
:109EF000052800D3FFDF4E482A46183800EB8400BF
:109F0000394650F8043C3046BDE8F04118472DE989
:109F1000F041484E0C46402806D0412823D0422824
:109F20002BD0432806D123E0A07861780D18E17882
:109F3000814201D90720CCE42078012801D91320DF
:109F4000C7E4FF2D08D80AF037FF07460CF06AF97E
:109F5000381A801EA84201DA1220BAE42068B060E4
:109F6000207930730DE0BDE8F041084600F036B8C6
:109F700008780228DED8307703E008780228D9D89C
:109F800070770020A5E42DE9F047DFF8A8900026BF
:109F9000344699F8090099F80A2099F801700244AA
:109FA000D5B299F80B20104400F0FF0808E02046D5
:109FB000FFF7D7FE817B407811FB0066641CE4B29A
:109FC000BC42F4D199F8091099F80A0029442944AF
:109FD000414400B1012008443044DDE438B5044672
:109FE000407800F00300012803D002280BD007209E
:109FF00038BD606858B1F7F779F9C0B96068F7F70C
:10A000006CF920B925E06068F7F723F978B969465B
:10A010002046FCF745F80028EAD1607800F00300FC
:10A02000022818D19DF80000A8B160680EE010E089
:10A03000F8620200B00300201C0000206B41000009
:10A0400061B30000DD2F0000D7470100F7F745F9A5
:10A0500008B1102038BD6189F8290DD820898842BF
:10A060000AD8607800F003020A48012A06D1D731E5
:10A07000026A89B28A4201D2092038BD94E80E00F2
:10A0800000F1100585E80E000AB9002101830020C7
:10A0900038BD0000B00300202DE9F041074614460A
:10A0A0008846084601F08AFD064608EB88001C2217
:10A0B000796802EBC0000D18688C58B141463846EB
:10A0C00001F08BFD014678680078C200082305F195
:10A0D00020000CE0E88CA8B14146384601F084FD30
:10A0E0000146786808234078C20005F1240008F092
:10A0F00006FE38B1062121726681D0E90010C4E95C
:10A10000031009E0287809280BD005202072668109
:10A110006868E060002028702046BDE8F04101F04A
:10A120002EBD072020726681F4E72DE9F041164626
:10A130000D460746406801EB85011C2202EBC10178
:10A140004418204601F072FD40B10021708865F38B
:10A150000F2160F31F4106200CF014FD0920207030
:10A16000324629463846BDE8F04195E72DE9F041F1
:10A170000E46074600241C21F07816E004EB840309
:10A18000726801EBC303D25C6AB1FFF751FA0500B4
:10A1900000D1FFDF6F802A4621463046FFF7C5FF1A
:10A1A0000120BDE8F081641CE4B2A042E6D80020A2
:10A1B000F7E770B5064600241C21C0780AE000BF0E
:10A1C00004EB8403726801EBC303D5182A782AB123
:10A1D000641CE4B2A042F3D8402070BD28220021C4
:10A1E000284604F062F9706880892881204670BD95
:10A1F00070B5034600201C25DC780CE000EB8006DF
:10A200005A6805EBC6063244167816B1128A8A429D
:10A2100004D0401CC0B28442F0D8402070BDF0B5DC
:10A22000044600201C26E5780EE000BF00EB800706
:10A23000636806EBC7073B441F788F4202D15B7807
:10A24000934204D0401CC0B28542EFD84020F0BDFC
:10A250000078032801D00020704701207047007863
:10A26000022801D00020704701207047007807289D
:10A2700001D000207047012070472DE9F0410646CB
:10A2800088461078F1781546884200D3FFDF2C7895
:10A290001C27641CF078E4B2A04201D8201AC4B292
:10A2A00004EB8401706807EBC1010844017821B117
:10A2B0004146884708B12C7073E72878A042E8D15E
:10A2C000402028706DE770B514460B880122A2402B
:10A2D000134207D113430B8001230A22011D08F00A
:10A2E000D8FC047070BD2DE9FF4F81B00878DDE91E
:10A2F0000E7B9A4691460E4640072CD4019808F0F2
:10A3000086FF040000D1FFDF07F1040820461FFA92
:10A3100088F108F0C3F8050000D1FFDF2046294688
:10A320006A4608F00EFB0098A0F80370A0F805A09C
:10A33000284608F0B4FB017869F306016BF3C711F6
:10A34000017020461FFA88F108F0EBF800B9FFDF32
:10A35000019806F0FCF906EB0900017F491C017722
:10A3600005B0BDE8F08F2DE9F84F0E469A469146AC
:10A370000746032108F006FE0446008DDFF8B88585
:10A38000002518B198F80000B0421ED1384608F0F8
:10A390003EFF070000D1FFDF09F10401384689B212
:10A3A00008F07CF8050010D0384629466A4608F0C7
:10A3B000C8FA009800210A460180817006F084FAEC
:10A3C0000098C01DCAF8000021E098F80000B042D3
:10A3D00016D104F1260734F8341F012000FA06F9DB
:10A3E00011EA090F00D0FFDF2088012340EA0900AD
:10A3F00020800A22391D384608F066FC067006E007
:10A40000324604F1340104F12600FFF75CFF0A2113
:10A4100088F800102846BDE8F88FFEB515460C46B2
:10A42000064602AB0C220621FFF79DFF002827D02D
:10A430000299607812220A70801C487008224A80B3
:10A44000A07002982988052381806988C180A98825
:10A450000181E988418100250C20CDE90005062213
:10A4600021463046FFF73FFF2946002266F31F4191
:10A47000F02310460CF0DCFA6078801C607001203C
:10A48000FEBDFEB514460D460622064602AB114639
:10A49000FFF769FF002812D0029B132000211870DB
:10A4A000A8785870022058809C800620CDE90001D1
:10A4B0000246052329463046FFF715FF0120FEBD61
:10A4C0002DE9FE430C46804644E002AB0E220721F4
:10A4D0004046FFF748FF002841D060681C2267789B
:10A4E0008678BF1C06EB860102EBC1014518029875
:10A4F0001421017047700A214180698A0181E98A2B
:10A500004181A9888180A9898181304601F056FB6B
:10A51000029905230722C8806F7004202870002547
:10A520000E20CDE9000521464046FFF7DCFE294616
:10A5300066F30F2168F31F41F023002206200CF080
:10A5400077FA6078FD49801C607062682046921C32
:10A55000FFF793FE606880784028B6D10120BDE8FF
:10A56000FE83FEB50D46064638E002AB0E220721FB
:10A570003046FFF7F8FE002835D068681C23C17804
:10A5800001EB810203EBC2028418029815220270CB
:10A59000627842700A224280A2894281A288828126
:10A5A000084601F00BFB014602988180618AC18058
:10A5B000E18A0181A088B8B10020207000210E201E
:10A5C000CDE900010523072229463046FFF78BFE1F
:10A5D0006A68DB492846D21CFFF74FFE6868C078DE
:10A5E0004028C2D10120FEBD0620E6E72DE9FE434A
:10A5F0000C46814644E0204601F002FBD0B302AB9A
:10A60000082207214846FFF7AEFE0028A7D0606861
:10A610001C2265780679AD1C06EB860102EBC101B0
:10A6200047180298B7F81080062101704570042180
:10A630004180304601F0C2FA014602980523072204
:10A64000C180A0F804807D70082038700025CDE915
:10A65000000521464846FFF746FE294666F30F21CE
:10A6600069F31F41F023002206200CF0E1F9607825
:10A67000801C60706268B3492046121DFFF7FDFD23
:10A68000606801794029B6D1012068E72DE9F34FD0
:10A6900083B00D4691E0284601F0B2FA00287DD043
:10A6A00068681C2290F806A00AEB8A0102EBC1013F
:10A6B00044185146284601F097FAA178CB00696802
:10A6C0004978CA00014604F1240008F034FB07462B
:10A6D0008188E08B4FF00009091A8EB208B1C84694
:10A6E00007E04FF00108504601F053FA08B9B61CD4
:10A6F000B6B2208BB04200D80646B34602AB324613
:10A7000007210398FFF72FFE060007D0B8F1000FCE
:10A710000BD0504601F03DFA10B106E000201FE6D4
:10A720000299B8884FF0020908800196E28B3968D7
:10A73000ABEB09001FFA80F80A4403984E460092DA
:10A7400008F065FDDDE90021F61D4346009608F09E
:10A7500072F9E08B404480B2E083B988884201D12D
:10A76000012600E00026CDE900B6238A072229460B
:10A770000398FFF7B8FD504601F00BFA10B9E089D5
:10A78000401EE08156B1A078401CA0706868E9784E
:10A79000427811FB02F1CAB2012300E007E08169AF
:10A7A0000E3008F076FA80F800A00020E0836A6896
:10A7B00065492846921DFFF760FD68688179402948
:10A7C0007FF469AF0120CBE570B5064648680D46B9
:10A7D00014468179402910D104EB84011C2202EB3C
:10A7E000C101084401F043FA002806D068682946F0
:10A7F00084713046BDE8704048E770BDFEB50C4638
:10A800000746002645E0204601F0FAF9D8B3606813
:10A810001C22417901EB810102EBC10145186889D5
:10A8200000B9FFDF02AB082207213846FFF79BFD86
:10A83000002833D00299607816220A70801C487074
:10A84000042048806068407901F0B8F90146029818
:10A850000523072281806989C1800820CDE900068F
:10A8600021463846FFF73FFD6078801C6070A8895C
:10A8700069890844B0F5803F00D3FFDFA889698962
:10A880000844A8816E81626830492046521DFFF756
:10A89000F4FC606841794029B5D10120FEBD30B596
:10A8A000438C458BC3F3C704002345B1838B641EDF
:10A8B000ED1AC38A6D1E1D4495FBF3F3E4B22CB16F
:10A8C000008918B1A04200D8204603444FF6FF701B
:10A8D000834200D3034613800C7030BD2DE9FC4148
:10A8E000074616460D46486802EB86011C2202EB1D
:10A8F000C10144186A4601A92046FFF7D0FFA0898C
:10A90000618901448AB2BDF80010914212D0081A40
:10A9100000D5002060816868407940280AD120462F
:10A9200001F09BF9002805D0686829464671384631
:10A93000FFF764FFBDE8FC813000002051A2000059
:10A940005FA200006DA200006FBC00005BBC0000B5
:10A950002DE9FE4F0F46814615465088032108F029
:10A9600011FB0190B9F8020001F01BF98246014683
:10A97000019801F045F9002824D001981C22416873
:10A980000AEB8A0002EBC0000C18204601F04EF9D9
:10A99000002817D1B9F80000E18A88420ED8A189B1
:10A9A00061B1B8420ED100265146019801F015F967
:10A9B000218C01EB0008608B30B114E0504601F0AF
:10A9C000E8F8A0B3BDE8FE8F504601F0E2F808B108
:10A9D000678308E0022FF5D3B9F804006083618A29
:10A9E000884224D80226B81B87B2B8F80400A28B8C
:10A9F000801A002814DD874200DA38461FFA80FBEF
:10AA0000688869680291D8F800100A44009208F03A
:10AA1000ECFBF61D009A5B460299009607F0D7FF03
:10AA2000A08B384480B2A083618B884207D96888A4
:10AA3000019903B05246BDE8F04F01F035B91FD17E
:10AA40004FF009002872B9F802006881D8E90010B7
:10AA5000C5E90410608BA881284601F090F85146A2
:10AA6000019801F0BAF8014601980823406800787F
:10AA7000C20004F1200008F042F90020A0836083A6
:10AA8000504601F086F810B9A089401EA081688860
:10AA9000019903B00AF0FF02BDE8F04F1EE72DE96F
:10AAA000F041064615460F461C461846F6F7D1FB00
:10AAB00018B92068F6F7F3FB10B11020BDE8F0815B
:10AAC0007168688C0978B0EBC10F01D31320F5E7EA
:10AAD0003946304601F081F8014670680823007855
:10AAE000C20005F1200008F0D4F8D4E90012C0E952
:10AAF00000120020E2E710B50446032108F042FAF4
:10AB00000146007800F00300022805D02046BDE889
:10AB1000104001F1140280E48A8A2046BDE810400A
:10AB2000AFE470B50446032108F02CFA054601464F
:10AB30002046FFF75BFD002816D029462046FFF788
:10AB40005DFE002810D029462046FFF70AFD0028A8
:10AB50000AD029462046FFF7B3FC002804D0294636
:10AB60002046BDE8704091E570BD2DE9F0410C46EE
:10AB700080461EE0E178427811FB02F1CAB2816999
:10AB800001230E3008F0BBF8077860681C22C179F9
:10AB9000491EC17107EB8701606802EBC1014618CD
:10ABA0003946204601F02CF818B1304601F037F84C
:10ABB00020B16068C1790029DCD17FE7FEF738FD5C
:10ABC000050000D1FFDF0A202872384600F0F6FFAA
:10ABD00068813946204601F007F80146606808237D
:10ABE0004078C20006F1240008F089F8D0E900108E
:10ABF000C5E90310A5F80280284600F0C0FFB07830
:10AC000000B9FFDFB078401EB07057E770B50C4652
:10AC10000546032108F0B6F901464068C27922448E
:10AC2000C2712846BDE870409FE72DE9FE4F82467D
:10AC3000507814460F464FF0000800284FD00128E6
:10AC400007D0022822D0FFDF2068B8606068F86073
:10AC5000B8E602AB0E2208215046FFF784FB00281D
:10AC6000F2D00298152105230170217841700A2144
:10AC70004180C0F80480C0F80880A0F80C80628889
:10AC800082810E20CDE90008082221E0A678304616
:10AC900000F094FF054606EB86012C22786802EB53
:10ACA000C1010822465A02AB11465046FFF75BFB32
:10ACB0000028C9D002980721017021784170042131
:10ACC000418008218580C680CDE9001805230A4609
:10ACD00039465046FFF707FB87F8088072E6A678EA
:10ACE000022516B1022E13D0FFDF2A1D914602ABBA
:10ACF00008215046FFF737FB0028A5D00298012114
:10AD0000022E0170217841704580868002D005E0D6
:10AD10000625EAE7A188C180E1880181CDE9009894
:10AD20000523082239465046D4E710B504460321CE
:10AD300008F028F9014600F108022046BDE810405D
:10AD400073E72DE9F04F0F4605468DB01446508845
:10AD5000032108F017F94FF000088DF8148006461B
:10AD6000ADF81680042F7BD36A78002A78D0287833
:10AD70004FF6FF794FF01C0A132834D008DC012865
:10AD800071D006284AD007286ED012280ED106E0CE
:10AD900014286AD0152869D0162807D1AAE10C2FEB
:10ADA00004D1307800F00301022907D0CDF80880E3
:10ADB000CDF80C8068788DF808004CE040F0080071
:10ADC00030706878B07001208DF81400A888ADF854
:10ADD0001800E888ADF81A002889ADF81C006889C9
:10ADE000ADF81E0011E1B078904239D130780107FA
:10ADF00036D5062F34D120F00800307060884146E7
:10AE000060F31F4100200BF0BDFE02208DF81400FE
:10AE1000ADF81890A888ADF81A00F6E0082F1FD1F9
:10AE2000A888EF88814600F0BCFE80460146304687
:10AE300000F0E6FE18B1404600F0ABFEB8B1FC48A9
:10AE4000D0E90010CDE902106878ADF80C908DF8CB
:10AE50000800ADF80E70608802AA3146FFF7E5FEE3
:10AE60000DB0BDE8F08FB6E01EE041E0ECE07168A7
:10AE700008EB88002C2202EBC000085AB842EFD140
:10AE8000EB4802AAD0E90210CDE9021068788DF8EB
:10AE9000080008F0FF058DF80A5060883146FFF77A
:10AEA000C4FE224629461FE0082FD9D1B5F80480F8
:10AEB000E88800F076FE07460146304600F0A0FE26
:10AEC0000028CDD007EB870271680AEBC200084466
:10AED000028A4245C4D101780829C1D140786978F5
:10AEE0008842BDD1F9B222463046FFF71EF9B7E7D6
:10AEF0000E2F7FF45BAFE9886F898B46B5F8089019
:10AF00003046FFF775F9ABF14001402901D3092024
:10AF10004AE0B9F1170F01D3172F01D20B2043E0FC
:10AF200040280ED000EB800271680AEBC200084492
:10AF30000178012903D140786978884290D00A20AD
:10AF400032E03046FFF735F9014640282BD001EBBF
:10AF5000810372680AEBC30002EB0008012288F843
:10AF600000206A7888F801207068AA884089B84271
:10AF700000D93846AD8903232372A282E78120825B
:10AF8000A4F80C906582084600F018FE6081A8F8CD
:10AF90001490A8F81870A8F80E50A8F810B0204621
:10AFA00000F0EDFD5CE7042005212172A4F80A8081
:10AFB000E081012121739E49D1E90421CDE90221DB
:10AFC00069788DF80810ADF80A00608802AA314649
:10AFD000FFF72BFEE3E7062F89D3B07890421AD112
:10AFE0003078010717D520F008003070608841469E
:10AFF00060F31F4100200BF0C5FD02208DF8140006
:10B00000A888ADF81800ADF81A906088224605A906
:10B01000F9F7D7F824E704213046FFF700F9054691
:10B020004028BFD0022083030090224629463046A4
:10B0300000F003FE4146608865F30F2160F31F4175
:10B0400006200BF09FFD0BE70E2FABD104213046FD
:10B05000FFF7E5F881464028A4D04146608869F3AF
:10B060000F2160F31F4106200BF08CFDA8890B9087
:10B070006889099070682F894089B84200D938469C
:10B080008346B5F80680A8880A90484600F096FDE9
:10B0900060810B9818B1022000900B9B24E0B8F15E
:10B0A000170F1ED3172F1CD304202072099860821B
:10B0B000E781A4F810B0A4F80C8009EB890271684C
:10B0C0000AEBC2000D18DDE90913A5F81480A5F8F4
:10B0D00018B0E9812B82204600F051FD062028702F
:10B0E000BEE601200B23009022464946304600F080
:10B0F000A4FDB5E6082F8DD1A9883046FFF778F872
:10B100000746402886D000F044FD00289BD107EB7D
:10B11000870271680AEBC2000844804600F086FD91
:10B12000002890D1ED88B8F80E002844B0F5803F93
:10B1300005D360883A46314600F0B6FD90E6002D12
:10B14000CED0A8F80E0060883A463146FFF73CFBA7
:10B1500008202072384600F031FD6081A5811EE78D
:10B160002DE9F05F0C4601281FD0957992F80480F4
:10B1700092F8056005EB85011F2202EBC10121F069
:10B18000030B08EB060111FB05F14FF6FF7202EA13
:10B19000C10909F1030115FB0611264F21F0031A1D
:10B1A000BB6840B101283ED125E06168E57891F89F
:10B1B00000804E78DEE75946184607F01EFD6060B5
:10B1C00000B9FFDF5A460021606803F06EF9E570B0
:10B1D0005146B86807F011FD6168486100B9FFDFAA
:10B1E0006068426902EB09018161606880F8008053
:10B1F0006068467017E0606852464169184607F07B
:10B2000027FD5A466168B86807F022FD032007F061
:10B2100061FE0446032007F065FE201A012802D1D2
:10B22000B86807F0DFFC0BEB0A00BDE8F09F0000F8
:10B2300004630200300000200246002102208FE754
:10B24000F7B5FF4C0A2016462070009860B1002523
:10B250004FEA0D0007F0B3FC0021A1706670002DCD
:10B2600001D10099A160FEBD01250020F2E770B573
:10B270000C46154638220021204603F016F9012617
:10B2800066700A22002104F11C0003F00EF905B9D2
:10B29000FFDF297A207861F301002070A879002867
:10B2A0002DD02A4621460020FFF75AFF6168402032
:10B2B000E34A88706168C8706168087161684871A4
:10B2C0006168887161682888088161686888488138
:10B2D000606886819078002811D061680620087720
:10B2E00061682888C88561682888488660680685FE
:10B2F000606869889288018681864685828570BDEE
:10B30000C878002802D00022012029E7704770B5D4
:10B310000546002165F31F4100200BF033FC03219B
:10B32000284607F02FFE040000D1FFDF2146284603
:10B33000FEF71CFF002804D0207840F01000207099
:10B34000012070BD70B505460C46032007F0B4FD22
:10B3500008B1002070BDBA4885708480012070BD9E
:10B360002DE9FF4180460E460F0CFEF761F90500FE
:10B3700007D06F800321384607F004FE040008D18F
:10B3800006E004B03846BDE8F0411321F9F74CBBA4
:10B39000FFDF5FEA080005D0B8F1060F18D0FFDF25
:10B3A000BDE8FF8120782A4620F0080020700020A8
:10B3B000ADF8020002208DF800004FF6FF70ADF8E6
:10B3C0000400ADF8060069463846F8F7FAFEE7E7EC
:10B3D000C6F3072101EB81021C23606803EBC20264
:10B3E000805C042803D008280AD0FFDFD8E70120BA
:10B3F00000904FF440432A46204600F01EFCCFE761
:10B4000004B02A462046BDE8F041FEF78EBE2DE985
:10B41000F05F05464089002790460C463E4682462E
:10B4200000F0BFFB8146287AC01E08286BD2DFE8F7
:10B4300000F00D04192058363C4772271026002CC6
:10B440006CD0D5E90301C4E902015CE07027122643
:10B45000002C63D00A2205F10C0104F1080002F06F
:10B46000FAFF50E071270C26002C57D0E868A06046
:10B4700049E0742710269CB3D5E90301C4E9020111
:10B480006888032107F07EFD8346FEF7D1F8024667
:10B490006888508049465846FEF7FEFD33E0752720
:10B4A0000A26ECB1A88920812DE076271426BCB1AC
:10B4B00005F10C0004F1080307C883E8070022E047
:10B4C0007727102664B1D5E90301C4E90201688831
:10B4D000032107F057FD01466888FFF746FB12E09D
:10B4E0001CE073270826CCB16888032107F04AFDC9
:10B4F00001460078C00606D56888FEF737FE10B909
:10B500006888F8F76BFAA8F800602CB12780A4F8D7
:10B5100006A066806888A080002086E6A8F8006003
:10B52000FAE72DE9FC410C461E46174680460321EA
:10B5300007F028FD05460A2C0AD2DFE804F00505CD
:10B540000505050509090907042303E0062301E0B1
:10B55000FFDF0023CDE90076224629464046FEF76C
:10B56000C2FEBDE8FC81F8B50546A0F57F40FF3876
:10B570002BD0284607F039FE040000D1FFDF20461B
:10B5800007F0BDF9002821D001466A46204607F0A1
:10B59000D8F900980321B0F80560284607F0F2FCBE
:10B5A0000446052E13D0304600F0FBFA054601464E
:10B5B000204600F025FB40B1606805EB85013E2286
:10B5C00002EBC101405A002800D00120F8BD007AEA
:10B5D0000028FAD00020F8BDF8B50446408807F0EE
:10B5E00004FE050000D1FFDF6A462846616800F0CE
:10B5F000C4FA01460098091F8BB230F8032F02806D
:10B60000428842800188994205D1042A08D0052A3F
:10B6100020D0062A16D022461946FFF799F9F8BD20
:10B62000001D0E460546014622463046F6F72BFF22
:10B630000828F4D1224629463046FCF772F9F8BDB5
:10B6400030000020636864880A46011D2046FAF72E
:10B6500095F9F4E72246001DFFF773FBEFE770B59D
:10B660000D460646032107F08DFC040004D0207827
:10B67000000704D5112070BD43F2020070BD2A46B8
:10B6800021463046FEF7C9FE18B92868606168682F
:10B69000A061207840F008002070002070BD70B5D7
:10B6A0000D460646032107F06DFC040004D0207807
:10B6B000000704D4082070BD43F2020070BD2A4682
:10B6C00021463046FEF7DDFE00B9A582207820F045
:10B6D00008002070002070BD2DE9F04F0E4691B09B
:10B6E0008046032107F04EFC0446404607F08FFDDC
:10B6F00007460020079008900990ADF830000A90A6
:10B7000002900390049004B9FFDF0DF10809FFB91E
:10B71000FFDF1DE038460BA9002206F0B3FF9DF8BD
:10B720002C0000F07F050A2D00D3FFDF6019017F98
:10B73000491E01779DF82C00000609D52A460CA960
:10B7400007A8FEF7C0FD19F80510491C09F80510F7
:10B75000761EF6B2DED204F13400F84D04F1260B69
:10B76000DFF8DCA304F12A07069010E0584606999A
:10B7700000F08CFA064628700A2800D3FFDF5AF83A
:10B78000261040468847E08CC05DB04202D0208D34
:10B790000028EBD10A202870E94D4E4628350EE0EE
:10B7A0000CA907A800F072FA0446375D55F824008A
:10B7B00000B9FFDF55F82420394640469047BDF8D0
:10B7C0001E000028ECD111B0BDE8F08F10B50321A8
:10B7D00007F0D8FB040000D1FFDF0A22002104F1AA
:10B7E0001C0002F062FE207840F00400207010BDC2
:10B7F00010B50C46032107F0C5FB2044007F00284C
:10B8000000D0012010BD2DE9F84F8946154682462B
:10B81000032107F0B7FB070004D02846F5F719FD10
:10B8200040B903E043F20200BDE8F88F4846F5F75F
:10B8300036FD08B11020F7E7786828B169880089DB
:10B84000814201D90920EFE7B9F800001C2488B132
:10B8500000F0A7F980460146384600F0D1F988B1DA
:10B8600008EB8800796804EBC000085C01280BD065
:10B870000820D9E73846FEF79CFC8046402807D1CF
:10B880001320D1E70520CFE7FDF7D2FE06000BD04D
:10B8900008EB8800796804EBC0000C18B9F80000C8
:10B8A00020B1E88910B113E01120BDE728881728DE
:10B8B00002D36888172801D20720B5E7686838B135
:10B8C0002B1D224641463846FFF7E9F80028ABD148
:10B8D00004F10C0269462046FEF7E1FF28886082E9
:10B8E0006888E082B9F8000030B102202070E88951
:10B8F000A080E889A0B12BE003202070A889A08057
:10B9000078688178402905D180F802803946504610
:10B91000FEF7D6FD404600F051F9A9F8000021E0FD
:10B920007868218B4089884200D908462083A6F890
:10B9300002A004203072B9F800007081E0897082A2
:10B94000F181208B3082A08AB081304600F017F957
:10B950007868C178402905D180F80380394650467F
:10B96000FEF7FFFD00205FE770B50D460646032198
:10B9700007F008FB04000ED0284600F012F9054637
:10B980000146204600F03CF918B1284600F001F9C4
:10B9900020B1052070BD43F2020070BD05EB8501AA
:10B9A0001C22606802EBC101084400F03FF908B1B5
:10B9B000082070BD2A462146304600F075F9002067
:10B9C00070BD2DE9F0410C4617468046032107F073
:10B9D000D9FA0546204600F0E4F8044695B1014640
:10B9E000284600F00DF980B104EB84011C22686840
:10B9F00002EBC1014618304600F018F938B10820B2
:10BA0000BDE8F08143F20200FAE70520F8E73B4683
:10BA1000324621462846FFF742F80028F0D1E2B22C
:10BA200029464046FEF75AFF708C0838082803D292
:10BA300042484078F7F768FA0020E1E72DE9F04145
:10BA40000D4617468046032107F09CFA0446284617
:10BA500000F0A7F8064624B13846F5F7FAFB38B9E6
:10BA600002E043F20200CBE73868F5F7F2FB08B1D9
:10BA70001020C5E73146204600F0C2F860B106EB61
:10BA800086011C22606802EBC1014518284600F0BF
:10BA9000CDF818B10820B3E70520B1E7B888A98A26
:10BAA000884201D90C20ABE76168E88C4978B0EB9B
:10BAB000C10F01D31320A3E73146204600F094F8CC
:10BAC0000146606808234078C20005F1240007F0B1
:10BAD000E0F8D7E90012C0E90012F2B22146404670
:10BAE000FEF772FE00208BE72DE9F0470D461F465A
:10BAF00090468146032107F045FA0446284600F0A7
:10BB000050F806463CB14DB13846F5F7E6FB50B16A
:10BB10001020BDE8F08743F20200FAE7606858B1F0
:10BB2000A0F80C8027E03146204600F069F818B1F3
:10BB3000304600F02EF828B10520EAE7300000205A
:10BB40001C63020006EB86011C22606802EBC10147
:10BB50004518284600F06AF808B10820D9E7A5F88A
:10BB60000880F2B221464846FEF7B8FE1FB1A88908
:10BB70006989084438800020CBE706F0E2BE0178EE
:10BB800021F00F01491C21F0F00110310170FDF787
:10BB900052BD20B94E48807808B10120704700207E
:10BBA00070474B498988884201D10020704740285E
:10BBB00001D2402000E0403880B2704710B5044602
:10BBC000402800D9FFDF2046FFF7E3FF10B14048CF
:10BBD000808810BD4034A0B210BD40684269007832
:10BBE000484302EBC0007047C2784068037812FBFC
:10BBF00003F24378406901FB032100EBC100704769
:10BC0000C2788A4209D9406801EB81011C2202EB0B
:10BC1000C101405C08B101207047002070470078E6
:10BC2000062801D9012070470020704700780628B7
:10BC300001D00120704700207047F0B401EB81066D
:10BC40001C27446807EBC6063444049D052626706D
:10BC5000E3802571F0BCFEF71FBA10B5418911B120
:10BC6000FFF7DDFF08B1002010BD012010BD10B5A9
:10BC7000C18C8278B1EBC20F04D9C18911B1FFF731
:10BC8000CEFF08B1002010BD012010BD10B50C463C
:10BC900001230A22011D07F032F8007821880122D1
:10BCA00082409143218010BDF0B402EB82051C2636
:10BCB0004C6806EBC505072363554B681C79402C7F
:10BCC00003D11A71F0BCFEF791BCF0BC70470000C4
:10BCD0003000002010B5EFF3108000F0010472B6C0
:10BCE000FC484178491C41704078012801D10AF094
:10BCF00009FB002C00D162B610BD70B5F54CA078E0
:10BD000048B90125A570FFF7E5FF0AF00CFB20B14B
:10BD100000200AF0D6FA002070BD4FF08040E57098
:10BD2000C0F80453F7E770B5EFF3108000F0010599
:10BD300072B6E84C607800B9FFDF6078401E607032
:10BD4000607808B90AF0E2FA002D00D162B670BD41
:10BD5000E04810B5817821B10021C1708170FFF7F2
:10BD6000E2FF002010BD10B504460AF0DCFAD94904
:10BD70008978084000D001202060002010BD10B557
:10BD8000FFF7A8FF0AF0CFFA02220123D149540796
:10BD900028B1D148026023610320087202E00A72D0
:10BDA000C4F804330020887110BD2DE9F84FDFF886
:10BDB00024934278817889F80420002689F80510B8
:10BDC000074689F806600078DFF810B3354620B1E1
:10BDD000012811D0022811D0FFDF0AF0B6FA4FF087
:10BDE000804498B10AF0B8FAB0420FD130460AF058
:10BDF000B7FA0028FAD042E00126EEE7FFF76AFF23
:10BE000058460168C907FCD00226E6E70120E06039
:10BE1000C4F80451B2490E600107D1F84412B04A87
:10BE2000C1F3423124321160AD49343108604FF022
:10BE3000020AC4F804A3A060AA480168C94341F3F8
:10BE4000001101F10108016841F01001016001E0F9
:10BE50001AF06EF8D4F804010028F9D030460AF040
:10BE60007FFA0028FAD0B8F1000F04D19D4801688C
:10BE700021F010010160C4F808A3C4F8045199F836
:10BE800005004E4680B1387870B90AF04CFA804609
:10BE90000AF05CFC6FF00042B8F1000F02D0C6E976
:10BEA000032001E0C6E90302DBF80000C00701D06F
:10BEB0000AF035FA387810B13572BDE8F88F4FF0D6
:10BEC0001808C4F808830127A7614FF42070ADF863
:10BED000000000BFBDF80000411EADF80010F9D20F
:10BEE000C4F80C51C4F810517A48C01D0AF0C2FAC7
:10BEF0003570FFF744FF6761794930792031086078
:10BF0000C4F80483D9E770B5050000D1FFDF4FF016
:10BF100080424FF0FF30C2F808030021C2F8001140
:10BF2000C2F80411C2F80C11C2F81011694C61700A
:10BF30000AF005FA10B10120A0706070674800682F
:10BF4000C00701D00AF0EBF92846BDE870402CE7A5
:10BF50006048007A002800D0012070472DE9F04F9A
:10BF600061484FF0000A85B0D0F800B0D14657467E
:10BF70005D4A5E49083211608406D4F8080110B1A8
:10BF80004FF0010801E04FF000080AF046FA78B1DE
:10BF9000D4F8240100B101208246D4F81C0100B17C
:10BFA00001208146D4F8200108B1012700E00027D4
:10BFB000D4F8000100B101200490D4F8040100B1CC
:10BFC00001200390D4F80C0100B101200290D4F8B4
:10BFD000100100B101203F4D01902878002600900B
:10BFE000B8F1000F04D0C4F8086101200AF069F923
:10BFF000BAF1000F04D0C4F8246109200AF061F9F5
:10C00000B9F1000F04D0C4F81C610A200AF059F9F4
:10C0100027B1C4F820610B200AF053F92D48C01D48
:10C020000AF030FA00B1FFDFDFF8AC800498012796
:10C0300080B1C4F80873E87818B1EE7000200AF0F7
:10C0400040F9287A022805D1032028720221C8F875
:10C0500000102761039808B1C4F80461029850B138
:10C06000C4F80C61287A032800D0FFDFC8F800600C
:10C070002F72FFF758FE019838B1C4F81061287A82
:10C08000012801D100F05CF86761009838B12E708A
:10C09000287A012801D1FFF772FEFFF744FE0D4810
:10C0A000C01D0AF005FA1049091DC1F800B005B01D
:10C0B000BDE8F08F074810B5C01D0AF0E3F9054947
:10C0C000B0B1012008704FF0E021C1F80002BDE8D6
:10C0D0001040FFE544000020340C00400C040040F8
:10C0E0001805004010ED00E01005024001000001BD
:10C0F000087A012801D1FFF742FEBDE8104024482C
:10C100000AF0D6B970B5224CE41FA07808B90AF03D
:10C11000FDF801208507A861207A0026032809D1AF
:10C12000D5F80C0120B900200AF01AF90028F7D13F
:10C13000C5F80C6126724FF0FF30C5F8080370BDDA
:10C1400070B5134CE41F6079F0B1012803D0A179D8
:10C15000401E814218DA0AF0E6F805460AF0F6FABF
:10C160006179012902D9A179491CA1710DB1216917
:10C1700000E0E168411A022902DA11F1020F06DC3F
:10C180000DB1206100E0E060BDE87040F7E570BDF2
:10C190004B0000200F4A12680D498A420CD1184703
:10C1A0000C4A12680A4B9A4206D101B50AF0A0FA6D
:10C1B0000AF073FDBDE801400749096809580847BE
:10C1C00006480749054A064B70470000000000007A
:10C1D000BEBAFECA5C00002004000020C01300208C
:10C1E000C0130020F8B51D46DDE906470E000AD051
:10C1F00007F00DF82346FF1DBCB231462A460094D5
:10C2000006F019FCF8BDD0192246194602F023F9B0
:10C210002046F8BD70B50D4604461022002102F0FC
:10C2200044F9258117206081A07B40F00A00A073AB
:10C2300070BD4FF6FF720A80014602200AF0A2BCD0
:10C24000704700897047827BD30701D1920703D4DE
:10C25000808908800020704705207047827B920704
:10C2600000D58181704701460020098841F6FE52C1
:10C27000114200D00120704700B50346807BC00703
:10C2800001D0052000BD59811846FFF7ECFFC0071B
:10C2900003D0987B40F004009873987B40F0010035
:10C2A0009873002000BD827B520700D509B14089F8
:10C2B000704717207047827B61F3C3028273704717
:10C2C0002DE9FC5F0E46044601789646012000FAEF
:10C2D00001F14DF6FF5201EA020962684FF6FF7B59
:10C2E0001188594502D10920BDE8FC9FB9F1000F22
:10C2F00005D041F6FE55294201D00120F4E741EA7C
:10C30000090111801D0014D000232B7094F800C087
:10C31000052103221F464FF0020ABCF10E0F76D210
:10C32000DFE80CF0F909252F47646B77479193B448
:10C33000D1D80420D8E7616820898B7B9B0767D51B
:10C3400017284AD30B89834247D38989172901D3F8
:10C35000814242D185F800A0A5F8010032806168D1
:10C3600088816068817B21F002018173C6E004202E
:10C3700028702089A5F801006089A5F803003180A4
:10C38000BCE0208A3188C01D1FFA80F8414524D3C3
:10C39000062028702089A5F801006089A5F803000F
:10C3A000A089A5F805000721208ACDE9000163696D
:10C3B00041E00CF0FF00082810D0082028702089E8
:10C3C000A5F801006089A5F8030031806A1D69465F
:10C3D00004F10C0008F085FB10B15EE01020EDE7E1
:10C3E00030889DF800100844308087E00A202870CB
:10C3F0002089A5F80100328044E00C2028702089B3
:10C40000A5F801006089A5F8030031803AE082E0D8
:10C4100064E02189338800EB41021FFA82F843452A
:10C420003BD3B8F1050F38D30E222A700BEA410135
:10C43000CDE90010E36860882A467146FFF7D2FE16
:10C44000A6F800805AE04020287060893188C01C1E
:10C450001FFA80F8414520D32878714620F03F002C
:10C46000123028702089A5F801006089CDE900020A
:10C4700060882A46E368FFF7B5FEA6F800802878B2
:10C4800040063BD461682089888037E0A0893288E3
:10C49000401D1FFA80F8424501D204273DE01620D6
:10C4A00028702089A5F801006089A5F80300A089FB
:10C4B000CDE9000160882A4671462369FFF792FEA4
:10C4C000A6F80080DEE718202870207A6870A6F8A9
:10C4D00000A013E061680A88920401D405271CE0DB
:10C4E000C9882289914201D0062716E01E212970B1
:10C4F00030806068018821F400510180B9F1000F9B
:10C500000BD061887823002202200AF091FA61683A
:10C510002078887006E0338003276068018821EA6C
:10C52000090101803846DFE62DE9FF4F85B0174647
:10C53000129C0D001E461CD03078C10703D000F0BD
:10C540003F00192801D9012100E000212046FFF712
:10C55000AAFEA8420DD32088A0F57F41FF3908D05C
:10C560003078410601D4000605D5082009B0BDE8A1
:10C57000F08F0720FAE700208DF800008DF8010009
:10C5800030786B1E00F03F0C0121A81E4FF0050A09
:10C590004FF002094FF0030B9AB2BCF1200F75D295
:10C5A000DFE80CF08B10745E7468748C749C74B546
:10C5B00074BA74C874D474E1747474F174EF74EE62
:10C5C00074ED748B052D78D18DF80090A0788DF8DE
:10C5D00004007088ADF8060030798DF8010070789D
:10C5E00000F03F000C2829D00ADCA0F10200092845
:10C5F00063D2DFE800F0126215621A621D62200049
:10C60000122824D004DC0E281BD01028DBD11BE01C
:10C6100016281FD01828D6D11FE02078800701E007
:10C6200020784007002848DAEEE020780007F9E794
:10C630002078C006F6E720788006F3E720784006E9
:10C64000F0E720780006EDE72088C005EAE72088BB
:10C650004005E7E720880005E4E72088C004E1E71B
:10C660002078800729D5032D27D18DF800B0B6F8A2
:10C67000010081E0217849071FD5062D1DD381B225
:10C680007078012803D0022817D102E0C9E0022007
:10C6900000E0102004228DF8002072788DF804202C
:10C6A000801CB1FBF0F2ADF8062092B242438A4200
:10C6B00003D10397ADF80890A6E079E02078000751
:10C6C00076D598B282088DF800A0ADF80420B0EBC2
:10C6D000820F6DD10297ADF8061095E02178C9065A
:10C6E00066D5022D64D381B206208DF800007078E3
:10C6F00002285DD3B1FBF0F28DF80400ADF80620FE
:10C7000092B242438A4253D1ADF808907BE0207840
:10C7100080064DD5072003E0207840067FD508200D
:10C720008DF80000A088ADF80400ADF80620ADF843
:10C73000081068E02078000671D50920ADF80420C3
:10C740008DF80000ADF8061002975DE02188C9055C
:10C7500065D5022D63D381B20A208DF80000707870
:10C7600004285CD3C6E72088400558D5012D56D152
:10C770000B208DF80000A088ADF8040044E021E013
:10C7800026E016E0FFE72088000548D5052D46D3B2
:10C790000C208DF80000A088ADF80400B6F8030066
:10C7A0006D1FADF80850ADF80600ADF80AA02AE0FC
:10C7B00035E02088C00432D5012D30D10D208DF810
:10C7C000000021E02088800429D4B6F80100E08030
:10C7D000A07B000723D5032D21D3307800F03F0044
:10C7E0001B2818D00F208DF80000208840F400503E
:10C7F000A4F80000B6F80100ADF80400ED1EADF895
:10C800000650ADF808B0039769460598F5F784FB24
:10C81000050008D016E00E208DF80000EAE7072595
:10C8200010E008250EE0307800F03F001B2809D00A
:10C830001D2807D0022005990AF0A4F9208800F4E9
:10C8400000502080A07B400708D52046FFF70BFD55
:10C85000C00703D1A07B20F00400A073284685E622
:10C860001FB5022806D101208DF8000088B2694664
:10C87000F5F752FB1FBD0000F8B51D46DDE9064780
:10C880000E000AD006F0C3FC2346FF1DBCB23146A1
:10C890002A46009406F0CFF8F8BDD0192246194672
:10C8A00001F0D9FD2046F8BD2DE9FF4F8DB09B4624
:10C8B000DDE91B57DDF87CA00C46082B05D0E069AC
:10C8C00001F0FEF850B11020D2E02888092140F094
:10C8D000100028808AF80010022617E0E169012084
:10C8E0008871E2694FF420519180E1698872E069B2
:10C8F00042F601010181E06900218173288811213C
:10C9000040F0200028808AF80010042638780A9029
:10C910000A2038704FF0020904F118004D460C90BF
:10C9200001F0C6FBB04681E0BBF1100F0ED1022D25
:10C930000CD0A9EB0800801C80B20221CDE90010C8
:10C9400005AB52461E990D98FFF796FFBDF81610DD
:10C950001A98814203D9F74800790F9004E003D177
:10C960000A9808B138702FE04FF00201CDE90019A4
:10C970000DF1160352461E990D98FFF77DFF1D9885
:10C980000088401B801B83B2C6F1FF00984200D292
:10C9900003461E990BA8D9B15FF00002DDF878C0FC
:10C9A000CDE9032009EB060189B2CDE901C10F9859
:10C9B0000090BDF8161000220D9801F00EFC3870A2
:10C9C00070B1C0B2832807D0BDF8160020833AE0CA
:10C9D0000AEB09018A19E1E7022011B0BDE8F08FE6
:10C9E000BDF82C00811901F0FF08022D0DD09AF836
:10C9F0000120424506D1BDF82010814207D0B8F190
:10CA0000FF0F04D09AF801801FE08AF80180C9481E
:10CA100000680178052902D1BDF81610818009EB64
:10CA200008001FFA80F905EB080085B2DDE90C105B
:10CA300005AB0F9A01F03FFB28B91D980088411BF8
:10CA40004145BFF671AF022D13D0BBF1100F0CD1D1
:10CA5000A9EB0800801C81B20220CDE9000105ABE2
:10CA600052461E990D98FFF707FF1D98058000207C
:10CA700038700020B1E72DE9F8439C46089E134624
:10CA80000027B26B9AB3491F8CB2F18FA1F57F4595
:10CA9000FF3D05D05518AD882944891D8DB200E0B1
:10CAA00000252919B6F83C800831414520D82A4490
:10CAB000BCF8011022F8021BBCF8031022F8021B7C
:10CAC000984622F8024B914606F08FFB4FF00C0C73
:10CAD00041464A462346CDF800C005F078FFF58769
:10CAE000B16B00202944A41D2144088003E001E02B
:10CAF000092700E083273846BDE8F88310B50B8886
:10CB0000848F9C420CD9846BE018048844B18488DB
:10CB100024F40044A41D23440B801060002010BDA9
:10CB20000A2010BD2DE9F0478AB0002590468946BD
:10CB30008246ADF8185007274BE005980688808894
:10CB4000000446D4A8F8006007A801950097029554
:10CB5000CDE903504FF4007300223146504601F0F6
:10CB60003CFB04003CD1BDF81800ADF8200005984E
:10CB700004888188B44216D10A0414D40195029520
:10CB8000039521F400410097049541F480434288C5
:10CB90002146504601F0BFF804000BD1059881886A
:10CBA00041F40041818005AA08A94846FFF7A6FF85
:10CBB0000400DCD000970598029501950395049533
:10CBC0000188BDF81C300022504601F0A4F80A2C60
:10CBD00006D105AA06A94846FFF790FF0400ACD08D
:10CBE000ADF8185004E00598818821F40041818057
:10CBF00005AA06A94846FFF781FF0028F3D00A2CB2
:10CC000003D020460AB0BDE8F0870020FAE710B54F
:10CC10000C46896B86B051B10C218DF80010A18FA4
:10CC2000ADF80810A16B01916946FAF70FFB0020DF
:10CC30004FF6FF71A063E187A08706B010BD2DE914
:10CC4000F0410D460746896B0020069E14460029D8
:10CC500011D0012B0FD1324629463846FFF762FF2B
:10CC6000002808D1002C06D0324629463846BDE8B7
:10CC7000F04100F034BFBDE8F0812DE9FC411446DD
:10CC8000DDE9087C0E46DDE90A15521DBCF800E01E
:10CC900092B2964502D20720BDE8FC81ACF8002094
:10CCA00017222A70A5F80160A5F803300522CDE906
:10CCB00000423B462A46FFF7DFFD0020ECE770B557
:10CCC0000C46154648220021204601F0EEFB04F1F7
:10CCD000080044F81C0F00204FF6FF71E0616184EA
:10CCE0002084A5841720E08494F82A0040F00A00EC
:10CCF00084F82A0070BD4FF6FF720A8001460320B7
:10CD000009F040BF30B585B00C460546FFF77FFF00
:10CD1000A18E284629B101218DF800106946FAF745
:10CD200095FA0020E0622063606305B030BDB0F882
:10CD3000400070476000002090F84620920703D41E
:10CD4000408808800020F4E70620F2E790F84620AB
:10CD50009207EED5A0F84410EBE7014600200988C1
:10CD60000A0700D5012011F0F00F01D040F00200B9
:10CD7000CA0501D540F004008A0501D540F008003D
:10CD80004A0501D540F010000905D2D540F0200039
:10CD9000CFE700B5034690F84600C00701D0062053
:10CDA00000BDA3F842101846FFF7D7FF10F03E0F62
:10CDB00005D093F8460040F0040083F8460013F8CD
:10CDC000460F40F001001870002000BD90F846208A
:10CDD000520700D511B1B0F84200AAE71720A8E722
:10CDE00010F8462F61F3C3020270A2E72DE9FF4F4E
:10CDF0009BB00E00DDE92B34DDE92978289D24D095
:10CE00002878C10703D000F03F00192801D901217B
:10CE100000E000212046FFF7D9FFB04215D3287863
:10CE2000410600F03F010CD41E290CD0218811F4DA
:10CE30007F6F0AD13A8842B1A1F57F42FF3A04D010
:10CE400001E0122901D1000602D504201FB0C5E57A
:10CE5000FA491D984FF0000A08718DF818A08DF856
:10CE60003CA00FAA0A60ADF81CA0ADF850A029782C
:10CE7000994601F03F02701F5B1C04F1180C4FF043
:10CE8000060E4FF0040BCDF858C01F2A7ED2DFE803
:10CE900002F07D7D107D267DAC7DF47DF37DF27DFD
:10CEA000F17DF47DF07D7D7DEF7DEE7D7D7D7D7D71
:10CEB000ED0094F84610B5F80100890701D5032E5E
:10CEC00002D08DF818B01EE34FF40061ADF8501099
:10CED000608003218DF83C10ADF84000D4E2052EAF
:10CEE000EFD1B5F801002083ADF81C00B5F80310B0
:10CEF000618308B1884201D9012079E10020A07244
:10CF000020814FF6FF702084169801F0D1F805209B
:10CF100089F800000220029083460AAB1D9A1699F8
:10CF20001B9801F0C8F890BB9DF82E00012804D092
:10CF3000022089F80100102003E0012089F8010097
:10CF400002200590002203A90BA807F0CAFDE8BB48
:10CF50009DF80C00059981423DD13988801CA1EBD8
:10CF60000B01814237DB02990220CDE900010DF16E
:10CF70002A034A4641461B98FFF77EFC02980BF1B4
:10CF8000020B801C81B217AA029101E09CE228E00A
:10CF900003A90BA807F0A5FD02999DF80C00CDE9A7
:10CFA000000117AB4A4641461B98FFF765FC9DF808
:10CFB0000C000AAB0BEB00011FFA81FB02991D9AD2
:10CFC000084480B2029016991B9800E003E001F03B
:10CFD00072F80028B6D0BBF1020F02D0A7F800B05B
:10CFE0004FE20A208DF818004BE200210391072E32
:10CFF000FFF467AFB5F801002083ADF81C00B5F869
:10D000000320628300283FF477AF90423FF674AF6D
:10D010000120A072B5F8050020810020A073E0690E
:10D0200000F04EFD78B9E16901208871E2694FF4A2
:10D0300020519180E1698872E16942F6010008811E
:10D04000E06900218173F01F20841E986062072030
:10D050006084169801F02CF8072089F80000012060
:10D06000049002900020ADF82A0028E019E29FE128
:10D0700035E1E5E012E2A8E080E043E00298012813
:10D0800014D0E0698079012803D1BDF82800ADF8FB
:10D090000E00049803ABCDE900B04A4641461B9808
:10D0A000FFF7EAFB0498001D80B20490BDF82A0047
:10D0B000ADF80C00ADF80E00059880B202900AABF6
:10D0C0001D9A16991B9800F0F6FF28B90298398826
:10D0D000001D05908142D1D20298012881D0E069DB
:10D0E0008079012803D1BDF82800ADF80E0004981E
:10D0F00003ABCDE900B04A4641461B98FFF7BCFBA5
:10D100000298BDE1072E02D0152E7FF4DAAEB5F8F5
:10D1100001102183ADF81C10B5F8032062830029AB
:10D120003FF4EAAE91423FF6E7AE0121A1724FF023
:10D13000000BA4F808B084F80EB0052E07D0C0B2DA
:10D14000691DE26907F0CBFC00287FF44AAF4FF677
:10D15000FF70208401A906AA14A8CDF800B081E8C8
:10D1600085032878214600F03F031D9A1B98FFF79E
:10D170009BFB8246208BADF81C0082E10120032E30
:10D18000C3D14021ADF85010B5F801102183ADF89E
:10D190001C100AAAB8F1000F00D00023CDE9020349
:10D1A00004921D98CDF80480009038880022401E1B
:10D1B00083B21B9801F011F88DF8180090BB0B207A
:10D1C00089F80000BDF8280035E04FF0010C052E6D
:10D1D0009BD18020ADF85000B5F801102183B5F83F
:10D1E00003002084ADF81C10B0F5007F03D90720A0
:10D1F0008DF8180087E140F47C4222840CA8B8F135
:10D20000000F00D00023CDE90330CDE9018C1D983B
:10D2100000903888401E83B21B9800F0DEFF8DF826
:10D22000180018B18328A8D10220BFE00D2189F889
:10D230000010BDF83000401C22E10000600000201A
:10D24000032E04D248067FF53CAE002018E1B5F865
:10D250000110ADF81C102878400602D58DF83CE08E
:10D2600002E007208DF83C004FF000080320CDE9D4
:10D2700002081E9BCDF810801D980193A6F1030BA8
:10D2800000901FFA8BF342461B9800F044FD8DF886
:10D2900018008DF83C80297849060DD52088C005F6
:10D2A00006D5208BBDF81C10884201D1C4F824801B
:10D2B00040468DF81880E3E0832801D14FF0020A40
:10D2C0004FF48070ADF85000BDF81C002083A4F826
:10D2D00020B01E986062032060841321CDE0052EEB
:10D2E000FFF4EFADB5F80110ADF81C10A28F6AB3D2
:10D2F000A2F57F43FE3B29D008228DF83C2000BFD9
:10D300004FF0000B0523CDE9023BDDF878C0CDF8E6
:10D3100010B01D9A80B2CDF804C040F400430092D2
:10D32000B5F803201B9800F0F6FC8DF83CB04FF4E4
:10D3300000718DF81800ADF85010832810D0F8B1A6
:10D34000A18FA1F57F40FE3807D0DCE00B228DF8DD
:10D350003C204FF6FE72A287D2E7A4F83CB0D2E0A0
:10D3600000942B4631461E9A1B98FFF784FB8DF8DC
:10D37000180008B183284BD1BDF81C00208353E767
:10D3800000942B4631461E9A1B98FFF774FB8DF8CC
:10D390001800E8BBE18FA06B0844831D8DE888036B
:10D3A0004388828801881B98FFF767FC824668E003
:10D3B00095F80180022E70D15FEA080002D0B8F122
:10D3C000010F6AD109208DF83C0007A800908DF864
:10D3D00040804346002221461B98FFF730FC8DF821
:10D3E00042004FF0000B8DF843B050B9B8F1010F77
:10D3F00012D0B8F1000F04D1A18FA1F57F40FF3802
:10D400000AD0A08F40B18DF83CB04FF4806000E0AE
:10D4100037E0ADF850000DE00FA91B98F9F716FFA3
:10D4200082468DF83CB04FF48060ADF85000BAF100
:10D43000020F06D0FC480068C07928B18DF81800AA
:10D4400027E0A4F8188044E0BAF1000F03D081204F
:10D450008DF818003DE007A80090434601222146C0
:10D460001B98FFF7ECFB8DF8180021461B98FFF77F
:10D47000CEFB9DF8180020B9192189F80010012071
:10D4800038809DF83C0020B10FA91B98F9F7DEFE0B
:10D490008246BAF1000F33D01BE018E08DF818E097
:10D4A00031E02078000712D5012E10D10A208DF826
:10D4B0003C00E088ADF8400003201B9909F062FBB6
:10D4C0000820ADF85000C0E648067FF5FAAC4FF0F2
:10D4D000040A2088BDF8501008432080BDF8500091
:10D4E00080050BD5A18FA1F57F40FE3806D11E988F
:10D4F000E06228982063A6864FF0030A5046A5E410
:10D500009DF8180078B1012089F80000297889F881
:10D510000110BDF81C10A9F802109DF8181089F828
:10D520000410052038802088BDF8501088432080E2
:10D53000E4E72DE9FF4F8846087895B00121814046
:10D540004FF20900249C0140ADF820102088DDF83E
:10D550008890A0F57F424FF0000AFF3A06D039B11B
:10D56000000705D5012019B0BDE8F08F0820FAE7C3
:10D57000239E4FF0000B0EA886F800B018995D4668
:10D580000988ADF83410A8498DF81CB0179A0A71B3
:10D590008DF838B0086098F8000001283BD00228C8
:10D5A00009D003286FD1307820F03F001D30307053
:10D5B000B8F80400E08098F800100320022904D194
:10D5C000317821F03F011B31317094F84610090782
:10D5D00059D505ABB9F1000F13D0002102AA82E89A
:10D5E0000B000720CDE90009BDF83400B8F804109D
:10D5F000C01E83B20022159800F0EFFD0028D1D1A3
:10D6000001E0F11CEAE7B8F80400A6F80100BDF853
:10D610001400C01C04E198F805108DF81C1098F84F
:10D620000400012806D04FF4007A02282CD00328E9
:10D63000B8D16CE12188B8F8080011F40061ADF8A8
:10D64000201020D017281CD3B4F84010814218D3E2
:10D65000B4F84410172901D3814212D1317821F056
:10D660003F01C91C3170A6F801000321ADF8341048
:10D67000A4F8440094F8460020F0020084F8460024
:10D6800065E105257EE177E1208808F1080700F4CF
:10D69000FE60ADF8200010F0F00F1BD010F0C00FAE
:10D6A00003D03888228B9042EBD199B9B878C00763
:10D6B00010D0B9680720CDE902B1CDF804B00090D0
:10D6C000CDF810B0FB88BA883988159800F023FB94
:10D6D0000028D6D12398BDF82010401C80294ED0B8
:10D6E00006DC10290DD020290BD0402987D124E059
:10D6F000B1F5807F6ED051457ED0B1F5806F97D166
:10D70000DEE0C80601D5082000E0102082460DA901
:10D7100007AA0520CDE902218DF83800ADF83CB00C
:10D72000CDE9049608A93888CDE9000153460722BF
:10D7300021461598FFF7B8F8A8E09DF81C200121B4
:10D740004FF00A0A002A9BD105ABB9F1000F00D0B7
:10D750000020CDE902100720CDE90009BDF8340012
:10D760000493401E83B2218B0022159800F035FDF2
:10D770008DF81C000B203070BDF8140020E09DF8DF
:10D780001C2001214FF00C0A002A22D113ABB9F161
:10D79000000F00D00020CDE902100720CDE90009DC
:10D7A0000493BDF83400228C401E83B2218B15985F
:10D7B00000F013FD8DF81C000D203070BDF84C00FA
:10D7C000401CADF8340005208DF83800208BADF8F2
:10D7D0003C00BCE03888218B88427FF452AF9DF832
:10D7E0001C004FF0120A00281CD1606AA8B1B8785A
:10D7F000C0073FF446AF00E018E0BA680720CDE963
:10D8000002B2CDF804B00090CDF810B0FB88BA8811
:10D81000159800F080FA8DF81C001320307001205C
:10D82000ADF8340093E00000600000203988208BC0
:10D830008142D2D19DF81C004FF0160A0028A06B3F
:10D8400008D0E0B34FF6FF7000215F46ADF808B096
:10D85000019027E068B1B978C907BED1E18F0DAB5F
:10D860000844821D03968DE80C0243888288018853
:10D8700009E0B878C007BCD0BA680DAB03968DE854
:10D880000C02BB88FA881598FFF7F7F905005ED0FF
:10D89000072D72D076E0019005AA02A92046FFF775
:10D8A0002DF90146E28FBDF80800824201D000291F
:10D8B000F1D0E08FA16B084407800198E08746E033
:10D8C0009DF81C004FF0180A40B1208BC8B1388871
:10D8D000208321461598FFF79AF938E004F11800E3
:10D8E0000090237E012221461598FFF7A8F98DF8B4
:10D8F0001C000028EDD1192030700120ADF8340053
:10D90000E7E7052521461598FFF781F93AE02088D9
:10D9100000F40070ADF8200050452DD1A08FA0F587
:10D920007F41FE3901D006252CE0D8F808004FF0E1
:10D93000160A48B1A063B8F80C10A1874FF6FF7122
:10D94000E187A0F800B002E04FF6FF70A087BDF8B5
:10D95000200030F47F611AD078230022032015992B
:10D9600009F066F898F8000020712088BDF82010B2
:10D97000084320800EE000E007252088BDF8201035
:10D9800088432080208810F47F6F1CD03AE02188E3
:10D99000814321809DF8380020B10EA91598F9F730
:10D9A00055FC05469DF81C000028EBD086F801A028
:10D9B00001203070208B70809DF81C003071052094
:10D9C000ADF83400DEE7A18EE1B118980DAB008808
:10D9D000ADF834002398CDE90304CDE90139206B7B
:10D9E0000090E36A179A1598FFF700FA05460120A0
:10D9F0008DF838000EA91598F9F728FC00B10546F6
:10DA0000A4F834B094F8460040070AD52046FFF742
:10DA1000A4F910F03E0F04D114F8460F20F00400D2
:10DA200020701898BDF83410018028469BE500B599
:10DA300085B0032806D102208DF8000088B269461F
:10DA4000F9F704FC05B000BD10B5384C0B7822681E
:10DA5000012B02D0022B2AD111E013780BB1052B38
:10DA600001D10423137023688A889A802268CB88A6
:10DA7000D38022680B891381498951810DE08B88FD
:10DA800093802268CB88D38022680B8913814B89CD
:10DA900053818B899381096911612168F9F7D6FB5C
:10DAA000226800210228117003D0002800D08120B4
:10DAB00010BD832010BD806B002800D0012070476E
:10DAC0008178012909D10088B0F5205F03D042F6A2
:10DAD0000101884201D10020704707207047F0B54E
:10DAE00087B0002415460E460746ADF8184011E0F1
:10DAF00005980088288005980194811DCDE9024190
:10DB0000072104940091838842880188384600F0F8
:10DB100002F930B905AA06A93046FEF7EFFF002842
:10DB2000E6D00A2800D1002007B0F0BD6000002038
:10DB300010B58B7883B102789A4205D10B885BB11E
:10DB400002E08B79091D4BB18B789A42F9D1B0F87C
:10DB500001300C88A342F4D1002010BD812010BDFB
:10DB6000072826D012B1012A27D103E0497801F015
:10DB7000070102E04978C1F3C20105291DD2DFE89F
:10DB800001F00318080C12000AB1032070470220AC
:10DB9000704704280DD250B10DE0052809D2801E2F
:10DBA000022808D303E0062803D0032803D0052069
:10DBB0007047002070470F20704781207047C0B227
:10DBC00082060BD4000607D5FA48807A4143C01D6F
:10DBD00001EBD00080B270470846704700207047C4
:10DBE00070B513880B800B781C0625D5F14CA47AF0
:10DBF000844204D843F010000870002070BD95687E
:10DC000000F0070605EBD0052D78F54065F3041309
:10DC10000B701378D17803F0030341EA032140F23B
:10DC20000123B1FBF3F503FB15119268E41D00FB22
:10DC3000012000EBD40070BD906870BD37B514466C
:10DC4000BDF804101180117841F0040111709DF8A5
:10DC500004100A061ED5D74AA368C1F30011927AB0
:10DC6000824208D8FE2811D1D21DD2084942184656
:10DC700000F01BFC0AE003EBD00200F007030125D3
:10DC800010789D40A843994008431070207820F0F8
:10DC9000100020703EBD2DE9F0410746C81C0E461D
:10DCA00020F00300B04202D08620BDE8F081C14DD3
:10DCB000002034462E60AF802881AA72E8801AE0E6
:10DCC000E988491CE980810614D4E17800F003005A
:10DCD00041EA002040F20121B0FBF1F201FB120108
:10DCE0002068FFF76CFF2989084480B22881381A20
:10DCF0003044A0600C3420784107E1D40020D4E700
:10DD0000AC4801220189C08800EB400002EB800092
:10DD1000084480B270472DE9FF4F89B01646DDE90F
:10DD2000168A0F46994623F44045084600F054FBF6
:10DD3000040002D02078400703D401200DB0BDE8D4
:10DD4000F08F099805F0E4F802902078000606D5D7
:10DD50009848817A0298814201D88720EEE72246CE
:10DD600001A90298FFF73CFF834600208DF80C00C4
:10DD70004046B8F1070F1AD001222146FFF7F0FE06
:10DD80000028DBD12078400611D502208DF80C0048
:10DD9000ADF81070BDF80400ADF81200ADF81460D5
:10DDA0001898ADF81650CDF81CA0ADF818005FEA31
:10DDB000094004D500252E46A84601270CE021780D
:10DDC000E07801F0030140EA012040F20121B0FBBC
:10DDD000F1F2804601FB12875FEA494009D5B84558
:10DDE00007D1A178207901F0030140EA0120B04277
:10DDF00001D3BE4201D90720A0E7A8191FFA80F974
:10DE0000B94501D90D2099E79DF80C0028B103A967
:10DE10000998F9F719FA002890D1B84507D1A078E8
:10DE20004FEA192161F30100A07084F804901A9858
:10DE300000B10580199850EA0A0027D0199830B12E
:10DE40000BEB06002A46199900F005FB0EE00BEBE0
:10DE500006085746189E099805F0C7F92B46F61D87
:10DE6000B5B239464246009504F0B1FD224601A9FB
:10DE70000298FFF7B5FE9DF80400224620F010003E
:10DE80008DF80400DDE90110FFF7D8FE002055E70A
:10DE90002DE9FF4FDFF81C91824685B0B9F80610D6
:10DEA000D9F8000001EB410100EB810440F20120B0
:10DEB000B2FBF0F1174600FB1175DDE9138B4E46FE
:10DEC00029460698FFF77BFE0346FFF719FF184423
:10DED000B1880C30884202D9842009B02FE7069817
:10DEE000C6B2300603D5B00601D50620F5E7B9F86D
:10DEF0000620521C92B2A9F80620BBF1000F01D0F7
:10DF0000ABF80020B00602D5C4F808800AE0B9F8E2
:10DF100008201A4492B2A9F80820D9F80000891AFA
:10DF20000844A0602246FE200699FFF787FEE770AE
:10DF300025712078390A61F301002A0AA17840F09E
:10DF4000040062F30101A17020709AF80200607170
:10DF5000BAF80000E08000252573300602D599F854
:10DF60000A7000E00127B00601D54FF000084E46C8
:10DF700000244FF007090FE0CDE902580195CDF8D4
:10DF800000900495F1882046129B089AFFF7C3FE83
:10DF90000028A2D1641CE4B2BC42EDD300209CE76F
:10DFA00000B5FFF7ADFE03490C308A88904203D9D3
:10DFB000842000BDFC050020CA88086802EB4203EB
:10DFC00000EB8300521C037823F004030370CA8023
:10DFD000002101730846ECE72DE9F047804600F088
:10DFE000FBF9070005D000264446F74D40F2012911
:10DFF00016E00120BDE8F087204600F0EDF9027838
:10E00000C17802F0030241EA0222B2FBF9F309FBF4
:10E0100013210068FFF7D3FD3044641C86B2A4B21C
:10E02000E988601E8142E7DCA8F10100E8802889C8
:10E03000801B288100203870DCE710B5144631B110
:10E04000491E218004F064FFA070002010BD012053
:10E0500010BD70B50446DC48C188036801E0401C6F
:10E0600020802088884207D200EB400213EB820216
:10E0700002D015786D07F2D580B2884216D2AAB1C7
:10E080005079A072D08820819178107901F0030135
:10E0900040EA0120A081A078E11CFFF7A1FD2061EA
:10E0A0002088401C2080E080002070BD0A2070BDC8
:10E0B0000121018270472DE9FF4F85B04FF6FF79AE
:10E0C0008246A3F8009048681E460D4680788DF879
:10E0D000060048680088ADF8040000208DF80A00AA
:10E0E000088A0C88A04200D304462C8251E038787C
:10E0F000400708D4641C288AA4B2401C288208F176
:10E100000100C0B246E0288A401C2882781D696858
:10E11000FFF70EFDD8BB3188494501D1601E308024
:10E120003188A1EB080030806888A04238D3B878E5
:10E13000397900F0030041EA002801A9781DFFF7B2
:10E14000F7FC20BB298949452ED000223946079883
:10E15000FFF706FDD8B92989414518D1E96803912F
:10E16000B5F80AC0D7F808B05046CDF800C005F0A1
:10E170003CF8DDF800C05A460CF1070C1FFA8CFC85
:10E1800043460399CDF800C004F0EBFB60B1641C7A
:10E19000A4B200208046204600F01EF90700A6D158
:10E1A000641E2C820A2098E674807879B071F88811
:10E1B000B0803978F87801F0030140EA01207081DD
:10E1C000A6F80C80504604F0A3FE3A4606F108017A
:10E1D000FFF706FD306100207FE62DE9FF4F87B095
:10E1E00081461C469246DDF860B0DDF85480089800
:10E1F00000F0F2F8050002D02878400702D4012090
:10E200000BB09CE5484604F083FE2978090605D545
:10E210006D49897A814201D88720F1E7CAF309065E
:10E220002A4601A9FFF7DCFC0746149807281CD0F2
:10E2300000222946FFF794FC0028E1D12878400607
:10E2400013D501208DF808000898ADF80C00BDF832
:10E250000400ADF80E00ADF81060ADF8124002A950
:10E260004846F8F7F1FF0028CAD12978E87801F08C
:10E27000030140EA0121AA78287902F0030240EA6A
:10E280000220564507D0B1F5007F04D9611E8142B6
:10E2900001DD0B20B4E7864201D90720B0E7801BDF
:10E2A00085B2A54200D92546BBF1000F01D0ABF8DD
:10E2B0000050179818B1B9192A4600F0CCF8B8F1F7
:10E2C000000F0DD03E4448464446169F04F09FFF81
:10E2D0002146FF1DBCB232462B46009404F0ABFB36
:10E2E00000208DE72DE9F04107461D4616460846F9
:10E2F00000F072F8040002D02078400701D4012019
:10E30000D3E4384604F004FE2178090605D52E49E9
:10E31000897A814201D88720C7E422463146FFF737
:10E320005FFC65B12178E07801F0030140EA01204B
:10E33000B0F5007F01D8012000E000202870002007
:10E34000B3E42DE9F04107461D461646084600F0A5
:10E3500043F8040002D02078400701D40120A4E44F
:10E36000384604F0D5FD2178090605D51649897A85
:10E37000814201D8872098E422463146FFF75EFCAF
:10E38000FF2D14D02178E07801F0030240EA02204A
:10E3900040F20122B0FBF2F302FB130015B900F2C8
:10E3A000012080B2E070000A60F3010121700020BA
:10E3B0007BE410B50C4600F00FF810B10178490766
:10E3C00004D4012010BD0000FC050020C18821807C
:10E3D0004079A0700020F5E70749CA88824209D336
:10E3E00040B1096800EB40006FF00B0202EB8000C7
:10E3F0000844704700207047FC05002070B50446B3
:10E400000D4621462B460AB9002070BD01E0491C8B
:10E410005B1C501E021E03D008781E78B042F6D056
:10E4200008781E78801BF0E730B50C46014623467D
:10E43000051B954206D202E0521E9D5C8D54002AB7
:10E44000FAD107E004E01D780D70491C5B1C521ED8
:10E45000002AF8D130BDF0B50E460146334680EAB9
:10E46000030404F00304B4B906E002B9F0BD13F8E4
:10E47000017B01F8017B521E01F00307002FF4D14C
:10E480000C461D4602E080CD80C4121F042AFAD239
:10E4900021462B4600BF04E013F8014B01F8014B65
:10E4A000521E002AF8D100BFE0E7F0B50C46014645
:10E4B000E6B204E002B9F0BD01F8016B521E01F0B2
:10E4C0000307002FF6D10B46E5B245EA052545EADC
:10E4D000054501E020C3121F042AFBD2194602E0C1
:10E4E00001F8016B521E002AFAD100BFE3E70000D9
:10E4F00010B508F0F6FDF4F7EBF908F03DFCBDE8C7
:10E50000104008F005BD302834BF012000207047BE
:10E51000202834BF4FF0A0420C4A012300F01F0016
:10E5200003FA00F0002914BFC2F80C05C2F8080570
:10E530007047202834BF4FF0A041044900F01F006D
:10E54000012202FA00F0C1F81805704700030050DC
:10E5500070B50346002002466FF02F050EE09C5C6C
:10E56000A4F130060A2E02D34FF0FF3070BD00EB4D
:10E57000800005EB4000521C2044D2B28A42EED308
:10E5800070BD30B50A230BE0B0FBF3F403FB1404B9
:10E59000B0FBF3F08D183034521E05F8014CD2B2A6
:10E5A000002AF1D130BD30B500234FF6FF7510E0E1
:10E5B000040A44EA002084B2C85C6040C0F303143B
:10E5C000604005EA00344440E0B25B1C84EA40103D
:10E5D0009BB29342ECD330BD2DE9F041FD4B0026B8
:10E5E000012793F864501C7893F868C0B8B183F899
:10E5F0009140A3F8921083F8902083F88E70BCF1BC
:10E60000000F0CBF83F8946083F89450F248806840
:10E61000008804F0EAFDBDE8F04104F07FBA4FF64F
:10E62000FF7083F89140A3F8920083F8902083F85C
:10E630008E70BCF1000F14BF83F8945083F894607F
:10E64000BDE8F0812DE9F041E34D296891F89C2067
:10E650000024012A23D091F89620012A30D091F885
:10E660006C301422DB4E0127012B32D091F88E3012
:10E67000012B4FD091F8A620012A1CBF0020BDE835
:10E68000F08144701F2200F8042B2222A731FFF7EB
:10E69000E2FE286880F8A6400120BDE8F0814470C1
:10E6A0001B220270D1F89D204260D1F8A120826027
:10E6B00091F8A520027381F89C400120BDE8F0810B
:10E6C000447007220270D1F89820426081F8964089
:10E6D000E2E78046447000F8042B20226E31FFF7F9
:10E6E000BAFE88F80870286880F86C4090F86E00D0
:10E6F0000028D1D1B6F87000A6F89800A868417B30
:10E7000086F89A1086F89670008804F06EFD04F082
:10E7100014FAC1E791F86C30012B0BD0447017222A
:10E720000270D1F890204260B1F89420028181F803
:10E730008E40B1E78046447000F8042B20226E31F1
:10E74000FFF789FE88F80870286880F86C4090F818
:10E750006E000028A0D1CDE79F48006890F86C10AB
:10E76000002914BFB0F870004FF6FF70704770B505
:10E77000994C06462068002808BFFFDF0025206866
:10E7800045706660002808BFFFDF206841780029D7
:10E790001CBFFFDF70BDCC220021FFF786FE206882
:10E7A000FF2101707F2180F8381013214184282136
:10E7B00080F86910012180F85C1080F8615009F040
:10E7C00003FABDE8704008F004BB83490968097882
:10E7D00081420CBF0120002070477F48006890F8FC
:10E7E0002200C0F3400070477B48006890F8220088
:10E7F00000F0010070477848006890F82200C0F3EC
:10E80000001070472DE9F04373480024D0F800C091
:10E810009CF82400BCF82230C0F38001C0F3400211
:10E82000114400F001000844C3F3001139B3132B65
:10E830001DD009DC102B02BF684931F81000BDE87B
:10E84000F083122B13D006E0152B08D01D2B04BF2C
:10E850006348BDE8F083FFDF2046BDE8F083614AEE
:10E86000002132F8102010FB0120BDE8F0835E4A41
:10E87000002132F8102010FB0120BDE8F0839CF845
:10E880005E209CF85F1040264FF47A774FF0140812
:10E890004FF02E09022A04BF4AF2D745B5FBF7F51F
:10E8A00010D0012A04BF4AF22F75B5FBF7F510D03E
:10E8B0004AF62315B5FBF7F5082A4DD0042A08BF00
:10E8C0004E4611D02646082A46D0042A0CD0022AE9
:10E8D00048D004F12806042A08D0082A1CBF4FF0AB
:10E8E000190808223CD003E006F5A8764FF0100284
:10E8F00018FB026212FB0052C0EB00103B4D00EB14
:10E90000800005EB8000104413F0010F4FF4C87233
:10E910004FF4BF7504BFC3F34006002E59D0C3F3B4
:10E92000400600F5A5701EB3082904BF174640260F
:10E930000CD0042904BF2F46102607D0022907BF98
:10E9400004F11807042604F12807082606EB8608B8
:10E9500008EB86163E4421E04FF0140806F5A87631
:10E960004022C5E704F118064FF019080422BFE75A
:10E97000082904BF164640270CD0042904BF2E46A0
:10E98000102707D0022907BF04F11806042704F155
:10E990002806082707EB871706EB8706304400F1A7
:10E9A0009C069CF8690001F00C07002F08BF0020AE
:10E9B000304418BF00F5416028D1082904BF16462D
:10E9C00040271CD0042904BF2E46102717D0022947
:10E9D0000EE077E008060020680000208063020057
:10E9E000908913008863020078630200D4FEFFFF61
:10E9F00007BF04F11806042704F128060827C7EB0F
:10EA0000C70707EB470706EB47063044983013F07B
:10EA1000010F17D0082908BF40210CD0042904BFDA
:10EA20002A46102107D0022907BF04F11802042149
:10EA300004F12802082101EB410303EB0111114409
:10EA400008443BE0082904BF134640260CD00429A3
:10EA500004BF2B46102607D0022907BF04F1180374
:10EA6000042604F12803082606EB861603EB86032A
:10EA70001844BCF84030EB2B20D944F2552C0B3312
:10EA800003FB0CF39B0D082907D0042902D00229AF
:10EA900005D008E02A46102108E0402106E004F1F4
:10EAA0001802042102E004F12802082101EB81117F
:10EAB00002EB810101F5A57103FB010000F2671073
:10EAC000BDE8F08300F5A570082904BF1346402671
:10EAD0000CD0042904BF2B46102607D0022907BFFB
:10EAE00004F11803042604F12803082606EB861611
:10EAF00003EB86031844BCF84830EB2BDED944F214
:10EB0000552C0B3303FB0CF39B0D0829C5D00429AE
:10EB1000C0D00229C7D1C2E7FE4840F27121006887
:10EB2000806A48437047FB48006890F83700002827
:10EB300018BF0120704710B5F74C207B022818BF82
:10EB4000032808D1207D04F115010DF0CCFF082821
:10EB50001CBF012010BD207B002816BF022800200A
:10EB60000120BDE8104009F049BDEB49087370472A
:10EB7000E849096881F8300070472DE9F047E54C15
:10EB80002168087B002816BF022800200120487356
:10EB900001F10E0109F01CFD2168087B022816BF57
:10EBA00003280122002281F82F204FF0080081F86D
:10EBB0002D00487B01F10E034FF001064FF00007D6
:10EBC000012804BF5B7913F0C00F0AD001F10E03D6
:10EBD000012804D1587900F0C000402801D000205D
:10EBE00000E0012081F82E00002A04BF91F82200E5
:10EBF00010F0040F07D0087D01F115010DF073FF2F
:10EC0000216881F82D002068476006F01BFB216811
:10EC1000C14D4FF00009886095F82D000DF07FFF81
:10EC2000804695F82F00002818BFB8F1000F04D0D7
:10EC300095F82D000DF038FD68B195F830000028EA
:10EC40001CBF95F82E0000281DD0697B05F10E0031
:10EC500001290ED012E06E734A4605F10E014046BE
:10EC600009F00CFD95F82D1005F10E000EF04EF890
:10EC700009E0407900F0C000402831D0394605F164
:10EC80000E0009F033FD2068C77690F8220010F0DE
:10EC9000040F08BFBDE8F087002795F82D000DF0A0
:10ECA000B9FD050008BFBDE8F08710210EF065FD35
:10ECB000002818BFBDE8F08720683A4600F11C0123
:10ECC000C676284609F0DAFC206800F11C0160686D
:10ECD0000FF00CF96068BDE8F04701210FF021B991
:10ECE0000EF051F84A4605F10E0109F0C7FCCAE7DB
:10ECF000884A1268137B0370D2F80E000860508AAD
:10ED00008880704778B584490446824E407B0873FA
:10ED10003268207810706088ADF8000080B200F092
:10ED20000101C0F3400341EA4301C0F3800341EA1B
:10ED30008301C0F3C00341EAC301C0F3001341EAF9
:10ED40000311C0F3401341EA4311C0F3801041EABC
:10ED500080105084E07D012808BF012507D00228DB
:10ED600008BF022503D0032814BFFFDF0825306841
:10ED700080F85E50607E012808BF012507D0022878
:10ED800008BF022503D0032814BFFFDF0825316820
:10ED900081F85F5091F83500012829D0207B81F857
:10EDA0002400488C1D280CBF002060688862607DAC
:10EDB00081F83700A07B002816BF02280020012020
:10EDC0000875D4F80F00C1F81500B4F81300A1F8C5
:10EDD0001900A07E91F86B2060F3071281F86B2078
:10EDE000E07E012818BF002081F83400002078BDA3
:10EDF00091F85E200420082A08BF81F85E00082DE3
:10EE000008BF81F85F00C9E742480068408CC0F342
:10EE1000001131B1C0F38000002804BF1F207047EB
:10EE200002E0C0F3400109B10020704710F0010F6B
:10EE300014BFEE20FF20704736480068408CC0F3B6
:10EE4000001119B1C0F3800028B102E0C0F3400006
:10EE500008B100207047012070472E490022096840
:10EE60004A664B8C1D2B0CBF81F8682081F8680026
:10EE700070470023274A126882F85D30D164A2F8F7
:10EE80005000012082F85D007047224A002312687A
:10EE900082F85C30A2F858000120516582F85C00CD
:10EEA00070471C49096881F836007047194909689C
:10EEB00081F8610070471748006890F96100704759
:10EEC0001448006890F82200C0F3401070471148C1
:10EED000006890F82200C0F3C0007047012070471E
:10EEE0000C48006890F85F00704770B508F056FE57
:10EEF00008F035FE08F0FCFC08F0AAFD054C20687F
:10EF0000416E491C416690F83300002558B108F065
:10EF10005BFE03E0680000200806002007F059FFB0
:10EF2000206880F833502068457090F8391021B17E
:10EF3000BDE8704004200AF000B890F86810D9B11C
:10EF4000406E814218D8042009F0F7FF206890F83D
:10EF5000220010F0010F07D0A06843220188BDE80D
:10EF600070400120FFF738BBBDE8704043224FF6E8
:10EF7000FF710020FFF730BBBDE87040002009F0B2
:10EF8000DCBF2DE9F04782B00F468146FE4E4FF0C0
:10EF900000083068458C15F0030F10D015F0010FF4
:10EFA00005F0020005D0002808BF4FF0010806D088
:10EFB00004E0002818BF4FF0020800D1FFDF4FF037
:10EFC000000A544615F0010F05F002000DD080B97B
:10EFD00015F0040F0DD04AF00800002F1CBF40F0C0
:10EFE000010040F002044DD09EE010B115F0040F76
:10EFF0000DD015F0070F10D015F0010F05F002002D
:10F0000043D0002808BF15F0040F34D04AE0002F89
:10F0100018BF4AF0090444D141E037B14AF0080072
:10F02000044615F0200F1BD07EE0316805F0200269
:10F03000B1F84800104308BF4AF0010474D04AF008
:10F040001800044615F0200F6ED191F85E1011F0F3
:10F050000C0118BF0121C94361F30000044663E0BD
:10F06000316891F85E1011F00C0118BF012161F3B5
:10F070000000044658E04AF00800002F18BF40F096
:10F08000010451D140F010044EE0002818BF15F0E3
:10F09000040F07D0002F18BF4AF00B0444D14AF0E8
:10F0A000180441E015F0030F3DD115F0040F3AD0DC
:10F0B00077B130684AF0080490F85E0010F00C0157
:10F0C00018BF012161F3410415F0200F24D02BE07B
:10F0D000306805F02002B0F84810114308BF4AF02C
:10F0E000030421D04AF0180415F0200F0AD000BF05
:10F0F00090F85E0010F00C0018BF0120C04360F3D0
:10F10000410411E090F85E1011F00C0118BF0121CC
:10F11000C94361F30004EBE710F00C0018BF0120B5
:10F1200060F3000400E0FFDF15F0400F1CD0CFB902
:10F130003168B1F84800002804BF488C10F0010F76
:10F140000BD110F0020F08BF10F0200F05D115F001
:10F15000010F08BF15F0020F04D091F85E0010F007
:10F160000C0F01D144F040047068A0F800A00178B1
:10F1700021F0200101704FF007010EF083FE41469F
:10F1800070680FF076F8214670680FF07EF814F082
:10F19000010F0CD04FF006034FF000027B4970685E
:10F1A0000FF04DF83068417B70680EF0ADFE14F042
:10F1B000020F18D0D6E90010B9F1000F4FF0060386
:10F1C0004FF0010207D01C310FF039F801217068AF
:10F1D0000EF0A7FE07E015310FF031F83068017D21
:10F1E00070680EF09EFE14F0040F18BFFFDF14F0DD
:10F1F000080F19D0CDF800A03068BDF80020022318
:10F20000B0F86A1061F30B02ADF8002090F86B00C3
:10F21000032201099DF8010061F307108DF8010038
:10F22000694670680FF00BF8012F62D13068B0F8B2
:10F230004810E1B390F82200C0F34000B8BB7068FA
:10F240000FF013F8401CC7B23068C7F1FF05B0F8E3
:10F250004820B0F85A10511AA942B8BF0D46AA4228
:10F260003BD990F8220010F0010F36D144F0100481
:10F27000214670680FF009F8F81CC0B2ED1E284452
:10F2800082B23068B0F86A10436EC1F30B0151FAD4
:10F2900083F190F860303E4F1944BC460023E1FBF7
:10F2A00007C31B096FF0240C03FB0C1100E020E0E6
:10F2B00080F8601090F85F00012101F01EF90090C5
:10F2C000BDF800009DF80210032340EA01400190C0
:10F2D000042201A970680EF0B2FF3068AAB2416C36
:10F2E00070680FF000F83068B0F85A102944A0F8A0
:10F2F0005A1014F0400F06D0D6E900100123062260
:10F3000061310EF09CFF14F0200F18BFFFDF0020CA
:10F31000002818BFFFDF02B0BDE8F0872DE9F043F9
:10F32000194C89B02068002808BFFFDF20684178A9
:10F33000002944D10178FF2941D0002680F83160AE
:10F34000A0F85A60867080F83960304608F0A0FB5B
:10F35000104802AD00F1240191E80E1085E80E106E
:10F36000D0E90D10CDE9061002A808F07FFB08F0E7
:10F370000EF8206890F9610008F0E2F8064808F0FD
:10F38000E5F806480CE000006800002016060020A2
:10F3900053E4B36E6C630200746302007163020095
:10F3A00008F050FB606808F076FB206890F82400B5
:10F3B00010F0010F07D0252008F0D0F80AE009B0BE
:10F3C0000C20BDE8F08310F0020F18BF262069D092
:10F3D00008F0C4F8206890F85E10252007F095FF2B
:10F3E000206880F82C6008F04DFB206890F85E10D3
:10F3F000002008F07AF90F21052008F04AF820686B
:10F4000090F82E10002901BF90F82F10002990F8D5
:10F41000220010F0040F74D005F014FF0546206898
:10F420002946806806F0FDFBDFF82884074690FB3C
:10F43000F8F008FB10704142284605F0EAFB21680D
:10F44000886097FBF8F04A68104448600DF048FB6C
:10F4500001462068426891426ED8C0E90165FE4DC0
:10F460004FF0010895F82D000DF059FB814695F8F5
:10F470002F000127002818BFB9F1000F04D095F81C
:10F480002D000DF011F9A0B195F8300000281CBF37
:10F4900095F82E00002824D0687B05F10E01012884
:10F4A00015D019E010F0040F14BF2720FFDF8FD113
:10F4B00090E73A466F7305F10E01484609F0DEF811
:10F4C00095F82D1005F10E000DF020FC09E04879AB
:10F4D00000F0C000402815D0414605F10E0009F0AB
:10F4E00005F9206890F8220010F0040F24D095F858
:10F4F0002D000DF08FF905001ED010210EF03DF902
:10F5000040B119E00DF03FFC3A4605F10E0109F05B
:10F51000B5F8E6E720683A4600F11C01C7762846B0
:10F5200009F0ACF8206800F11C0160680EF0DEFC08
:10F53000012160680EF0F5FC2068417B0E3007F079
:10F540008AFF206890F85C1061B3B0F85810A0F8FA
:10F550004810416D416490F82210C1F30011F1B9D7
:10F56000B0F86A000221C0F30B05ADF80050684600
:10F5700007F002F828B1BDF80000C0F30B00A84264
:10F5800004D1BDF80000401CADF800002168BDF8B2
:10F590000000B1F86A2060F30B02A1F86A2020682D
:10F5A00080F85C60206890F85D1039B1B0F85010B8
:10F5B000A0F84010C16CC16380F85D60B0F86A10BB
:10F5C000426EC1F30B0151FA82F190F86020DFF82E
:10F5D0008CC2114463460022E1FB0C3212096FF029
:10F5E000240302FB031180F860100DF0FCFA0321E4
:10F5F00060680DF07BFB216881F8330009B00020C2
:10F60000BDE8F0839649886070472DE9F043944C3B
:10F6100083B0226892F831303BB1508C1D2808BF6E
:10F62000FFDF03B0BDE8F0435FE401260027F1B13E
:10F63000054692F8600007F091FF206890F85F108F
:10F64000FF2007F062FE20684FF4A57190F85F205C
:10F65000002008F010F9206890F8221011F0030F34
:10F6600000F02C81002D00F0238100F027B992F8E2
:10F6700022108046D07EC1F30011002956D00546E5
:10F6800060680780017821F020010170518C1329F6
:10F6900037D01FDC102908BF022144D0122908BF2F
:10F6A000062140D0FFDF6C4D606805F10E010EF0C1
:10F6B0000FFC697B60680EF027FC2068418C1D29D7
:10F6C00018BF152963D0B0F84820416C60680EF06F
:10F6D00034FC5CE0152918BF1D29E3D14FF001016E
:10F6E0000EF0D0FB6068017841F0200101702168C4
:10F6F00085B11C310EF0FAFB012160680EF011FC9F
:10F70000D1E700210EF0BEFB6068017841F02001D6
:10F710000170C8E715310EF0E9FB2068017D6068D3
:10F720000EF0FFFBBFE70EF0ADFBBCE70021FFF7DB
:10F7300028FC6068C17811F03F0F28D0017911F0E2
:10F74000100F24D00EF09CFB2368024693F824107F
:10F75000C1F38000C1F3400C604401F00101084492
:10F7600093F82C10C1F3800CC1F34005AC4401F0B8
:10F7700001016144401AC1B293F85E0000F0BDFE81
:10F78000009003230422694660680EF058FD20684B
:10F79000002590F8241090F82C0021EA000212F0C5
:10F7A000010F18BF01250ED111F0020F04D010F087
:10F7B000020F08BF022506D011F0040F03D010F08D
:10F7C000040F08BF0425B8F1000F2BD0012D1BD06A
:10F7D000022D08BF26201BD0042D14BFFFDF2720D9
:10F7E00016D0206890F85E10252007F08EFD206866
:10F7F00090F82210C1F3001169B101224FF4967103
:10F80000002008F038F80DE0252007F0A7FEE8E713
:10F8100007F0A4FEE5E790F85E204FF49671002013
:10F8200008F029F8206890F82C10294380F82C1053
:10F8300090F8242032EA01011CD04670418C132933
:10F840002BD026DC102904BF03B0BDE8F0831229B9
:10F8500023D007E040420F000806002053E4B36EB7
:10F8600068000020C1F30010002818BFFFDF03B0BC
:10F87000BDE8F083418C1D2908BF80F82C70DCD0D6
:10F88000C1F30011002914BF80F8316080F8317095
:10F89000D3E7152918BF1D29DBD190F85E2003B0EE
:10F8A0004FF00101BDE8F043084608F0D2B900BFAF
:10F8B00090F85F200121084608F0CBF92168002D5F
:10F8C000C87E7CD04A8C3D46C2F34000002808BF69
:10F8D00047F0080512F0400F18BF45F0400500281A
:10F8E00019BFD1F83C90B1F84080D1F84490B1F8FC
:10F8F00048806068072107800EF0C4FA0021606824
:10F900000EF0B7FC294660680EF0BFFC15F0080F3A
:10F9100017D02068BDF800100223B0F86A2062F307
:10F920000B01ADF8001090F86B00032201099DF85F
:10F93000010061F307108DF80100694660680EF060
:10F940007EFC60680EF05AFB2168C0F1FE00B1F841
:10F950005A20A8EB02018142A8BF0146CFB2D019BC
:10F96000404544D245F0100160680EF08EFC60689E
:10F970000EF044FB2168C0F1FE00B1F85A10A8EB6C
:10F9800001018142A8BF0146CFB260680EF06DFC54
:10F990003844421C2068B0F86A10436EC1F30B0172
:10F9A00051FA83F190F86030FE4D1944AC460023C3
:10F9B000E1FB05C34FEA131C6FF0240300E03CE0B9
:10F9C0000CFB031180F8601090F85F00012100F03B
:10F9D00094FD0090BDF800009DF80210032340EA5A
:10F9E00001400190042201A960680EF028FC216802
:10F9F00091F8220010F0400F05D00123062261315A
:10FA000060680EF01CFC20683A46B0F85A0000EB23
:10FA1000090160680EF067FC2068B0F85A1039449C
:10FA2000A0F85A1008F0E7FC002818BFFFDF206894
:10FA30004670867003B0BDE8F0830121FFF7A1FA9C
:10FA4000F0E7D94810B50068417841B90078FF283F
:10FA500005D000210846FFF7D8FD002010BD08F0B2
:10FA60009DF808F07CF807F043FF07F0F1FF0C2049
:10FA700010BD2DE9F041CC4D0446174628680E46CE
:10FA800090F86C00002818BFFFDF2868002F80F86E
:10FA90006E7018BFBDE8F0812188A0F870106188F1
:10FAA000A0F88610A188A0F88810E188A0F88A1034
:10FAB00094F88C1180F88C1090F82F10002749B121
:10FAC000427B00F10E01012A04D1497901F0C00105
:10FAD000402935D090F8301041B1427B00F10E0141
:10FAE000012A04BF497911F0C00F29D000F17A0032
:10FAF000F3F782FA6868FF2E0178C1F3801161760E
:10FB0000D0F80310C4F81A10B0F80700E083286892
:10FB10001ED0C0F88010E18BA0F8841000F17402B0
:10FB2000511E30460DF004F8002808BFFFDF28689A
:10FB300090F8731041F0020180F87310BDE8F08175
:10FB4000D0F80E10C0F87A10418AA0F87E10D1E7E4
:10FB5000C0F88070A0F88470617E80F87310D4F8CB
:10FB60001A104167E18BA0F87810BDE8F08170B5FC
:10FB70008D4C0125206890F82200C0F3C00038B1F8
:10FB80003C22FF21A068FFF774FF206880F86C50CA
:10FB9000206890F8220010F0010F1CBFA0680188B7
:10FBA0004FF03C0212BF01204FF6FF710020FEF71C
:10FBB00013FD206880F8395070BD7B49096881F8D1
:10FBC000320070472DE9F041002509F082F9002844
:10FBD00000F00A81744C2068417801270026012931
:10FBE00006D0022901D003297ED0FFDFBDE8F081D5
:10FBF000817802260029418C46D0C1F34002002AB8
:10FC000008BF11F0010F70D090F85F204FF0010194
:10FC10004FF0000008F01DF8216891F82200C0F3B1
:10FC20004000002814BF0C20222091F85F1007F03C
:10FC30006CFB2068467090F8330058B107F0B5F8B7
:10FC4000206890F85F0010F00C0F0CBF402045209A
:10FC500007F0B0FF206890F83400002818BF07F0C4
:10FC6000C8FF216891F85F0091F8691010F00C0F3F
:10FC700008BF0021962007F02FFF08F0B3FB0028F3
:10FC800018BFFFDFBDE8F081C1F3001282B1102977
:10FC90003FD090F8330020B107F087F8402007F0FC
:10FCA00089FF206890F8221011F0040F36D043E04D
:10FCB00090F8242090F82C309A422AD1B0F84800CD
:10FCC000002808BF11F0010F05D111F0020F08BF85
:10FCD00011F0200F65D04FF001014FF00000FFF749
:10FCE00094FC2068418C01E040E034E011F0010F09
:10FCF00004BFC1F34001002907D1B0F85A10B0F891
:10FD00004820914218BFBDE8F08180F83170BDE80D
:10FD1000F081BDE8F0410021012076E490F8371031
:10FD2000012914BF0329102545F00E0190F85E202B
:10FD30004FF0000007F08DFF206890F83400002895
:10FD400018BF07F056FF0021962007F0C5FE206877
:10FD50004670BDE8F081B0F85A10B0F84800814212
:10FD600042D0BDE8F041012108464EE4817809B354
:10FD7000418C11F0010F22D080F86C7090F86E2049
:10FD8000B0F870100120FEF727FC2068467007F0DD
:10FD900005FF07F0E4FE07F0ABFD07F059FE032076
:10FDA00004E021E053E4B36E68000020BDE8F041B8
:10FDB00009F0C3B88178BDE8F041012025E411F0D5
:10FDC000020F04BFFFDFBDE8F081B0F85A10B0F8B1
:10FDD0004000814208D001210846FFF716FC216847
:10FDE00003204870BDE8F081BDE8F041FFF77DB821
:10FDF000FFF77BB810B5FE4C206890F8341049B17D
:10FE0000383007F005FF18B921687F2081F83800E5
:10FE100007F0E5FE206890F8330018B107F0D4FE33
:10FE200006F0D7FF09F055F8A8B1206890F8221025
:10FE3000C1F3001179B14078022818BFFFDF00211B
:10FE40000120FFF7E2FB2068417800291EBF4078BF
:10FE50000128FFDF10BDBDE81040FFF746B82DE9CF
:10FE6000F047E34C0F4680462168B8F1030F488CF9
:10FE700008BFC0F3400508D000F0010591F832003A
:10FE8000002818BF4FF0010901D14FF0000907F019
:10FE900059FB0646B8F1030F0CBF4FF002084FF0B4
:10FEA000010835EA090008BFBDE8F087206890F82E
:10FEB000330068B10CF07AFE38700146FF2807D095
:10FEC0006068C01C0CF04BFE38780CF07CFE0643DA
:10FED00060680178C1F3801221680B7D9A4208D1D5
:10FEE0000622C01C1531FEF789FA002808BF012040
:10FEF00000D000203978FF2906D0C8B9206890F8D2
:10FF00002D00884216D113E0A0B1616811F8030BEF
:10FF1000C0F380100CF0E7FD05460CF047FF38B148
:10FF200028460CF077FC18B110210DF026FC08B122
:10FF3000012000E00020216891F8221011F0040F48
:10FF400001D0F0B11AE0CEB9AA4890F837000028E5
:10FF500018BF404515D1616811F8030BC0F380103C
:10FF60000CF0C1FD04460CF021FF38B120460CF026
:10FF700051FC18B110210DF000FC10B10120BDE8BA
:10FF8000F0870020BDE8F0872DE9F04F984D04463A
:10FF900083B0286800264078022818BFFFDF286851
:10FFA0004FF07F0B90F8341049B1383007F030FE35
:10FFB000002804BF286880F838B007F010FE686891
:10FFC0000DF082FF8046002C00F0458207F05DFABC
:10FFD000002800F04082012400274FF0FF09B8F10B
:10FFE000050F1ED1686890F8240000F01F0010284B
:10FFF00017D9286890F8360098B18DF800906946B6
:020000040001F9
:100000000520FFF72CFF002800F02582286880F8E3
:10001000A64069682222A730C91CFEF71CFA00F02E
:100020001ABA68680EF0DBF8002800F01482404627
:10003000DFF8C0814FF0030A062880F01E82DFE857
:1000400000F0FCFCFC03FCFB8DF8009069460320EB
:10005000FFF705FF002800F0F180296891F83400CF
:1000600010B191F89C00D8B12868817801294DD051
:100070006868042107800DF005FF08F10E0168682B
:100080000DF026FF98F80D1068680DF03DFF286808
:10009000B0F84020C16B68680DF073FF00F063B9E1
:1000A0009DF8000081F89C400A7881F89D20FF2887
:1000B0000FD001F19F029E310CF03AFD002808BFDD
:1000C000FFDF286890F89E1041F0020180F89E1032
:1000D0000DE068680278C2F3801281F89E20D0F8A3
:1000E0000320C1F89F20B0F80700A1F8A3002868FA
:1000F00000F1A50490F838007F2808BFFFDF2868CA
:1001000090F83810217080F838B0ADE790F82200F0
:100110000721C0F3801938480479686869F38614A8
:1001200007800DF0AFFE002168680EF0A2F82146AE
:1001300068680EF0AAF80623002208F10E0168682C
:100140000EF07DF82868417B68680DF0DDFE686878
:100150000DF054FF2968B1F84020C0F1FE018A4239
:10016000B8BF1146CFB2BA423CD9F81EC7B244F06C
:10017000100B594668680EF088F868680EF075F83C
:10018000384400F101082868B0F86A10426EC1F3E3
:100190000B0151FA82F190F86020184C0A44A446F1
:1001A0000023E2FB04C319096FF0240301FB0321C0
:1001B00080F8601090F85F004246012100F09DF940
:1001C0000190BDF804009DF80610032340EA0140A9
:1001D0000290042202A968680EF031F85946686856
:1001E0000EF053F8B9F1000F0FD0D5E9001007E079
:1001F00068000020080600206C63020053E4B36E20
:100200000123062261310EF01AF828683A46C16BC4
:1002100068680EF068F82868A0F85A70B0F84010C6
:100220008F420CBF0121002180F8311008F0E3F863
:10023000002818BFFFDF96E007E01EE128688078FD
:10024000002840F00A8100F006B98DF80090686837
:100250000178C1F38019D0F803100191B0F80700BC
:10026000ADF8080069460520FFF7F9FD0028286869
:100270007DD0817800297CD090F85FB0D5E9010469
:10028000D0F80F10C4F80E10B0F813106182417D41
:100290002175817D6175B0F81710E182B0F81910F1
:1002A0006180B0F81B10A180B0F81D10E18000F152
:1002B0001F0104F1080015F042FF686890F824104F
:1002C00001F01F01217690F82400400984F88C0188
:1002D00084F864B084F865B01BF00C0F0CBF0021EB
:1002E000012104F130000EF02EFA2868002290F867
:1002F000691084F8661090F8610084F867009DF832
:100300000010A868FFF7B5FB022008F016FEB04801
:100310000DF1040B08210468686807800DF0B2FD38
:10032000002168680DF0A5FF214668680DF0ADFF5B
:100330000623002208F10E0168680DF080FF28688E
:10034000417B68680DF0E0FD494668680DF0E9FD05
:1003500006230122594668680DF071FF08F04BF83A
:10036000002818BFFFDF286880F801A077E06DE063
:10037000FFE76868D5F808804FF00109027898F81F
:100380000D10C2F34012114088F80D10D0F80F1074
:10039000C8F80E10B0F81310A8F81210417D88F8B4
:1003A0001410817D88F81510B0F81710A8F81610F1
:1003B000B0F81910A8F80210B0F81B10A8F8041033
:1003C000B0F81D10A8F8061000F11F0108F1080090
:1003D00015F0B5FE686890F8241001F01F0188F848
:1003E000181090F824000021400988F88C0188F842
:1003F000649088F8659008F130000EF0A4F9286840
:10040000002290F8691088F8661090F8610088F86A
:1004100067009DF80010A868FFF72BFB286880F89C
:100420006C4090F86E20B0F870100120FEF7D4F800
:100430002868477007F0B2FB07F091FB07F058FA05
:1004400007F006FB012008F078FD08E090F8220094
:10045000C0F3001008B1012601E0FEF746FD286850
:1004600090F8330018B107F0AFFB06F0B2FC66B1AC
:1004700000210120FFF7C9F810E0286890F8220059
:10048000C0F300100028E8D0E5E72868817801294A
:1004900004D190F85F10FF2006F037FF28684178FC
:1004A000002919BF4178012903B0BDE8F08F4078D9
:1004B000032818BFFFDF03B0BDE8F08F70B5454CCF
:1004C00006460D462068807858B106F045FE216842
:1004D0000346304691F85F202946BDE8704009F098
:1004E000E3BA06F039FE21680346304691F85E20F3
:1004F0002946BDE8704009F0D7BA78B50C4600210E
:100500000091082804BF4FF4C87040210DD0042882
:1005100004BF4FF4BF70102107D0022807BF01F1BC
:100520001800042101F128000821521D02FB0106D8
:1005300028489DF80010006890F8602062F30501DB
:1005400041F040058DF8005090F85F0001282AD056
:1005500002282FD004281CBF0828FFDF30D000BF9E
:1005600025F080008DF80000C4EB041000EB800043
:100570004FF01E0101EB800006FB04041648844284
:1005800028BFFFDF1548A0FB0410BDF801100009CB
:1005900060F30C01ADF80110BDF800009DF80210E9
:1005A00040EA014078BD9DF8020020F0E0008DF89F
:1005B0000200D5E79DF8020020F0E000203004E0C2
:1005C0009DF8020020F0E00040308DF80200C7E7FF
:1005D0006C63020068000020C4BF0300898888881B
:1005E0000178406829B190F82C1190F88C0038B946
:1005F00001E001F0B3BD19B1042901D00120704719
:100600000020704770B50C460546062102F0BAFC82
:10061000606008B1002006E00721284602F0B2FC25
:10062000606018B101202070002070BD022070BDF4
:100630002DE9FC470C4606466946FFF7E3FF002814
:100640007DD19DF8000050B1FEF786F8B0427CD015
:10065000214630460AF002FC002873D12DE00EF04E
:10066000BBF9B04271D02146304613F0DAFA0028C7
:1006700068D1019D95F8F00022E0012000E0002003
:10068000804695F839004FF0010A4FF00009F0B1AB
:1006900095F83A0080071AD584F8019084F800A0F4
:1006A00084F80490E68095F83B102172A98F61814F
:1006B000E98FA18185F8399044E0019D95F82C01DE
:1006C00070350028DBD1287F0028D8D0D5E7304608
:1006D00002F09DFD070000D1FFDF384601F0ABFFBF
:1006E00040B184F801900F212170E680208184F8C8
:1006F00004A027E0304602F078FD070000D1FFDFBC
:10070000B8F1000F21D0384601F0EDFFB8B19DF8E7
:10071000000038B90198D0F818014188B14201D1E0
:1007200080F80090304607F0D1FE84F801900C214B
:10073000217084F80490E680697F217200E004E073
:1007400085F81C900120BDE8FC870020FBE71CB564
:100750006946FFF757FF00B1FFDF684601F00AFD69
:10076000FE4900208968A1F8F2001CBD2DE9FC417A
:1007700004460E46062002F0ADFB0546072002F0B7
:10078000A9FB2844C7B20025A8463E4417E02088AC
:10079000401C80B22080B04202D34046A4F80080C2
:1007A00080B2B84204D3B04202D20020BDE8FC813E
:1007B0006946FFF727FF0028F8D06D1CEDB2AE4266
:1007C000E5D84FF6FF7020801220EFE738B54FF6DE
:1007D000FF70ADF800000DE00621BDF8000002F04A
:1007E000E3FB04460721BDF8000002F0DDFB0CB17D
:1007F00000B1FFDF00216846FFF7B8FF0028EBD00B
:1008000038BD70B507F0D0FE0BF057FFD44C4FF653
:10081000FF76002526836683D2A0257001680079C3
:10082000A4F14002657042F8421FA11C1071601CC7
:1008300013F013FB1B2020814FF4A4716181A08170
:10084000E1810721217761770321217404226274F9
:100850006082A082A4F13E00E18205704680BF481C
:100860000C300570A4F110000570468084F820500B
:1008700070BD70B5B94C16460D466060217007F02A
:100880000BFEFFF7A3FFFFF7BCFF207810F0DFFFA0
:10089000B6480EF0F4F92178606813F083FA2078F6
:1008A0000BF016F9284608F0CBFEB048FDF75FFFC5
:1008B000217860680AF0ACFB3146207813F048FDDF
:1008C000BDE870400BF0F9BE10B501240AB100205C
:1008D00010BD21B1012903D00024204610BD022102
:1008E0000DF03EFDF9E710B503780446002B406893
:1008F00013460A46014609D05FF001000DF0DDF80D
:100900006168496A884203D9012010BD0020F5E7DB
:10091000002010BD2DE9F04117468A781E4680461A
:1009200042B11546C87838B10446690706D52AB1E0
:10093000012104E00725F5E70724F6E70021620717
:1009400002D508B1012000E00020014206D00122BA
:1009500011464046FFF7C7FF98B93DE051B100226C
:1009600001214046FFF7BFFF58B9600734D5012287
:10097000114620E060B1012200214046FFF7B3FF9D
:1009800010B10920BDE8F081680725D5012206E0F5
:1009900068074FEA44700AD5002814DB00220121C1
:1009A0004046FFF7A0FFB8B125F0040514E0002889
:1009B00012DA012200214046FFF795FF60B100BF27
:1009C00024F0040408E0012211464046FFF78BFFA3
:1009D00010B125F00405F3E73D7034700020D1E735
:1009E00070B58AB0044600886946FFF70BFE002800
:1009F00006D1A08830B1012804D0022802D01220EC
:100A00000AB070BD04AB03AA21466846FFF782FF17
:100A10000500F5D19DF8001001200026002901995C
:100A200006D081F8C501019991F81012B1BB2DE0F3
:100A300081F82F01019991F8561139B9019991F86E
:100A40002E1119B9019991F8971009B13A2519E0B9
:100A50000199059681F82E01019A9DF80C0082F803
:100A60003001019B9DF8102083F83121A388019C5F
:100A7000A4F832318DF814008DF8152005AA002055
:100A80000DF05DF8019880F82F6126E0019991F84A
:100A9000C41119B9019991F8971009B13A2519E0D3
:100AA0000199059681F8C40101989DF80C2080F801
:100AB000C621019B9DF8100083F8C701A388019C03
:100AC000A4F8C8318DF814208DF8150005AA01206E
:100AD0000DF035F8019880F8C561284690E710B50B
:100AE00004460020A17801B90120E2780AB940F05B
:100AF000020001F04EFB002803D12046BDE8104063
:100B00006EE710BD70B5044691F8650091F8663047
:100B10000D4610F00C0F00D100232189A0880CF0A5
:100B2000C3FF696A814229D2401A401CA18840084B
:100B3000091A8AB2A2802189081A2081668895F84C
:100B4000641010460CF08EFF864200D23046608062
:100B5000E68895F8651020890AE0000074000020FE
:100B600014080020FFFFFFFF1F000000D406002034
:100B70000CF078FF864200D23046E08070BDF0B5C0
:100B800085B00D46064603A9FFF73CFD00282DD190
:100B90009DF80C0060B300220499FB20B1F84E30A0
:100BA000FB2B00D30346B1F85040FB20FB2C00D3B5
:100BB0000446DFF85CC59CE8811000900197CDF8F1
:100BC00008C0ADF80230ADF806406846FFF79AFF5E
:100BD0006E80BDF80400E880BDF808006881BDF8AB
:100BE0000200A880BDF806002881002005B0F0BDF5
:100BF0000122D1E72DE9F04186B00446008869461C
:100C0000FFF700FD002876D12189E08801F0DAFAAB
:100C1000002870D1A188608801F0D4FA00286AD138
:100C20002189E08801F0C5FA002864D1A188608894
:100C300001F0BFFA07005ED1208802A9FFF79FFFED
:100C400000B1FFDFBDF8101062880920914252D335
:100C5000BDF80C10E28891424DD3BDF81210BDF8DA
:100C60000E2023891144A2881A44914243D39DF84F
:100C70000010019D4FF00008012640F6480041B1E8
:100C800085F8BB61019991F8FC1105F5DD7541B955
:100C90001AE085F82561019991F84A1105F59275D8
:100CA00009B13A2724E0E18869806188E9802189D7
:100CB000814200D30146A980A188814200D2084622
:100CC0002881012201990FE0E18869806188E9802B
:100CD0002189814200D30146A980A188814200D2A6
:100CE00008462881019900222846FFF70BFF2E7045
:100CF00085F80180384606B044E67BE770B50446C7
:100D00000DF020FEB0B12078182811D120790128EB
:100D10000ED1E088062102F035F9040008D02088C1
:100D200007F0D4FB2088062102F03EF900B1FFDF76
:100D3000012070BDF74D28780028FAD00026667093
:100D40001420207020223146201DFDF7AEFB02202A
:100D500020712E70ECE710B50446FDF773FC0028F7
:100D600013D0207817280FD1207968B1E0880721A7
:100D700002F008F940B1008807F0A8FBE0880721DD
:100D800002F012F900B1FFDF012010BD2DE9F0479C
:100D90005FEA000800D1FFDFDE4802211A308146F9
:100DA000FFF7E4FC00B1FFDFDA4C0620678B02F0AE
:100DB00091F80546072002F08DF82844C5B2681C5A
:100DC000C6B2608BB04203D14046FFF7C4FF58B9AA
:100DD000608BA84203D14046FFF790FF20B9608B9B
:100DE0004146FFF725FC38B1404601F0F9F90028EB
:100DF000E7D10120BDE8F08702214846FFF7B6FCA5
:100E000010B9608BB842DCD14046BDE8F04713F022
:100E1000E4BA10B501F049F908B10C2010BD0BF08F
:100E2000A0FC002010BD10B50446007818B10128C0
:100E300001D0122010BD01F049F920B10BF042FEA3
:100E400008B10C2010BD207801F009F9E21D04F171
:100E50001703611CBDE810400BF029BD10B5044616
:100E600001F023F908B10C2010BD207828B1012829
:100E700003D0FF280BD0122010BD01F0F0F8611C48
:100E80000BF02FFC08B1002010BD072010BD012081
:100E90000BF061FCF7E710B50BF017FE08B100206E
:100EA00010BD302010BD10B5044601F00FF908B197
:100EB0000C2010BD20460BF002FE002010BD10B526
:100EC00001F004F920B10BF0FDFD08B10C2010BDBC
:100ED0000BF052FD002010BDFF2181704FF6FF7115
:100EE00081808D4949680A7882718A88028149889F
:100EF000418101214170002070477CB50025022A04
:100F000019D015DC12F10C0F15D009DC12F1280FE5
:100F100011D012F1140F0ED012F1100F11D10AE0FE
:100F200012F1080F07D012F1040F04D04AB902E001
:100F3000D31E052B05D8012806D0022808D0032887
:100F40000AD0122528467CBD1046FDF7AFFFF9E711
:100F500010460DF08FFEF5E7084614466946FFF788
:100F600051FB08B10225EDE79DF80000019800252E
:100F700080F86740E6E710B5134601220CF03AFC12
:100F8000002010BD10B5044611F053FA052804D016
:100F9000204610F04BFC002010BD0C2010BD10B5F9
:100FA000044601F093F808B10C2010BD2146002042
:100FB00007F0FBFA002010BD10B5044610F0C5FC88
:100FC00050B108F09FFD38B1207808F045FB20783B
:100FD0000EF071F9002010BD0C2010BD10B50446B4
:100FE00001F074F808B10C2010BD2146012007F073
:100FF000DCFA002010BD38B504464FF6FF70ADF89E
:101000000000A079E179884216D02079FDF77BFABB
:1010100090B16079FDF777FA70B10022A07911469E
:1010200013F0C2FD40B90022E079114613F0BCFD77
:1010300010B9207A072801D9122038BD08F06FFDB9
:1010400060B911F0F6F948B900216846FFF78EFB48
:1010500020B1204606F032F9002038BD0C2038BD02
:101060002DE9FC41817805461A2925D00EDC162988
:101070002ED2DFE801F02D2D2D2D2D212D2D2D2D02
:101080002D2D2D2D2D2D2D2D2D2121212A291FD026
:101090000BDCA1F11E010C291AD2DFE801F01919AD
:1010A0001919191919191919190D3A3904290FD2D1
:1010B000DFE801F00E020E022888B0F5706F07D24B
:1010C00001276946FFF79EFA20B10220BDE8FC81A6
:1010D0001220FBE79DF8000000F0C8FF019C10B152
:1010E00004F58A7401E004F5C8749DF8000000F06E
:1010F000BDFF019E10B106F2151601E006F2911631
:101100006846FFF76DFA08B1207838B10C20DDE7AA
:10111000A863020014080020740000202770A8783B
:101120003070684601F026F80020CFE77CB50D4608
:101130006946FFF767FA002618B12E602E7102206B
:101140007CBD9DF8000000F091FF019C9DF800001F
:10115000703400F08BFF019884F842608168296048
:10116000017B297194F842100029F5D100207CBD43
:1011700010B5044600F0AAFF20B10BF0A3FC08B1A3
:101180000C2010BD207800F06AFFE279611C0BF0A2
:101190001AFE08B1002010BD022010BD10B5886EE7
:1011A00060B1002241F8682F0120CA718979884016
:1011B00013F0EEFC002800D01F2010BD0C2010BD45
:1011C0001CB50C466946FFF71DFA002809D19DF8A9
:1011D000000000280198B0F8700000D0401C20806A
:1011E00000201CBD1CB5044600886946FFF70AFABA
:1011F00008B102201CBD606828B1DDE9000122466B
:1012000001F042F81CBDDDE90001FFF7C7FF1CBD7E
:1012100070B51C460D4618B1012801D0122070BDD2
:101220001946104601F06EF830B12146284601F00B
:1012300073F808B1002070BD302070BD70B5044651
:1012400000780E46012804D018B1022801D00328E6
:1012500040D1607828B1012803D0022801D00328AA
:1012600038D1E07B10B9A078012833D1A07830F0D4
:1012700005012FD110F0050F2CD06289E188E078AC
:101280003346FFF7C5FF002825D1A07805281DD1DA
:101290006589A289218920793346FFF7B9FF0028A3
:1012A00019D1012004EB40014A8915442218D37852
:1012B000927893420ED1CA8889888A420AD1401C0A
:1012C000C0B20228EED3E088A84203D3A07B08B1C5
:1012D000072801D9122070BD002070BD10B586B05E
:1012E000044600F0D7FE10B10C2006B010BD02215C
:1012F00004F10A0001F025F8A0788DF80800A07824
:101300008DF8000060788DF8040020788DF80300D7
:10131000A07B8DF80500E07B00B101208DF8060070
:10132000A078C10717D0E07801F002F88DF801002D
:10133000E088ADF80A006089ADF80C00A07840079D
:1013400016D5207900F0F4FF8DF802002089ADF861
:101350000E00A0890AE040070AD5E07800F0E8FF17
:101360008DF80200E088ADF80E006089ADF810003D
:1013700002A810F0F6FA0028B7D168460DF0A0FFD9
:10138000B3E710B504460121FFF758FF002803D149
:101390002046BDE81040A1E710BD0278012A01D027
:1013A000BAB118E042783AB1012A05D0022A12D126
:1013B00089B1818879B100E059B1418849B180880B
:1013C00038B101EB8101490000EB8000B1EB002F47
:1013D00001D2002070471220704770B50446007893
:1013E0000D46012809D011F024F8052803D010F08B
:1013F000C8F9002800D00C2070BD0DF02EFE88B179
:101400000DF040FE0DF03CFF0028F5D125B16078CD
:101410000DF0D0FE0028EFD1A1886088BDE87040B3
:1014200010F0C5BA122070BD10B504460121FFF7B7
:10143000B4FF002804D12046BDE810400121CCE7CC
:1014400010BDF0B5871FDDE9056540F67B44A74276
:1014500013D28F1FA74210D288420ED8B2F5FA7F5E
:101460000BD2A3F10A00241FA04206D2521C4A4309
:10147000B2EB830F01DAAE4201D90020F0BD0120AA
:10148000F0BD2DE9FC47477A8946044617F0050F61
:101490007ED0F8087CD194F83A0008B9012F77D1B2
:1014A0000025A8462E46F90789F0010A19D0208A9E
:1014B000514600F027FFE8B36089514600F02CFF49
:1014C000C0B3208A6189884262D8A18EE08DCDE9BF
:1014D0000001238D628CA18BE08AFFF7B2FF48B335
:1014E0000125B8070ED504EB4500828EC18DCDE9EC
:1014F0000012038D428C818BC08AFFF7A2FFC8B116
:10150000A8466D1C78071ED504EB45065146308A67
:1015100000F0F8FE70B17089514600F0FDFE48B150
:10152000308A7189884253D8B18EF08DCDE900019F
:10153000338D00E00BE0728CB18BF08AFFF781FFF6
:1015400028B12E466D1CB9F1000F03D030E03020D9
:10155000BDE8FC87F80707D0780705D504EB4601FE
:1015600060894989884233D1228A01211BE04145A3
:1015700003D004EB4100008A024404EB4100C38A1B
:10158000868AB34224D1838B468BB34220D100E0BC
:101590001EE0438C068CB3421AD1038DC08C83426B
:1015A00016D1491CC9B2A942E1D3608990420FD338
:1015B000207810B101280BD102E0A0780028F9D1E1
:1015C000607838B1012805D0022803D0032801D063
:1015D0001220BDE70020BBE7002152E70178C907D0
:1015E00002D0406812F0CDBE12F09ABE10B500785D
:1015F000012800D00020FDF754FC002010BD2DE98B
:10160000F0478EB00D46AFF6A422D2E90092014613
:1016100090462846FFF735FF06000CD100F03AFD52
:1016200040B9FE4F387828B90DF0D6F9A0F57F41C2
:10163000FF3903D00C200EB0BDE8F087032105F17F
:10164000100000F07EFEF54809AA3E380990F448E3
:101650000A90F248062110380B900CA801F060FCAB
:10166000040037D000210BF02FFE04F130017B8AFB
:10167000BA8ACB830A84797C0091BA463B7CBA8AC9
:10168000798A208801F03AFD00B1FFDF208806F05A
:101690001CFF218804F10E0000F022FDE1A004F1FE
:1016A000120700680590032105A804F05BFF0020E5
:1016B00005A90A5C3A54401CC0B20328F9D3A88B90
:1016C0006080688CA080288DE080687A410703D50F
:1016D00008270AE00920AEE7C10701D0012704E08E
:1016E000800701D5022700E000273A46BAF8160025
:1016F000114610F0F1F90146A062204610F0FAF907
:101700003A46214600200CF0FDF900B90926C34AEB
:1017100021461C3200200CF012FA002784F8767063
:1017200084F87770A87800F09AFC6076D5F803000A
:10173000C4F81A00B5F80700E083C4F8089084F8EC
:101740000C80012084F8200101468DF80070684665
:1017500004F008FF9DF8000000F00701C0F3C1028B
:101760001144C0F3401008448DF80000401D20765D
:10177000092801D208302076012120460BF0A4FD73
:1017800068780DF075FCEEBBA9782878EA1C0DF09E
:1017900042FC48B10DF076FCA9782878EA1C0DF0DF
:1017A000E3FC060002D052E0122650E0687A00F016
:1017B00005010020CA0700D001208A0701D540F0AA
:1017C0000200490701D540F008000DF00DFC0600AD
:1017D0003DD1214603200DF0F1FC060037D10DF07C
:1017E000F6FC060033D1697A01F005018DF8081086
:1017F000697AC90708D06889ADF80A00288AADF867
:101800000C0000E023E00120697A8A0700D5401C23
:10181000490707D505EB40004189ADF80E10008A55
:10182000ADF8100002A810F09CF8064695F83A00B2
:1018300000B101200DF0EAFB4EB90DF021FD0600CC
:1018400005D1A98F204610F02DF8060008D0208879
:1018500006F03CFE2088062101F0A6FB00B1FFDF68
:101860003046E8E601460020C9E638B56B48007806
:1018700078B910F0DEFD052805D00DF0ADF8A0F523
:101880007F41FF3905D0684610F0D5F8040002D03A
:101890000CE00C2038BD0098008806F017FE009878
:1018A0000621008801F080FB00B1FFDF204638BD33
:1018B0001CB582894189CDE900120389C2888188DB
:1018C0004088FFF7BEFD08B100201CBD30201CBDC4
:1018D00070B50546FFF7ECFF00280ED128880621D9
:1018E00001F050FB040007D000F038FC20B1D4F820
:1018F0001801017831B901E0022070BDD4F86411FB
:10190000097809B13A2070BD05218171D4F8181108
:1019100000200881D4F81811A8884881D4F818113B
:10192000E8888881D4F818112889C881D4F818016A
:10193000028941898A4204D88279082A01D88A42D8
:1019400001D3122070BD29884180D4F818110220DB
:101950000870002070BD3EB504460BF0DDFEB0B14E
:101960002E480125A0F140024570236842F8423F0D
:1019700023790021137141706946062001F08BFA2A
:1019800000B1FFDF684601F064FA10B10EE01220EA
:101990003EBDBDF80440029880F82051684601F031
:1019A00058FA18B9BDF80400A042F4D100203EBD99
:1019B00070B505460088062101F0E4FA040007D05E
:1019C00000F0CCFB20B1D4F81811087830B901E050
:1019D000022070BDD4F86401007808B13A2070BDCF
:1019E000B020005D10F0010F22D0D5F80200486051
:1019F000D5F806008860D4F8180169891022818121
:101A0000D4F8180105F10C010E3004F58C74FCF7C4
:101A100022FD216803200870288805E014080020B2
:101A2000800000201122330021684880002070BD12
:101A30000C2070BD38B504460078EF284DD860887A
:101A4000ADF80000009800F08DFC88B361880807AD
:101A500008D4D4E9012082423FD8202A3DD3B0F5F2
:101A6000804F3AD8207B18B3072836D8607B28B13E
:101A7000012803D0022801D003282ED14A0703D41D
:101A8000022801D0032805D1A07B08B1012824D168
:101A9000480707D4607D28B1012803D0022801D06F
:101AA00003281AD1C806E07D03D5012815D110E01E
:101AB00013E0012801D003280FD1C80609D4607EA5
:101AC000012803D0022801D0032806D1A07E0F28C8
:101AD00003D8E07E18B1012801D0122038BD0020C3
:101AE00038BDF8B514460D46064608F018F808B19A
:101AF0000C20F8BD3046FFF79DFF0028F9D1FDF717
:101B0000DAF92870B07554B9FF208DF800006946E5
:101B10000020FDF7BAF969460020FDF7AAF9304622
:101B2000BDE8F840FDF7EEB80022DAE70078C1081A
:101B300001D012207047FD4981F820000020704735
:101B400010B504460078C00704D1608810B1FDF7D5
:101B500073F980B12078618800F00102607800F0AC
:101B600025FC002806D1FDF74FF901466088884220
:101B700003D9072010BD122010BD6168FDF785F95B
:101B8000002010BD10B504460078C00704D160885D
:101B900010B1FCF722FE70B12078618800F00102DC
:101BA000607800F003FC002804D160886168FDF7CC
:101BB00060F9002010BD122010BD7CB504464078AD
:101BC0004225012808D8A078FCF7FFFD20B1207835
:101BD0001225012802D090B128467CBDFDF777F987
:101BE00020B1A0880028F7D08028F5D8FDF776F935
:101BF00060B160780028EFD02078012808D006F086
:101C000087FD044607F079FC00287FD00C207CBDBE
:101C1000FCF791FF10B9FDF753F990B307F07FFF80
:101C20000028F3D1FCF798FDA0F57F41FF39EDD1F5
:101C3000FCF7A3FFA68842F210704643A079FDF797
:101C40000CF9FCF7D1FDF8B10022072101A801F041
:101C500067F9040058D0B6480021846020460BF094
:101C600040FA2046FDF7CEFCB04D04F130006A8A00
:101C7000A98AC2830184FCF7BEFD60B1E88A012114
:101C80000DE0FFE712207CBD3146002007F0E7FCA5
:101C900088B3FFDF44E0FDF723F90146E88A07F047
:101CA00089FD0146A0620022204606F034FDFCF7C3
:101CB000A2FD38B9FDF714F90246214601200BF0C8
:101CC00021FFD0B1994A21461C3201200BF037FF89
:101CD000687C00902B7CAA8A698A208801F00EFA21
:101CE00000B1FFDF208806F0F0FB3146204607F008
:101CF000B6FC00B1FFDF13E008E00721BDF80400E7
:101D000001F052F900B1FFDF09207CBD44B1208809
:101D100006F0DCFB2088072101F046F900B1FFDF67
:101D200000207CBD002148E770B50D46072101F079
:101D300029F9040003D094F8930110B10AE00220BD
:101D400070BD94F87D00142801D0152802D194F8B4
:101D5000E00108B10C2070BD1022294604F5CA70BC
:101D6000FCF779FB012084F89301002070BD10B5C9
:101D7000072101F007F918B190F8931111B107E0AC
:101D8000022010BD90F87D10142903D0152901D030
:101D90000C2010BD022180F89311002010BD2DE908
:101DA000FC410C464BF68032122194421DD8E4B11E
:101DB0006946FEF727FC002815D19DF8000000F0C9
:101DC00055F9019E9DF80000703600F04FF9019D15
:101DD000AD1C2F882246394630460BF078F928880A
:101DE000B842F6D10020BDE8FC810846FBE77CB58F
:101DF000044600886946FEF705FC002810D19DF8CE
:101E0000000000F033F9019D9DF80000703500F0EE
:101E10002DF90198A27890F82C10914201D10C2054
:101E20007CBD7F212972A9720021E972E17880F8D6
:101E30002D10217980F82E10A17880F82C10002028
:101E40007CBD1CB50C466946FEF7DCFB00280AD1B8
:101E50009DF8000000F00AF9019890F88C0000B19C
:101E60000120207000201CBD7CB50D46144669463B
:101E7000FEF7C8FB002809D19DF8000000F0F6F835
:101E8000019890F82C00012801D00C207CBD9DF811
:101E9000000000F0EBF8019890F87810297090F8A5
:101EA0007900207000207CBD70B50D4616460721D4
:101EB00001F068F818B381880124C388428804EBD4
:101EC0004104AC4217D842F210746343A410624339
:101ED000B3FBF2F2521E94B24FF4FA72944200D95C
:101EE0001446A54200D22C46491C641CB4FBF1F2F6
:101EF0004A43521E91B290F8CC211AB901E0022057
:101F000070BD01843180002070BD10B50C460721E2
:101F100001F038F870B180F8FF4024B190F8FD105E
:101F200009B107F05DFC002010BD0000140800207E
:101F3000740000200220F7E7017889B1417879B177
:101F400041881B290CD381881B2909D3C188022908
:101F500006D3F64902680A65406848650020704764
:101F60001220704710B504460FF0B2FD204607F06E
:101F7000F0FB0020D8E710B507F0EEFB0020D3E718
:101F80002DE9F04115460F46064601221146384616
:101F90000FF0A2FD04460121384607F00BFC8442F5
:101FA00000D204460121304600F065F806460121C2
:101FB000002000F060F83118012096318C4206D9DB
:101FC00001F19600611AB1FBF0F0401C80B228804C
:101FD0000020BDE8F08110B5044600F077F808B1A4
:101FE0000C20A1E7601C0AF0C9FE207800F0010077
:101FF000FCF7BEFD207800F001000DF03EF8002057
:1020000092E710B50446072000F056FF08B10C20F7
:102010008AE72078C00711D000226078114612F0BC
:10202000C3FD08B112207FE7A06809F062FB607869
:10203000D4F8041009F066FB002075E7002009F0D1
:1020400058FB00210846F5E710B505F01AFE002000
:102050006AE710B5006805F07CF8002064E718B165
:10206000022801D0012070470020704708B10020ED
:1020700070470120704710B5012904D0022905D00E
:10208000FFDF204650E7C000503001E080002C30D8
:1020900084B2F6E710B510F0CCF9042803D0052877
:1020A00001D0002040E701203EE710B5FFF7F2FF26
:1020B00010B10DF0A9F828B907F031FD20B1FCF7F7
:1020C00032FD08B101202FE700202DE710B5FFF702
:1020D000E1FF18B907F023FD002800D0012023E715
:1020E0002DE9FE4300250F4680460A26042140467E
:1020F00004F061FA40460BF0B0FA062000F0EAFE68
